{
  "contractName": "Bet",
  "abi": [
    {
      "inputs": [
        {
          "internalType": "address",
          "name": "_creator",
          "type": "address"
        },
        {
          "internalType": "string",
          "name": "_displayName",
          "type": "string"
        },
        {
          "internalType": "uint256",
          "name": "_wager",
          "type": "uint256"
        },
        {
          "internalType": "bool",
          "name": "_isEven",
          "type": "bool"
        },
        {
          "internalType": "string",
          "name": "_token",
          "type": "string"
        }
      ],
      "stateMutability": "payable",
      "type": "constructor"
    },
    {
      "anonymous": false,
      "inputs": [
        {
          "indexed": false,
          "internalType": "address",
          "name": "winner",
          "type": "address"
        },
        {
          "indexed": false,
          "internalType": "uint256",
          "name": "amount",
          "type": "uint256"
        },
        {
          "indexed": false,
          "internalType": "string",
          "name": "winnerDisplayName",
          "type": "string"
        },
        {
          "indexed": false,
          "internalType": "int256",
          "name": "txLastDigit",
          "type": "int256"
        },
        {
          "indexed": false,
          "internalType": "string",
          "name": "token",
          "type": "string"
        }
      ],
      "name": "Withdraw",
      "type": "event"
    },
    {
      "inputs": [],
      "name": "betData",
      "outputs": [
        {
          "internalType": "address payable",
          "name": "creator",
          "type": "address"
        },
        {
          "internalType": "string",
          "name": "displayName",
          "type": "string"
        },
        {
          "internalType": "uint256",
          "name": "wager",
          "type": "uint256"
        },
        {
          "internalType": "bool",
          "name": "isEven",
          "type": "bool"
        },
        {
          "internalType": "string",
          "name": "token",
          "type": "string"
        }
      ],
      "stateMutability": "view",
      "type": "function"
    },
    {
      "inputs": [
        {
          "internalType": "string",
          "name": "matchToken",
          "type": "string"
        },
        {
          "internalType": "bool",
          "name": "matchIsEven",
          "type": "bool"
        }
      ],
      "name": "matchBet",
      "outputs": [],
      "stateMutability": "payable",
      "type": "function"
    },
    {
      "inputs": [
        {
          "internalType": "string",
          "name": "s1",
          "type": "string"
        },
        {
          "internalType": "string",
          "name": "s2",
          "type": "string"
        }
      ],
      "name": "compareStringsByBytes",
      "outputs": [
        {
          "internalType": "bool",
          "name": "",
          "type": "bool"
        }
      ],
      "stateMutability": "pure",
      "type": "function"
    },
    {
      "inputs": [],
      "name": "returnBalance",
      "outputs": [
        {
          "internalType": "uint256",
          "name": "",
          "type": "uint256"
        }
      ],
      "stateMutability": "view",
      "type": "function"
    },
    {
      "inputs": [
        {
          "internalType": "address",
          "name": "_address",
          "type": "address"
        }
      ],
      "name": "kill",
      "outputs": [],
      "stateMutability": "nonpayable",
      "type": "function"
    }
  ],
  "bytecode": "0x6080604052604051620010fc380380620010fc833981810160405281019062000029919062000450565b6040518060a001604052808673ffffffffffffffffffffffffffffffffffffffff1681526020018581526020018481526020018315158152602001828152506000808201518160000160006101000a81548173ffffffffffffffffffffffffffffffffffffffff021916908373ffffffffffffffffffffffffffffffffffffffff1602179055506020820151816001019080519060200190620000ce92919062000126565b506040820151816002015560608201518160030160006101000a81548160ff02191690831515021790555060808201518160040190805190602001906200011792919062000126565b5090505050505050506200057a565b828054620001349062000545565b90600052602060002090601f016020900481019282620001585760008555620001a4565b82601f106200017357805160ff1916838001178555620001a4565b82800160010185558215620001a4579182015b82811115620001a357825182559160200191906001019062000186565b5b509050620001b39190620001b7565b5090565b5b80821115620001d2576000816000905550600101620001b8565b5090565b6000604051905090565b600080fd5b600080fd5b600073ffffffffffffffffffffffffffffffffffffffff82169050919050565b60006200021782620001ea565b9050919050565b62000229816200020a565b81146200023557600080fd5b50565b60008151905062000249816200021e565b92915050565b600080fd5b600080fd5b6000601f19601f8301169050919050565b7f4e487b7100000000000000000000000000000000000000000000000000000000600052604160045260246000fd5b620002a48262000259565b810181811067ffffffffffffffff82111715620002c657620002c56200026a565b5b80604052505050565b6000620002db620001d6565b9050620002e9828262000299565b919050565b600067ffffffffffffffff8211156200030c576200030b6200026a565b5b620003178262000259565b9050602081019050919050565b60005b838110156200034457808201518184015260208101905062000327565b8381111562000354576000848401525b50505050565b6000620003716200036b84620002ee565b620002cf565b90508281526020810184848401111562000390576200038f62000254565b5b6200039d84828562000324565b509392505050565b600082601f830112620003bd57620003bc6200024f565b5b8151620003cf8482602086016200035a565b91505092915050565b6000819050919050565b620003ed81620003d8565b8114620003f957600080fd5b50565b6000815190506200040d81620003e2565b92915050565b60008115159050919050565b6200042a8162000413565b81146200043657600080fd5b50565b6000815190506200044a816200041f565b92915050565b600080600080600060a086880312156200046f576200046e620001e0565b5b60006200047f8882890162000238565b955050602086015167ffffffffffffffff811115620004a357620004a2620001e5565b5b620004b188828901620003a5565b9450506040620004c488828901620003fc565b9350506060620004d78882890162000439565b925050608086015167ffffffffffffffff811115620004fb57620004fa620001e5565b5b6200050988828901620003a5565b9150509295509295909350565b7f4e487b7100000000000000000000000000000000000000000000000000000000600052602260045260246000fd5b600060028204905060018216806200055e57607f821691505b60208210810362000574576200057362000516565b5b50919050565b610b72806200058a6000396000f3fe60806040526004361061004a5760003560e01c8063134941761461004f578063900551a81461008c578063951b6c7a146100b7578063cbf0b0c0146100e6578063ef03047c1461010f575b600080fd5b34801561005b57600080fd5b50610076600480360381019061007191906106b2565b61012b565b6040516100839190610745565b60405180910390f35b34801561009857600080fd5b506100a1610184565b6040516100ae9190610779565b60405180910390f35b3480156100c357600080fd5b506100cc61018c565b6040516100dd95949392919061085d565b60405180910390f35b3480156100f257600080fd5b5061010d600480360381019061010891906108fc565b6102ed565b005b61012960048036038101906101249190610955565b6103db565b005b60008160405160200161013e91906109ed565b604051602081830303815290604052805190602001208360405160200161016591906109ed565b6040516020818303038152906040528051906020012014905092915050565b600047905090565b60008060000160009054906101000a900473ffffffffffffffffffffffffffffffffffffffff16908060010180546101c390610a33565b80601f01602080910402602001604051908101604052809291908181526020018280546101ef90610a33565b801561023c5780601f106102115761010080835404028352916020019161023c565b820191906000526020600020905b81548152906001019060200180831161021f57829003601f168201915b5050505050908060020154908060030160009054906101000a900460ff169080600401805461026a90610a33565b80601f016020809104026020016040519081016040528092919081815260200182805461029690610a33565b80156102e35780601f106102b8576101008083540402835291602001916102e3565b820191906000526020600020905b8154815290600101906020018083116102c657829003601f168201915b5050505050905085565b6000800160009054906101000a900473ffffffffffffffffffffffffffffffffffffffff1673ffffffffffffffffffffffffffffffffffffffff168173ffffffffffffffffffffffffffffffffffffffff161461037f576040517f08c379a000000000000000000000000000000000000000000000000000000000815260040161037690610ab0565b60405180910390fd5b600047116103c2576040517f08c379a00000000000000000000000000000000000000000000000000000000081526004016103b990610b1c565b60405180910390fd5b8073ffffffffffffffffffffffffffffffffffffffff16ff5b3482338360006002015484146103f057600080fd5b610487836000600401805461040490610a33565b80601f016020809104026020016040519081016040528092919081815260200182805461043090610a33565b801561047d5780601f106104525761010080835404028352916020019161047d565b820191906000526020600020905b81548152906001019060200180831161046057829003601f168201915b505050505061012b565b61049057600080fd5b6000800160009054906101000a900473ffffffffffffffffffffffffffffffffffffffff1673ffffffffffffffffffffffffffffffffffffffff168273ffffffffffffffffffffffffffffffffffffffff16036104ec57600080fd5b600060030160009054906101000a900460ff161515811515151461050f57600080fd5b33600560006101000a81548173ffffffffffffffffffffffffffffffffffffffff021916908373ffffffffffffffffffffffffffffffffffffffff160217905550505050505050565b6000604051905090565b600080fd5b600080fd5b600080fd5b600080fd5b6000601f19601f8301169050919050565b7f4e487b7100000000000000000000000000000000000000000000000000000000600052604160045260246000fd5b6105bf82610576565b810181811067ffffffffffffffff821117156105de576105dd610587565b5b80604052505050565b60006105f1610558565b90506105fd82826105b6565b919050565b600067ffffffffffffffff82111561061d5761061c610587565b5b61062682610576565b9050602081019050919050565b82818337600083830152505050565b600061065561065084610602565b6105e7565b90508281526020810184848401111561067157610670610571565b5b61067c848285610633565b509392505050565b600082601f8301126106995761069861056c565b5b81356106a9848260208601610642565b91505092915050565b600080604083850312156106c9576106c8610562565b5b600083013567ffffffffffffffff8111156106e7576106e6610567565b5b6106f385828601610684565b925050602083013567ffffffffffffffff81111561071457610713610567565b5b61072085828601610684565b9150509250929050565b60008115159050919050565b61073f8161072a565b82525050565b600060208201905061075a6000830184610736565b92915050565b6000819050919050565b61077381610760565b82525050565b600060208201905061078e600083018461076a565b92915050565b600073ffffffffffffffffffffffffffffffffffffffff82169050919050565b60006107bf82610794565b9050919050565b6107cf816107b4565b82525050565b600081519050919050565b600082825260208201905092915050565b60005b8381101561080f5780820151818401526020810190506107f4565b8381111561081e576000848401525b50505050565b600061082f826107d5565b61083981856107e0565b93506108498185602086016107f1565b61085281610576565b840191505092915050565b600060a08201905061087260008301886107c6565b81810360208301526108848187610824565b9050610893604083018661076a565b6108a06060830185610736565b81810360808301526108b28184610824565b90509695505050505050565b60006108c982610794565b9050919050565b6108d9816108be565b81146108e457600080fd5b50565b6000813590506108f6816108d0565b92915050565b60006020828403121561091257610911610562565b5b6000610920848285016108e7565b91505092915050565b6109328161072a565b811461093d57600080fd5b50565b60008135905061094f81610929565b92915050565b6000806040838503121561096c5761096b610562565b5b600083013567ffffffffffffffff81111561098a57610989610567565b5b61099685828601610684565b92505060206109a785828601610940565b9150509250929050565b600081905092915050565b60006109c7826107d5565b6109d181856109b1565b93506109e18185602086016107f1565b80840191505092915050565b60006109f982846109bc565b915081905092915050565b7f4e487b7100000000000000000000000000000000000000000000000000000000600052602260045260246000fd5b60006002820490506001821680610a4b57607f821691505b602082108103610a5e57610a5d610a04565b5b50919050565b7f546865736520646f6e2774206d61746368000000000000000000000000000000600082015250565b6000610a9a6011836107e0565b9150610aa582610a64565b602082019050919050565b60006020820190508181036000830152610ac981610a8d565b9050919050565b7f436f6e74726163742062616c616e6365206973207a65726f0000000000000000600082015250565b6000610b066018836107e0565b9150610b1182610ad0565b602082019050919050565b60006020820190508181036000830152610b3581610af9565b905091905056fea26469706673582212209d90abb2c52d72acd0f47117080775e73554dd3f7e387fedb14621110cc207d264736f6c634300080d0033",
  "immutableReferences": {},
  "source": "// SPDX-License-Identifier: MIT\r\npragma solidity >=0.4.22 <0.9.0;\r\n\r\n\r\ncontract Bet {\r\n\r\n    event Withdraw(address winner, uint256 amount, string winnerDisplayName, int txLastDigit, string token);\r\n\r\n    struct BetData{\r\n        address payable creator;\r\n        string displayName;\r\n        uint256 wager;\r\n        bool isEven;\r\n        string token;\r\n    }\r\n\r\n    BetData public betData;\r\n    address payable matcher;\r\n\r\n    constructor(address _creator, string memory _displayName, uint256 _wager, bool _isEven, string memory _token) payable {\r\n        betData = BetData(\r\n            payable(_creator),\r\n            _displayName,\r\n            _wager,\r\n            _isEven,\r\n            _token\r\n        );\r\n    }\r\n\r\n    function withdrawToWinner(address payable winner, int txLastDigit, string memory winnerDisplayName) internal{\r\n        emit Withdraw(winner, address(this).balance, winnerDisplayName, txLastDigit, betData.token);\r\n        selfdestruct(winner);\r\n    }\r\n\r\n    function matchBet(string memory matchToken, bool matchIsEven) \r\n    public payable isValidBetMatch(msg.value, matchToken, msg.sender, matchIsEven){\r\n        matcher = payable(msg.sender);\r\n        // TODO CHAINLINK RNG\r\n        // address payable winner = didCreatorWin ? betData.creator : matcher;\r\n        // string memory winnerDisplayName = didCreatorWin ? betData.displayName : matchDisplayName;\r\n        // withdrawToWinner(winner, txLastDigit, winnerDisplayName);\r\n    }\r\n\r\n    // Pure\r\n    function compareStringsByBytes(string memory s1, string memory s2) public pure returns(bool){\r\n        return keccak256(abi.encodePacked(s1)) == keccak256(abi.encodePacked(s2));\r\n    }\r\n\r\n    //View\r\n    function returnBalance() public view returns(uint){\r\n        return address(this).balance;\r\n    }\r\n    \r\n    // Modifiers\r\n    modifier mustBeCreator {\r\n        require(msg.sender == betData.creator);\r\n        _;\r\n    }\r\n\r\n    modifier isValidBetMatch(uint256 matchWager, string memory matchToken, address _matcher, bool matchIsEven) {\r\n        require(matchWager == betData.wager);\r\n        require(compareStringsByBytes(matchToken, betData.token));\r\n        require(_matcher != betData.creator);\r\n        require(!matchIsEven == betData.isEven);\r\n        _;\r\n    }\r\n\r\n    // Selfdestruct\r\n    function kill(address _address) external{\r\n        require(_address == address(betData.creator), \"These don't match\");\r\n        require(address(this).balance > 0, \"Contract balance is zero\");\r\n        selfdestruct(payable(_address));\r\n    }\r\n}\r\n\r\ncontract BetFactory{\r\n\r\n    mapping(address => Bet[]) public allBets;\r\n    mapping(address => bool) public allAddresses; // TODO Is this necessary? Could check length of array in allBets no?\r\n\r\n    event CreatedBet(address creator, string displayName, uint256 wager, bool isEven, string token);\r\n\r\n    receive() external payable{} // Allows contract to receive ether from anywhere\r\n\r\n    function createBet(uint256 _wager, bool _isEven, string memory _token, string memory _displayName) external payable returns(Bet){ \r\n        require(msg.value > 0, \"Zero ether has been sent\");\r\n        Bet bet = new Bet{value: _wager}(msg.sender, _displayName, _wager, _isEven, _token);\r\n        emit CreatedBet(msg.sender, _displayName, _wager, _isEven, _token);\r\n        allBets[msg.sender].push(bet);\r\n        allAddresses[msg.sender] = true;\r\n        return bet;\r\n    }\r\n\r\n    // Note this only returns the bet contract addresses. More needs to be done with web3 and ABI data to get the actual contract object\r\n    function getSelfBets() public view returns (Bet[] memory){ \r\n        return allBets[msg.sender];\r\n    }\r\n\r\n    function getSelfBetsLength() public view returns (uint256){\r\n        return allBets[msg.sender].length;\r\n    }\r\n\r\n    function getHasOpenBets() public view returns(bool){\r\n        return allAddresses[msg.sender];\r\n    }\r\n\r\n    function readBets(string memory _tokenFilter, string memory _betFilter, string memory _displayNameFilter, uint256 pageNum) public view{\r\n        // TODO in some way that's not mega expensive\r\n    }\r\n\r\n    function deleteBet(address _betAddress) public hasSelfBets(){\r\n        Bet[] memory bets = allBets[msg.sender];\r\n        for(uint j = 0; j < bets.length; j++){ // TODO theres certainly a more efficient way to do this. Look for something like find() in javascript\r\n            Bet bet = bets[j];\r\n            if(address(bet) == _betAddress){\r\n                bet.kill(msg.sender);\r\n                if(allBets[msg.sender].length == 1){\r\n                    delete allBets[msg.sender];\r\n                    allAddresses[msg.sender] = false;\r\n                } else {\r\n                    allBets[msg.sender][j] = allBets[msg.sender][allBets[msg.sender].length - 1];\r\n                    allBets[msg.sender].pop();\r\n                }\r\n                break;\r\n            }\r\n        }\r\n    }\r\n\r\n    //Modifiers\r\n    modifier hasSelfBets(){\r\n        require(allAddresses[msg.sender], \"Not matching for some reason\");\r\n        _;\r\n    }\r\n}\r\n\r\n// abstract contract Mortal is Bet {\r\n\r\n//     function kill() public mustBeCreator { \r\n//         selfdestruct(payable(msg.sender));\r\n//     }\r\n// }",
  "sourcePath": "C:\\Users\\Maxwell\\Documents\\DuelArena\\DuelArena\\contracts\\BetFactory.sol",
  "compiler": {
    "name": "solc",
    "version": "0.8.13+commit.abaa5c0e.Emscripten.clang"
  },
  "schemaVersion": "3.4.3",
  "updatedAt": "2022-04-27T00:59:05.107Z",
  "devdoc": {
    "kind": "dev",
    "methods": {},
    "version": 1
  },
  "userdoc": {
    "kind": "user",
    "methods": {},
    "version": 1
  }
}