{
  "contractName": "Bet",
  "abi": [
    {
      "inputs": [
        {
          "internalType": "address",
          "name": "_creator",
          "type": "address"
        },
        {
          "internalType": "string",
          "name": "_displayName",
          "type": "string"
        },
        {
          "internalType": "uint256",
          "name": "_wager",
          "type": "uint256"
        },
        {
          "internalType": "bool",
          "name": "_isEven",
          "type": "bool"
        },
        {
          "internalType": "string",
          "name": "_token",
          "type": "string"
        }
      ],
      "stateMutability": "payable",
      "type": "constructor"
    },
    {
      "anonymous": false,
      "inputs": [
        {
          "indexed": false,
          "internalType": "address",
          "name": "winner",
          "type": "address"
        },
        {
          "indexed": false,
          "internalType": "uint256",
          "name": "amount",
          "type": "uint256"
        },
        {
          "indexed": false,
          "internalType": "string",
          "name": "winnerDisplayName",
          "type": "string"
        },
        {
          "indexed": false,
          "internalType": "int256",
          "name": "txLastDigit",
          "type": "int256"
        },
        {
          "indexed": false,
          "internalType": "string",
          "name": "token",
          "type": "string"
        }
      ],
      "name": "Withdraw",
      "type": "event"
    },
    {
      "inputs": [],
      "name": "betData",
      "outputs": [
        {
          "internalType": "address payable",
          "name": "creator",
          "type": "address"
        },
        {
          "internalType": "string",
          "name": "displayName",
          "type": "string"
        },
        {
          "internalType": "uint256",
          "name": "wager",
          "type": "uint256"
        },
        {
          "internalType": "bool",
          "name": "isEven",
          "type": "bool"
        },
        {
          "internalType": "string",
          "name": "token",
          "type": "string"
        }
      ],
      "stateMutability": "view",
      "type": "function"
    },
    {
      "inputs": [
        {
          "internalType": "string",
          "name": "_matchToken",
          "type": "string"
        },
        {
          "internalType": "bool",
          "name": "_matchIsEven",
          "type": "bool"
        }
      ],
      "name": "matchBet",
      "outputs": [],
      "stateMutability": "payable",
      "type": "function"
    },
    {
      "inputs": [],
      "name": "getBetData",
      "outputs": [
        {
          "components": [
            {
              "internalType": "address payable",
              "name": "creator",
              "type": "address"
            },
            {
              "internalType": "string",
              "name": "displayName",
              "type": "string"
            },
            {
              "internalType": "uint256",
              "name": "wager",
              "type": "uint256"
            },
            {
              "internalType": "bool",
              "name": "isEven",
              "type": "bool"
            },
            {
              "internalType": "string",
              "name": "token",
              "type": "string"
            }
          ],
          "internalType": "struct Bet.BetData",
          "name": "",
          "type": "tuple"
        }
      ],
      "stateMutability": "view",
      "type": "function"
    },
    {
      "inputs": [
        {
          "internalType": "address",
          "name": "_address",
          "type": "address"
        }
      ],
      "name": "kill",
      "outputs": [],
      "stateMutability": "nonpayable",
      "type": "function"
    }
  ],
  "bytecode": "0x60806040526040516200159438038062001594833981810160405281019062000029919062000450565b6040518060a001604052808673ffffffffffffffffffffffffffffffffffffffff1681526020018581526020018481526020018315158152602001828152506000808201518160000160006101000a81548173ffffffffffffffffffffffffffffffffffffffff021916908373ffffffffffffffffffffffffffffffffffffffff1602179055506020820151816001019080519060200190620000ce92919062000126565b506040820151816002015560608201518160030160006101000a81548160ff02191690831515021790555060808201518160040190805190602001906200011792919062000126565b5090505050505050506200057a565b828054620001349062000545565b90600052602060002090601f016020900481019282620001585760008555620001a4565b82601f106200017357805160ff1916838001178555620001a4565b82800160010185558215620001a4579182015b82811115620001a357825182559160200191906001019062000186565b5b509050620001b39190620001b7565b5090565b5b80821115620001d2576000816000905550600101620001b8565b5090565b6000604051905090565b600080fd5b600080fd5b600073ffffffffffffffffffffffffffffffffffffffff82169050919050565b60006200021782620001ea565b9050919050565b62000229816200020a565b81146200023557600080fd5b50565b60008151905062000249816200021e565b92915050565b600080fd5b600080fd5b6000601f19601f8301169050919050565b7f4e487b7100000000000000000000000000000000000000000000000000000000600052604160045260246000fd5b620002a48262000259565b810181811067ffffffffffffffff82111715620002c657620002c56200026a565b5b80604052505050565b6000620002db620001d6565b9050620002e9828262000299565b919050565b600067ffffffffffffffff8211156200030c576200030b6200026a565b5b620003178262000259565b9050602081019050919050565b60005b838110156200034457808201518184015260208101905062000327565b8381111562000354576000848401525b50505050565b6000620003716200036b84620002ee565b620002cf565b90508281526020810184848401111562000390576200038f62000254565b5b6200039d84828562000324565b509392505050565b600082601f830112620003bd57620003bc6200024f565b5b8151620003cf8482602086016200035a565b91505092915050565b6000819050919050565b620003ed81620003d8565b8114620003f957600080fd5b50565b6000815190506200040d81620003e2565b92915050565b60008115159050919050565b6200042a8162000413565b81146200043657600080fd5b50565b6000815190506200044a816200041f565b92915050565b600080600080600060a086880312156200046f576200046e620001e0565b5b60006200047f8882890162000238565b955050602086015167ffffffffffffffff811115620004a357620004a2620001e5565b5b620004b188828901620003a5565b9450506040620004c488828901620003fc565b9350506060620004d78882890162000439565b925050608086015167ffffffffffffffff811115620004fb57620004fa620001e5565b5b6200050988828901620003a5565b9150509295509295909350565b7f4e487b7100000000000000000000000000000000000000000000000000000000600052602260045260246000fd5b600060028204905060018216806200055e57607f821691505b60208210810362000574576200057362000516565b5b50919050565b61100a806200058a6000396000f3fe60806040526004361061003f5760003560e01c8063951b6c7a14610044578063cbf0b0c014610073578063edfa7eb01461009c578063ef03047c146100c7575b600080fd5b34801561005057600080fd5b506100596100e3565b60405161006a9594939291906108e6565b60405180910390f35b34801561007f57600080fd5b5061009a60048036038101906100959190610999565b610244565b005b3480156100a857600080fd5b506100b1610332565b6040516100be9190610aba565b60405180910390f35b6100e160048036038101906100dc9190610c3d565b6104eb565b005b60008060000160009054906101000a900473ffffffffffffffffffffffffffffffffffffffff169080600101805461011a90610cc8565b80601f016020809104026020016040519081016040528092919081815260200182805461014690610cc8565b80156101935780601f1061016857610100808354040283529160200191610193565b820191906000526020600020905b81548152906001019060200180831161017657829003601f168201915b5050505050908060020154908060030160009054906101000a900460ff16908060040180546101c190610cc8565b80601f01602080910402602001604051908101604052809291908181526020018280546101ed90610cc8565b801561023a5780601f1061020f5761010080835404028352916020019161023a565b820191906000526020600020905b81548152906001019060200180831161021d57829003601f168201915b5050505050905085565b6000800160009054906101000a900473ffffffffffffffffffffffffffffffffffffffff1673ffffffffffffffffffffffffffffffffffffffff168173ffffffffffffffffffffffffffffffffffffffff16146102d6576040517f08c379a00000000000000000000000000000000000000000000000000000000081526004016102cd90610d45565b60405180910390fd5b60004711610319576040517f08c379a000000000000000000000000000000000000000000000000000000000815260040161031090610db1565b60405180910390fd5b8073ffffffffffffffffffffffffffffffffffffffff16ff5b61033a610791565b60006040518060a00160405290816000820160009054906101000a900473ffffffffffffffffffffffffffffffffffffffff1673ffffffffffffffffffffffffffffffffffffffff1673ffffffffffffffffffffffffffffffffffffffff1681526020016001820180546103ad90610cc8565b80601f01602080910402602001604051908101604052809291908181526020018280546103d990610cc8565b80156104265780601f106103fb57610100808354040283529160200191610426565b820191906000526020600020905b81548152906001019060200180831161040957829003601f168201915b50505050508152602001600282015481526020016003820160009054906101000a900460ff1615151515815260200160048201805461046490610cc8565b80601f016020809104026020016040519081016040528092919081815260200182805461049090610cc8565b80156104dd5780601f106104b2576101008083540402835291602001916104dd565b820191906000526020600020905b8154815290600101906020018083116104c057829003601f168201915b505050505081525050905090565b6000600201543414610532576040517f08c379a000000000000000000000000000000000000000000000000000000000815260040161052990610e1d565b60405180910390fd5b6105c9826000600401805461054690610cc8565b80601f016020809104026020016040519081016040528092919081815260200182805461057290610cc8565b80156105bf5780601f10610594576101008083540402835291602001916105bf565b820191906000526020600020905b8154815290600101906020018083116105a257829003601f168201915b5050505050610738565b610608576040517f08c379a00000000000000000000000000000000000000000000000000000000081526004016105ff90610e89565b60405180910390fd5b6000800160009054906101000a900473ffffffffffffffffffffffffffffffffffffffff1673ffffffffffffffffffffffffffffffffffffffff163373ffffffffffffffffffffffffffffffffffffffff160361069a576040517f08c379a000000000000000000000000000000000000000000000000000000000815260040161069190610ef5565b60405180910390fd5b600060030160009054906101000a900460ff16151581151515146106f3576040517f08c379a00000000000000000000000000000000000000000000000000000000081526004016106ea90610f61565b60405180910390fd5b33600560006101000a81548173ffffffffffffffffffffffffffffffffffffffff021916908373ffffffffffffffffffffffffffffffffffffffff1602179055505050565b60008160405160200161074b9190610fbd565b60405160208183030381529060405280519060200120836040516020016107729190610fbd565b6040516020818303038152906040528051906020012014905092915050565b6040518060a00160405280600073ffffffffffffffffffffffffffffffffffffffff1681526020016060815260200160008152602001600015158152602001606081525090565b600073ffffffffffffffffffffffffffffffffffffffff82169050919050565b6000610803826107d8565b9050919050565b610813816107f8565b82525050565b600081519050919050565b600082825260208201905092915050565b60005b83811015610853578082015181840152602081019050610838565b83811115610862576000848401525b50505050565b6000601f19601f8301169050919050565b600061088482610819565b61088e8185610824565b935061089e818560208601610835565b6108a781610868565b840191505092915050565b6000819050919050565b6108c5816108b2565b82525050565b60008115159050919050565b6108e0816108cb565b82525050565b600060a0820190506108fb600083018861080a565b818103602083015261090d8187610879565b905061091c60408301866108bc565b61092960608301856108d7565b818103608083015261093b8184610879565b90509695505050505050565b6000604051905090565b600080fd5b600080fd5b6000610966826107d8565b9050919050565b6109768161095b565b811461098157600080fd5b50565b6000813590506109938161096d565b92915050565b6000602082840312156109af576109ae610951565b5b60006109bd84828501610984565b91505092915050565b6109cf816107f8565b82525050565b600082825260208201905092915050565b60006109f182610819565b6109fb81856109d5565b9350610a0b818560208601610835565b610a1481610868565b840191505092915050565b610a28816108b2565b82525050565b610a37816108cb565b82525050565b600060a083016000830151610a5560008601826109c6565b5060208301518482036020860152610a6d82826109e6565b9150506040830151610a826040860182610a1f565b506060830151610a956060860182610a2e565b5060808301518482036080860152610aad82826109e6565b9150508091505092915050565b60006020820190508181036000830152610ad48184610a3d565b905092915050565b600080fd5b600080fd5b7f4e487b7100000000000000000000000000000000000000000000000000000000600052604160045260246000fd5b610b1e82610868565b810181811067ffffffffffffffff82111715610b3d57610b3c610ae6565b5b80604052505050565b6000610b50610947565b9050610b5c8282610b15565b919050565b600067ffffffffffffffff821115610b7c57610b7b610ae6565b5b610b8582610868565b9050602081019050919050565b82818337600083830152505050565b6000610bb4610baf84610b61565b610b46565b905082815260208101848484011115610bd057610bcf610ae1565b5b610bdb848285610b92565b509392505050565b600082601f830112610bf857610bf7610adc565b5b8135610c08848260208601610ba1565b91505092915050565b610c1a816108cb565b8114610c2557600080fd5b50565b600081359050610c3781610c11565b92915050565b60008060408385031215610c5457610c53610951565b5b600083013567ffffffffffffffff811115610c7257610c71610956565b5b610c7e85828601610be3565b9250506020610c8f85828601610c28565b9150509250929050565b7f4e487b7100000000000000000000000000000000000000000000000000000000600052602260045260246000fd5b60006002820490506001821680610ce057607f821691505b602082108103610cf357610cf2610c99565b5b50919050565b7f43616c6c6572206973206e6f74206f776e657200000000000000000000000000600082015250565b6000610d2f601383610824565b9150610d3a82610cf9565b602082019050919050565b60006020820190508181036000830152610d5e81610d22565b9050919050565b7f436f6e74726163742062616c616e6365206973207a65726f0000000000000000600082015250565b6000610d9b601883610824565b9150610da682610d65565b602082019050919050565b60006020820190508181036000830152610dca81610d8e565b9050919050565b7f576167657220646f65736e2774206d6174636800000000000000000000000000600082015250565b6000610e07601383610824565b9150610e1282610dd1565b602082019050919050565b60006020820190508181036000830152610e3681610dfa565b9050919050565b7f546f6b656e20646f65736e2774206d6174636800000000000000000000000000600082015250565b6000610e73601383610824565b9150610e7e82610e3d565b602082019050919050565b60006020820190508181036000830152610ea281610e66565b9050919050565b7f43726561746f7220616e64206d61746368657220617265207468652073616d65600082015250565b6000610edf602083610824565b9150610eea82610ea9565b602082019050919050565b60006020820190508181036000830152610f0e81610ed2565b9050919050565b7f426f7468206265742073616d6520626574000000000000000000000000000000600082015250565b6000610f4b601183610824565b9150610f5682610f15565b602082019050919050565b60006020820190508181036000830152610f7a81610f3e565b9050919050565b600081905092915050565b6000610f9782610819565b610fa18185610f81565b9350610fb1818560208601610835565b80840191505092915050565b6000610fc98284610f8c565b91508190509291505056fea26469706673582212207d82f8dc0ccfaaf9ccf04141b6dfb454251e13deca5e0a103ff2f35ea102d70464736f6c634300080d0033",
  "immutableReferences": {},
  "source": "// SPDX-License-Identifier: MIT\r\npragma solidity ^0.8.13;\r\n\r\n\r\ncontract Bet {\r\n\r\n    event Withdraw(address winner, uint256 amount, string winnerDisplayName, int txLastDigit, string token);\r\n\r\n    struct BetData{\r\n        address payable creator;\r\n        string displayName;\r\n        uint256 wager;\r\n        bool isEven;\r\n        string token;\r\n    }\r\n\r\n    BetData public betData;\r\n    address payable matcher;\r\n\r\n    constructor(address _creator, string memory _displayName, uint256 _wager, bool _isEven, string memory _token) payable {\r\n        betData = BetData(\r\n            payable(_creator),\r\n            _displayName,\r\n            _wager,\r\n            _isEven,\r\n            _token\r\n        );\r\n    }\r\n\r\n    function withdrawToWinner(address payable winner, int txLastDigit, string calldata winnerDisplayName) internal{\r\n        emit Withdraw(winner, address(this).balance, winnerDisplayName, txLastDigit, betData.token);\r\n        selfdestruct(winner);\r\n    }\r\n\r\n    // TODO this makes more sense in the BetFactoy. Lowers contract creation costs as well as aids in removing the bet from all arrays once finished\r\n    function matchBet(string memory _matchToken, bool _matchIsEven) public payable{\r\n        require(msg.value == betData.wager, \"Wager doesn't match\");\r\n        require(compareStringsByBytes(_matchToken, betData.token), \"Token doesn't match\");\r\n        require(msg.sender != betData.creator, \"Creator and matcher are the same\");\r\n        require(!_matchIsEven == betData.isEven, \"Both bet same bet\");\r\n        matcher = payable(msg.sender);\r\n        // TODO CHAINLINK RNG\r\n        // address payable winner = didCreatorWin ? betData.creator : matcher;\r\n        // string memory winnerDisplayName = didCreatorWin ? betData.displayName : matchDisplayName;\r\n        // withdrawToWinner(winner, txLastDigit, winnerDisplayName);\r\n    }\r\n\r\n    // Pure\r\n    function compareStringsByBytes(string memory s1, string memory s2) internal pure returns(bool){ \r\n        return keccak256(abi.encodePacked(s1)) == keccak256(abi.encodePacked(s2));\r\n    }\r\n\r\n    // View\r\n    function getBetData() public view returns(BetData memory){\r\n        return betData;\r\n    }\r\n    \r\n    // Selfdestruct\r\n    function kill(address _address) external{\r\n        require(_address == address(betData.creator), \"Caller is not owner\");\r\n        require(address(this).balance > 0, \"Contract balance is zero\");\r\n        selfdestruct(payable(_address));\r\n    }\r\n}\r\n\r\ncontract BetFactory{\r\n\r\n    // TODO look into Swarm for distributed data storage. The setup below clearly won't scale. Get this project working first. \r\n    // State this intention in the first line of the README\r\n\r\n    Bet[] public allBets;\r\n    mapping(address => Bet[]) public betsByWallet;\r\n    mapping(string => Bet[]) public betsByToken; \r\n    mapping(string => Bet[]) public betsByDisplayName;\r\n\r\n    event CreatedBet(address creator, string displayName, uint256 wager, bool isEven, string token);\r\n\r\n    receive() external payable{} // Allows contract to receive ether from anywhere\r\n\r\n    function createBet(uint256 _wager, bool _isEven, string calldata _token, string calldata _displayName) external payable returns(Bet){ \r\n        require(msg.value > 0, \"Zero ether has been sent\");\r\n        Bet bet = new Bet{value: _wager}(msg.sender, _displayName, _wager, _isEven, _token);\r\n        emit CreatedBet(msg.sender, _displayName, _wager, _isEven, _token);\r\n        betsByWallet[msg.sender].push(bet);\r\n        betsByToken[_token].push(bet);\r\n        betsByDisplayName[_displayName].push(bet);\r\n        allBets.push(bet);\r\n        return bet;\r\n    }\r\n\r\n    // Note these only returns the bet contract addresses. More needs to be done with web3 and ABI data to get the actual contract object\r\n    function get25Bets(uint256 _pageNum, int8 _filter, string calldata _input) public view returns (Bet[] memory) {\r\n        Bet[] memory arr = _filter == 0 ?\r\n            allBets : _filter == 1 ?\r\n                betsByWallet[msg.sender] : _filter == 2 ?\r\n                    betsByToken[_input] \r\n                    :\r\n                    betsByDisplayName[_input];\r\n        uint256 length = arr.length > _pageNum * 25 + 25 ? 25 : arr.length % 25; \r\n        Bet[] memory buildingArr = new Bet[](length);\r\n        for(uint256 j = 0; j < length; j++){\r\n            buildingArr[j] = arr[(_pageNum * 25) + j];\r\n        }\r\n        return buildingArr;\r\n    }\r\n\r\n    function deleteFromArray(Bet[] storage arr, Bet bet) internal {\r\n        for(uint i = 0; i < arr.length; i++){ \r\n            if(address(bet) == address(arr[i])){\r\n                arr[i] = arr[arr.length - 1];\r\n                arr.pop();\r\n            }\r\n        }\r\n    }\r\n\r\n    function deleteBet(address _betAddress) public {\r\n        Bet[] memory bets = betsByWallet[msg.sender];\r\n        for(uint j = 0; j < bets.length; j++){ \r\n            if(address(bets[j]) == _betAddress){\r\n                Bet bet = bets[j];\r\n                string memory token = bet.getBetData().token;\r\n                string memory displayName = bet.getBetData().displayName;\r\n                if(allBets.length == 1){\r\n                    delete allBets;\r\n                } else {\r\n                    deleteFromArray(allBets, bet);\r\n                }\r\n                if(betsByWallet[msg.sender].length == 1){\r\n                    delete betsByWallet[msg.sender];\r\n                } else {\r\n                    deleteFromArray(betsByWallet[msg.sender], bet);\r\n                }\r\n                if(betsByToken[token].length == 1){\r\n                    delete betsByToken[token];\r\n                } else {\r\n                    deleteFromArray(betsByToken[token], bets[j]);\r\n                }\r\n                if(betsByDisplayName[displayName].length == 1){\r\n                    delete betsByDisplayName[displayName];\r\n                } else {\r\n                    deleteFromArray(betsByDisplayName[displayName], bets[j]);\r\n                }\r\n                bet.kill(msg.sender);\r\n                break;\r\n            }\r\n        }\r\n    }\r\n}",
  "sourcePath": "C:\\Users\\Maxwell\\Documents\\DuelArena\\DuelArena\\contracts\\BetFactory.sol",
  "compiler": {
    "name": "solc",
    "version": "0.8.13+commit.abaa5c0e.Emscripten.clang"
  },
  "schemaVersion": "3.4.3",
  "updatedAt": "2022-05-01T20:11:05.656Z",
  "devdoc": {
    "kind": "dev",
    "methods": {},
    "version": 1
  },
  "userdoc": {
    "kind": "user",
    "methods": {},
    "version": 1
  }
}