{
  "contractName": "Bet",
  "abi": [
    {
      "inputs": [],
      "stateMutability": "nonpayable",
      "type": "constructor"
    },
    {
      "inputs": [],
      "name": "betId",
      "outputs": [
        {
          "internalType": "uint256",
          "name": "",
          "type": "uint256"
        }
      ],
      "stateMutability": "view",
      "type": "function"
    },
    {
      "inputs": [],
      "name": "creator",
      "outputs": [
        {
          "internalType": "address",
          "name": "",
          "type": "address"
        }
      ],
      "stateMutability": "view",
      "type": "function"
    },
    {
      "inputs": [],
      "name": "displayName",
      "outputs": [
        {
          "internalType": "string",
          "name": "",
          "type": "string"
        }
      ],
      "stateMutability": "view",
      "type": "function"
    },
    {
      "inputs": [],
      "name": "token",
      "outputs": [
        {
          "internalType": "string",
          "name": "",
          "type": "string"
        }
      ],
      "stateMutability": "view",
      "type": "function"
    },
    {
      "inputs": [],
      "name": "wager",
      "outputs": [
        {
          "internalType": "uint256",
          "name": "",
          "type": "uint256"
        }
      ],
      "stateMutability": "view",
      "type": "function"
    },
    {
      "inputs": [
        {
          "internalType": "string",
          "name": "s1",
          "type": "string"
        },
        {
          "internalType": "string",
          "name": "s2",
          "type": "string"
        }
      ],
      "name": "compareStringsbyBytes",
      "outputs": [
        {
          "internalType": "bool",
          "name": "",
          "type": "bool"
        }
      ],
      "stateMutability": "pure",
      "type": "function"
    }
  ],
  "bytecode": "0x608060405234801561001057600080fd5b506106fe806100206000396000f3fe608060405234801561001057600080fd5b50600436106100625760003560e01c806302d05d3f1461006757806327bce91b146100855780634affb260146100a3578063667d5d22146100c1578063e9a734ff146100df578063fc0c546a1461010f575b600080fd5b61006f61012d565b60405161007c9190610313565b60405180910390f35b61008d610151565b60405161009a9190610347565b60405180910390f35b6100ab610157565b6040516100b891906103fb565b60405180910390f35b6100c96101e5565b6040516100d69190610347565b60405180910390f35b6100f960048036038101906100f49190610566565b6101eb565b60405161010691906105f9565b60405180910390f35b610117610244565b60405161012491906103fb565b60405180910390f35b60008054906101000a900473ffffffffffffffffffffffffffffffffffffffff1681565b60045481565b6001805461016490610643565b80601f016020809104026020016040519081016040528092919081815260200182805461019090610643565b80156101dd5780601f106101b2576101008083540402835291602001916101dd565b820191906000526020600020905b8154815290600101906020018083116101c057829003601f168201915b505050505081565b60025481565b6000816040516020016101fe91906106b1565b604051602081830303815290604052805190602001208360405160200161022591906106b1565b6040516020818303038152906040528051906020012014905092915050565b6003805461025190610643565b80601f016020809104026020016040519081016040528092919081815260200182805461027d90610643565b80156102ca5780601f1061029f576101008083540402835291602001916102ca565b820191906000526020600020905b8154815290600101906020018083116102ad57829003601f168201915b505050505081565b600073ffffffffffffffffffffffffffffffffffffffff82169050919050565b60006102fd826102d2565b9050919050565b61030d816102f2565b82525050565b60006020820190506103286000830184610304565b92915050565b6000819050919050565b6103418161032e565b82525050565b600060208201905061035c6000830184610338565b92915050565b600081519050919050565b600082825260208201905092915050565b60005b8381101561039c578082015181840152602081019050610381565b838111156103ab576000848401525b50505050565b6000601f19601f8301169050919050565b60006103cd82610362565b6103d7818561036d565b93506103e781856020860161037e565b6103f0816103b1565b840191505092915050565b6000602082019050818103600083015261041581846103c2565b905092915050565b6000604051905090565b600080fd5b600080fd5b600080fd5b600080fd5b7f4e487b7100000000000000000000000000000000000000000000000000000000600052604160045260246000fd5b610473826103b1565b810181811067ffffffffffffffff821117156104925761049161043b565b5b80604052505050565b60006104a561041d565b90506104b1828261046a565b919050565b600067ffffffffffffffff8211156104d1576104d061043b565b5b6104da826103b1565b9050602081019050919050565b82818337600083830152505050565b6000610509610504846104b6565b61049b565b90508281526020810184848401111561052557610524610436565b5b6105308482856104e7565b509392505050565b600082601f83011261054d5761054c610431565b5b813561055d8482602086016104f6565b91505092915050565b6000806040838503121561057d5761057c610427565b5b600083013567ffffffffffffffff81111561059b5761059a61042c565b5b6105a785828601610538565b925050602083013567ffffffffffffffff8111156105c8576105c761042c565b5b6105d485828601610538565b9150509250929050565b60008115159050919050565b6105f3816105de565b82525050565b600060208201905061060e60008301846105ea565b92915050565b7f4e487b7100000000000000000000000000000000000000000000000000000000600052602260045260246000fd5b6000600282049050600182168061065b57607f821691505b6020821081141561066f5761066e610614565b5b50919050565b600081905092915050565b600061068b82610362565b6106958185610675565b93506106a581856020860161037e565b80840191505092915050565b60006106bd8284610680565b91508190509291505056fea2646970667358221220643ca10d75d337d5ff9e4006fe8b4cc6783238d1ebc1ceee5359fed3d09b7c3a64736f6c634300080a0033",
  "immutableReferences": {},
  "source": "// SPDX-License-Identifier: MIT\r\npragma solidity >=0.4.22 <0.9.0;\r\n\r\ncontract Bet {\r\n\r\n    address public creator;\r\n    string public displayName;\r\n    uint256 public wager;\r\n    string public token;\r\n    uint256 public betId;\r\n\r\n    constructor() {\r\n\r\n    }\r\n\r\n    // Pure\r\n    function compareStringsbyBytes(string memory s1, string memory s2) public pure returns(bool){\r\n        return keccak256(abi.encodePacked(s1)) == keccak256(abi.encodePacked(s2));\r\n    }\r\n    \r\n    // Modifiers\r\n    modifier mustBeCreator {\r\n        require(msg.sender == creator);\r\n        _;\r\n    }\r\n\r\n    modifier mustMatchBet(Bet incMatchBet) {\r\n        require(incMatchBet.wager() == wager);\r\n        require(compareStringsbyBytes(incMatchBet.token(), token));\r\n        _;\r\n    }\r\n}",
  "sourcePath": "C:\\Users\\Maxwell\\Documents\\DuelArena\\DuelArena\\contracts\\Bet.sol",
  "compiler": {
    "name": "solc",
    "version": "0.8.10+commit.fc410830.Emscripten.clang"
  },
  "schemaVersion": "3.4.3",
  "updatedAt": "2021-11-29T00:50:35.303Z",
  "networkType": "ethereum",
  "devdoc": {
    "kind": "dev",
    "methods": {},
    "version": 1
  },
  "userdoc": {
    "kind": "user",
    "methods": {},
    "version": 1
  }
}