{
  "contractName": "Bet",
  "abi": [
    {
      "inputs": [
        {
          "internalType": "address",
          "name": "_creator",
          "type": "address"
        },
        {
          "internalType": "string",
          "name": "_displayName",
          "type": "string"
        },
        {
          "internalType": "uint256",
          "name": "_wager",
          "type": "uint256"
        },
        {
          "internalType": "bool",
          "name": "_isEven",
          "type": "bool"
        },
        {
          "internalType": "string",
          "name": "_token",
          "type": "string"
        },
        {
          "internalType": "uint256",
          "name": "_betId",
          "type": "uint256"
        }
      ],
      "stateMutability": "nonpayable",
      "type": "constructor"
    },
    {
      "inputs": [],
      "name": "betId",
      "outputs": [
        {
          "internalType": "uint256",
          "name": "",
          "type": "uint256"
        }
      ],
      "stateMutability": "view",
      "type": "function"
    },
    {
      "inputs": [],
      "name": "creator",
      "outputs": [
        {
          "internalType": "address",
          "name": "",
          "type": "address"
        }
      ],
      "stateMutability": "view",
      "type": "function"
    },
    {
      "inputs": [],
      "name": "displayName",
      "outputs": [
        {
          "internalType": "string",
          "name": "",
          "type": "string"
        }
      ],
      "stateMutability": "view",
      "type": "function"
    },
    {
      "inputs": [],
      "name": "isEven",
      "outputs": [
        {
          "internalType": "bool",
          "name": "",
          "type": "bool"
        }
      ],
      "stateMutability": "view",
      "type": "function"
    },
    {
      "inputs": [],
      "name": "token",
      "outputs": [
        {
          "internalType": "string",
          "name": "",
          "type": "string"
        }
      ],
      "stateMutability": "view",
      "type": "function"
    },
    {
      "inputs": [],
      "name": "wager",
      "outputs": [
        {
          "internalType": "uint256",
          "name": "",
          "type": "uint256"
        }
      ],
      "stateMutability": "view",
      "type": "function"
    },
    {
      "inputs": [
        {
          "internalType": "string",
          "name": "s1",
          "type": "string"
        },
        {
          "internalType": "string",
          "name": "s2",
          "type": "string"
        }
      ],
      "name": "compareStringsbyBytes",
      "outputs": [
        {
          "internalType": "bool",
          "name": "",
          "type": "bool"
        }
      ],
      "stateMutability": "pure",
      "type": "function"
    }
  ],
  "bytecode": "0x60806040523480156200001157600080fd5b5060405162000ca038038062000ca0833981810160405281019062000037919062000407565b856000806101000a81548173ffffffffffffffffffffffffffffffffffffffff021916908373ffffffffffffffffffffffffffffffffffffffff16021790555084600190805190602001906200008f929190620000dd565b508360028190555082600360006101000a81548160ff0219169083151502179055508160049080519060200190620000c9929190620000dd565b508060058190555050505050505062000546565b828054620000eb9062000510565b90600052602060002090601f0160209004810192826200010f57600085556200015b565b82601f106200012a57805160ff19168380011785556200015b565b828001600101855582156200015b579182015b828111156200015a5782518255916020019190600101906200013d565b5b5090506200016a91906200016e565b5090565b5b80821115620001895760008160009055506001016200016f565b5090565b6000604051905090565b600080fd5b600080fd5b600073ffffffffffffffffffffffffffffffffffffffff82169050919050565b6000620001ce82620001a1565b9050919050565b620001e081620001c1565b8114620001ec57600080fd5b50565b6000815190506200020081620001d5565b92915050565b600080fd5b600080fd5b6000601f19601f8301169050919050565b7f4e487b7100000000000000000000000000000000000000000000000000000000600052604160045260246000fd5b6200025b8262000210565b810181811067ffffffffffffffff821117156200027d576200027c62000221565b5b80604052505050565b6000620002926200018d565b9050620002a0828262000250565b919050565b600067ffffffffffffffff821115620002c357620002c262000221565b5b620002ce8262000210565b9050602081019050919050565b60005b83811015620002fb578082015181840152602081019050620002de565b838111156200030b576000848401525b50505050565b6000620003286200032284620002a5565b62000286565b9050828152602081018484840111156200034757620003466200020b565b5b62000354848285620002db565b509392505050565b600082601f83011262000374576200037362000206565b5b81516200038684826020860162000311565b91505092915050565b6000819050919050565b620003a4816200038f565b8114620003b057600080fd5b50565b600081519050620003c48162000399565b92915050565b60008115159050919050565b620003e181620003ca565b8114620003ed57600080fd5b50565b6000815190506200040181620003d6565b92915050565b60008060008060008060c0878903121562000427576200042662000197565b5b60006200043789828a01620001ef565b965050602087015167ffffffffffffffff8111156200045b576200045a6200019c565b5b6200046989828a016200035c565b95505060406200047c89828a01620003b3565b94505060606200048f89828a01620003f0565b935050608087015167ffffffffffffffff811115620004b357620004b26200019c565b5b620004c189828a016200035c565b92505060a0620004d489828a01620003b3565b9150509295509295509295565b7f4e487b7100000000000000000000000000000000000000000000000000000000600052602260045260246000fd5b600060028204905060018216806200052957607f821691505b6020821081141562000540576200053f620004e1565b5b50919050565b61074a80620005566000396000f3fe608060405234801561001057600080fd5b506004361061007d5760003560e01c80634affb2601161005b5780634affb260146100dc578063667d5d22146100fa578063e9a734ff14610118578063fc0c546a146101485761007d565b806302d05d3f1461008257806327bce91b146100a057806336b166ba146100be575b600080fd5b61008a610166565b604051610097919061035f565b60405180910390f35b6100a861018a565b6040516100b59190610393565b60405180910390f35b6100c6610190565b6040516100d391906103c9565b60405180910390f35b6100e46101a3565b6040516100f1919061047d565b60405180910390f35b610102610231565b60405161010f9190610393565b60405180910390f35b610132600480360381019061012d91906105e8565b610237565b60405161013f91906103c9565b60405180910390f35b610150610290565b60405161015d919061047d565b60405180910390f35b60008054906101000a900473ffffffffffffffffffffffffffffffffffffffff1681565b60055481565b600360009054906101000a900460ff1681565b600180546101b09061068f565b80601f01602080910402602001604051908101604052809291908181526020018280546101dc9061068f565b80156102295780601f106101fe57610100808354040283529160200191610229565b820191906000526020600020905b81548152906001019060200180831161020c57829003601f168201915b505050505081565b60025481565b60008160405160200161024a91906106fd565b604051602081830303815290604052805190602001208360405160200161027191906106fd565b6040516020818303038152906040528051906020012014905092915050565b6004805461029d9061068f565b80601f01602080910402602001604051908101604052809291908181526020018280546102c99061068f565b80156103165780601f106102eb57610100808354040283529160200191610316565b820191906000526020600020905b8154815290600101906020018083116102f957829003601f168201915b505050505081565b600073ffffffffffffffffffffffffffffffffffffffff82169050919050565b60006103498261031e565b9050919050565b6103598161033e565b82525050565b60006020820190506103746000830184610350565b92915050565b6000819050919050565b61038d8161037a565b82525050565b60006020820190506103a86000830184610384565b92915050565b60008115159050919050565b6103c3816103ae565b82525050565b60006020820190506103de60008301846103ba565b92915050565b600081519050919050565b600082825260208201905092915050565b60005b8381101561041e578082015181840152602081019050610403565b8381111561042d576000848401525b50505050565b6000601f19601f8301169050919050565b600061044f826103e4565b61045981856103ef565b9350610469818560208601610400565b61047281610433565b840191505092915050565b600060208201905081810360008301526104978184610444565b905092915050565b6000604051905090565b600080fd5b600080fd5b600080fd5b600080fd5b7f4e487b7100000000000000000000000000000000000000000000000000000000600052604160045260246000fd5b6104f582610433565b810181811067ffffffffffffffff82111715610514576105136104bd565b5b80604052505050565b600061052761049f565b905061053382826104ec565b919050565b600067ffffffffffffffff821115610553576105526104bd565b5b61055c82610433565b9050602081019050919050565b82818337600083830152505050565b600061058b61058684610538565b61051d565b9050828152602081018484840111156105a7576105a66104b8565b5b6105b2848285610569565b509392505050565b600082601f8301126105cf576105ce6104b3565b5b81356105df848260208601610578565b91505092915050565b600080604083850312156105ff576105fe6104a9565b5b600083013567ffffffffffffffff81111561061d5761061c6104ae565b5b610629858286016105ba565b925050602083013567ffffffffffffffff81111561064a576106496104ae565b5b610656858286016105ba565b9150509250929050565b7f4e487b7100000000000000000000000000000000000000000000000000000000600052602260045260246000fd5b600060028204905060018216806106a757607f821691505b602082108114156106bb576106ba610660565b5b50919050565b600081905092915050565b60006106d7826103e4565b6106e181856106c1565b93506106f1818560208601610400565b80840191505092915050565b600061070982846106cc565b91508190509291505056fea264697066735822122027cc457637fc60990f2e02270f5b64f6927521a0c2c2118449f4191e6ad0b1c264736f6c634300080b0033",
  "immutableReferences": {},
  "source": "// SPDX-License-Identifier: MIT\r\npragma solidity >=0.4.22 <0.9.0;\r\n\r\n// TODO don't use ETH retard gas\r\n// Solang Solidity Compiler allows you to deploy .sol smart contracts to Solana blockchain\r\n\r\n// TODO You're currently using a normal factory pattern. This is improved gas costs, but it still falls way short\r\n// You should instead be using a cloning pattern. This creates one single bet contract that has all the functions, and then\r\n// all additional 'clones' only require their unique properties, which would get input as variables to the OG implementation\r\n\r\ncontract Bet {\r\n\r\n    address public creator;\r\n    string public displayName;\r\n    uint256 public wager;\r\n    bool public isEven;\r\n    string public token;\r\n    uint256 public betId;\r\n\r\n\r\n    constructor(address _creator, string memory _displayName, uint256 _wager, bool _isEven, string memory _token, uint256 _betId) {\r\n        creator = _creator;\r\n        displayName = _displayName;\r\n        wager = _wager;\r\n        isEven = _isEven;\r\n        token = _token;\r\n        betId = _betId;\r\n    }\r\n\r\n    // function getAllProperties() public view returns(Bet memory){\r\n        \r\n    // }\r\n\r\n    // Pure\r\n    function compareStringsbyBytes(string memory s1, string memory s2) public pure returns(bool){\r\n        return keccak256(abi.encodePacked(s1)) == keccak256(abi.encodePacked(s2));\r\n    }\r\n    \r\n    // Modifiers\r\n    modifier mustBeCreator {\r\n        require(msg.sender == creator);\r\n        _;\r\n    }\r\n\r\n    modifier mustMatchBet(Bet incMatchBet) {\r\n        require(incMatchBet.wager() == wager);\r\n        require(compareStringsbyBytes(incMatchBet.token(), token));\r\n        _;\r\n    }\r\n}\r\n\r\ncontract BetFactory{\r\n\r\n    mapping(address => Bet[]) public allBets;\r\n    mapping(address => bool) public allAddresses;\r\n    uint256 public betCounter = 1;\r\n\r\n    event CreatedBet(address creator, string displayName, uint256 wager, bool isEven, string token, uint256 betId);\r\n\r\n    function createBet(uint256 _wager, bool _isEven, string memory _token, string memory _displayName) external returns(Bet){ \r\n        betCounter += 1;\r\n        Bet bet = new Bet(msg.sender, _displayName, _wager, _isEven, _token, betCounter);\r\n        emit CreatedBet(msg.sender, _displayName, _wager, _isEven, _token, betCounter);\r\n        allBets[msg.sender].push(bet);\r\n        allAddresses[msg.sender] = true;\r\n        return bet;\r\n    }\r\n\r\n    // This doesn't work atm\r\n    function removeBet(uint256 _betId) public hasOpenBets{\r\n        for (uint j = 0; j <= allBets[msg.sender].length; j ++) {  \r\n            if(_betId == allBets[msg.sender][j].betId()){\r\n                delete allBets[msg.sender][j];\r\n                if(allBets[msg.sender].length == 0){\r\n                    allAddresses[msg.sender] = false;\r\n                }\r\n            }\r\n        }\r\n    } \r\n\r\n    function getSelfBets() public view returns (Bet[] memory){ \r\n        return allBets[msg.sender];\r\n    }\r\n\r\n    function getSelfBetsLength() public view returns (uint256){\r\n        return allBets[msg.sender].length;\r\n    }\r\n\r\n    function getHasOpenBets() public view returns(bool){\r\n        return allAddresses[msg.sender];\r\n    }\r\n\r\n    function readBets(string memory _tokenFilter, string memory _betFilter, string memory _displayNameFilter, uint256 pageNum) public view{\r\n        // TODO in some way that's not mega expensive\r\n    }\r\n\r\n    //Modifiers\r\n    modifier hasOpenBets(){\r\n        // BROKEN ?\r\n        require(allAddresses[msg.sender] == true);\r\n        _;\r\n    }\r\n\r\n}\r\n\r\nabstract contract Mortal is Bet {\r\n\r\n    function kill() public mustBeCreator { \r\n        selfdestruct(payable(msg.sender));\r\n    }\r\n}",
  "sourcePath": "C:\\Users\\Maxwell\\Documents\\DuelArena\\DuelArena\\contracts\\BetFactory.sol",
  "compiler": {
    "name": "solc",
    "version": "0.8.11+commit.d7f03943.Emscripten.clang"
  },
  "schemaVersion": "3.4.3",
  "updatedAt": "2022-01-02T19:39:36.920Z",
  "devdoc": {
    "kind": "dev",
    "methods": {},
    "version": 1
  },
  "userdoc": {
    "kind": "user",
    "methods": {},
    "version": 1
  }
}