{
  "contractName": "Bet",
  "abi": [
    {
      "inputs": [
        {
          "internalType": "address",
          "name": "_creator",
          "type": "address"
        },
        {
          "internalType": "string",
          "name": "_displayName",
          "type": "string"
        },
        {
          "internalType": "uint256",
          "name": "_wager",
          "type": "uint256"
        },
        {
          "internalType": "bool",
          "name": "_isEven",
          "type": "bool"
        },
        {
          "internalType": "string",
          "name": "_token",
          "type": "string"
        },
        {
          "internalType": "uint256",
          "name": "_betId",
          "type": "uint256"
        }
      ],
      "stateMutability": "nonpayable",
      "type": "constructor"
    },
    {
      "inputs": [],
      "name": "betData",
      "outputs": [
        {
          "internalType": "address",
          "name": "creator",
          "type": "address"
        },
        {
          "internalType": "string",
          "name": "displayName",
          "type": "string"
        },
        {
          "internalType": "uint256",
          "name": "wager",
          "type": "uint256"
        },
        {
          "internalType": "bool",
          "name": "isEven",
          "type": "bool"
        },
        {
          "internalType": "string",
          "name": "token",
          "type": "string"
        },
        {
          "internalType": "uint256",
          "name": "betId",
          "type": "uint256"
        }
      ],
      "stateMutability": "view",
      "type": "function"
    },
    {
      "inputs": [
        {
          "internalType": "string",
          "name": "s1",
          "type": "string"
        },
        {
          "internalType": "string",
          "name": "s2",
          "type": "string"
        }
      ],
      "name": "compareStringsbyBytes",
      "outputs": [
        {
          "internalType": "bool",
          "name": "",
          "type": "bool"
        }
      ],
      "stateMutability": "pure",
      "type": "function"
    }
  ],
  "bytecode": "0x60806040523480156200001157600080fd5b5060405162000c4f38038062000c4f83398181016040528101906200003791906200046f565b6040518060c001604052808773ffffffffffffffffffffffffffffffffffffffff1681526020018681526020018581526020018415158152602001838152602001828152506000808201518160000160006101000a81548173ffffffffffffffffffffffffffffffffffffffff021916908373ffffffffffffffffffffffffffffffffffffffff1602179055506020820151816001019080519060200190620000e292919062000145565b506040820151816002015560608201518160030160006101000a81548160ff02191690831515021790555060808201518160040190805190602001906200012b92919062000145565b5060a08201518160050155905050505050505050620005ae565b828054620001539062000578565b90600052602060002090601f016020900481019282620001775760008555620001c3565b82601f106200019257805160ff1916838001178555620001c3565b82800160010185558215620001c3579182015b82811115620001c2578251825591602001919060010190620001a5565b5b509050620001d29190620001d6565b5090565b5b80821115620001f1576000816000905550600101620001d7565b5090565b6000604051905090565b600080fd5b600080fd5b600073ffffffffffffffffffffffffffffffffffffffff82169050919050565b6000620002368262000209565b9050919050565b620002488162000229565b81146200025457600080fd5b50565b60008151905062000268816200023d565b92915050565b600080fd5b600080fd5b6000601f19601f8301169050919050565b7f4e487b7100000000000000000000000000000000000000000000000000000000600052604160045260246000fd5b620002c38262000278565b810181811067ffffffffffffffff82111715620002e557620002e462000289565b5b80604052505050565b6000620002fa620001f5565b9050620003088282620002b8565b919050565b600067ffffffffffffffff8211156200032b576200032a62000289565b5b620003368262000278565b9050602081019050919050565b60005b838110156200036357808201518184015260208101905062000346565b8381111562000373576000848401525b50505050565b6000620003906200038a846200030d565b620002ee565b905082815260208101848484011115620003af57620003ae62000273565b5b620003bc84828562000343565b509392505050565b600082601f830112620003dc57620003db6200026e565b5b8151620003ee84826020860162000379565b91505092915050565b6000819050919050565b6200040c81620003f7565b81146200041857600080fd5b50565b6000815190506200042c8162000401565b92915050565b60008115159050919050565b620004498162000432565b81146200045557600080fd5b50565b60008151905062000469816200043e565b92915050565b60008060008060008060c087890312156200048f576200048e620001ff565b5b60006200049f89828a0162000257565b965050602087015167ffffffffffffffff811115620004c357620004c262000204565b5b620004d189828a01620003c4565b9550506040620004e489828a016200041b565b9450506060620004f789828a0162000458565b935050608087015167ffffffffffffffff8111156200051b576200051a62000204565b5b6200052989828a01620003c4565b92505060a06200053c89828a016200041b565b9150509295509295509295565b7f4e487b7100000000000000000000000000000000000000000000000000000000600052602260045260246000fd5b600060028204905060018216806200059157607f821691505b60208210811415620005a857620005a762000549565b5b50919050565b61069180620005be6000396000f3fe608060405234801561001057600080fd5b50600436106100365760003560e01c8063951b6c7a1461003b578063e9a734ff1461005e575b600080fd5b61004361008e565b6040516100559695949392919061035c565b60405180910390f35b61007860048036038101906100739190610514565b6101f5565b604051610085919061058c565b60405180910390f35b60008060000160009054906101000a900473ffffffffffffffffffffffffffffffffffffffff16908060010180546100c5906105d6565b80601f01602080910402602001604051908101604052809291908181526020018280546100f1906105d6565b801561013e5780601f106101135761010080835404028352916020019161013e565b820191906000526020600020905b81548152906001019060200180831161012157829003601f168201915b5050505050908060020154908060030160009054906101000a900460ff169080600401805461016c906105d6565b80601f0160208091040260200160405190810160405280929190818152602001828054610198906105d6565b80156101e55780601f106101ba576101008083540402835291602001916101e5565b820191906000526020600020905b8154815290600101906020018083116101c857829003601f168201915b5050505050908060050154905086565b6000816040516020016102089190610644565b604051602081830303815290604052805190602001208360405160200161022f9190610644565b6040516020818303038152906040528051906020012014905092915050565b600073ffffffffffffffffffffffffffffffffffffffff82169050919050565b60006102798261024e565b9050919050565b6102898161026e565b82525050565b600081519050919050565b600082825260208201905092915050565b60005b838110156102c95780820151818401526020810190506102ae565b838111156102d8576000848401525b50505050565b6000601f19601f8301169050919050565b60006102fa8261028f565b610304818561029a565b93506103148185602086016102ab565b61031d816102de565b840191505092915050565b6000819050919050565b61033b81610328565b82525050565b60008115159050919050565b61035681610341565b82525050565b600060c0820190506103716000830189610280565b818103602083015261038381886102ef565b90506103926040830187610332565b61039f606083018661034d565b81810360808301526103b181856102ef565b90506103c060a0830184610332565b979650505050505050565b6000604051905090565b600080fd5b600080fd5b600080fd5b600080fd5b7f4e487b7100000000000000000000000000000000000000000000000000000000600052604160045260246000fd5b610421826102de565b810181811067ffffffffffffffff821117156104405761043f6103e9565b5b80604052505050565b60006104536103cb565b905061045f8282610418565b919050565b600067ffffffffffffffff82111561047f5761047e6103e9565b5b610488826102de565b9050602081019050919050565b82818337600083830152505050565b60006104b76104b284610464565b610449565b9050828152602081018484840111156104d3576104d26103e4565b5b6104de848285610495565b509392505050565b600082601f8301126104fb576104fa6103df565b5b813561050b8482602086016104a4565b91505092915050565b6000806040838503121561052b5761052a6103d5565b5b600083013567ffffffffffffffff811115610549576105486103da565b5b610555858286016104e6565b925050602083013567ffffffffffffffff811115610576576105756103da565b5b610582858286016104e6565b9150509250929050565b60006020820190506105a1600083018461034d565b92915050565b7f4e487b7100000000000000000000000000000000000000000000000000000000600052602260045260246000fd5b600060028204905060018216806105ee57607f821691505b60208210811415610602576106016105a7565b5b50919050565b600081905092915050565b600061061e8261028f565b6106288185610608565b93506106388185602086016102ab565b80840191505092915050565b60006106508284610613565b91508190509291505056fea26469706673582212207615adab944dcaff64b7586df69a84c4851f0966575180210702aac8c0254ff664736f6c634300080b0033",
  "immutableReferences": {},
  "source": "// SPDX-License-Identifier: MIT\r\npragma solidity >=0.4.22 <0.9.0;\r\n\r\n// TODO don't use ETH retard gas\r\n// Solang Solidity Compiler allows you to deploy .sol smart contracts to Solana blockchain\r\n\r\n// TODO You're currently using a normal factory pattern. This is improved gas costs, but it still falls way short\r\n// You should instead be using a cloning pattern. This creates one single bet contract that has all the functions, and then\r\n// all additional 'clones' only require their unique properties, which would get input as variables to the OG implementation\r\n\r\ncontract Bet {\r\n\r\n    struct BetData{\r\n        address creator;\r\n        string displayName;\r\n        uint256 wager;\r\n        bool isEven;\r\n        string token;\r\n        uint256 betId;\r\n    }\r\n\r\n    BetData public betData;\r\n\r\n    constructor(address _creator, string memory _displayName, uint256 _wager, bool _isEven, string memory _token, uint256 _betId) {\r\n        betData = BetData(\r\n            _creator,\r\n            _displayName,\r\n            _wager,\r\n            _isEven,\r\n            _token,\r\n            _betId\r\n        );\r\n    }\r\n\r\n    // Pure\r\n    function compareStringsbyBytes(string memory s1, string memory s2) public pure returns(bool){\r\n        return keccak256(abi.encodePacked(s1)) == keccak256(abi.encodePacked(s2));\r\n    }\r\n    \r\n    // Modifiers\r\n    modifier mustBeCreator {\r\n        require(msg.sender == betData.creator);\r\n        _;\r\n    }\r\n\r\n    modifier isValidBetMatch(BetData memory incBet) {\r\n        require(incBet.wager == betData.wager);\r\n        require(compareStringsbyBytes(incBet.token, betData.token));\r\n        require(incBet.creator != betData.creator);\r\n        require(!incBet.isEven == betData.isEven);\r\n        _;\r\n    }\r\n}\r\n\r\ncontract BetFactory{\r\n\r\n    mapping(address => Bet[]) public allBets;\r\n    mapping(address => bool) public allAddresses;\r\n    uint256 public betCounter = 1;\r\n\r\n    event CreatedBet(address creator, string displayName, uint256 wager, bool isEven, string token, uint256 betId);\r\n\r\n    function createBet(uint256 _wager, bool _isEven, string memory _token, string memory _displayName) external returns(Bet){ \r\n        betCounter += 1;\r\n        Bet bet = new Bet(msg.sender, _displayName, _wager, _isEven, _token, betCounter);\r\n        emit CreatedBet(msg.sender, _displayName, _wager, _isEven, _token, betCounter);\r\n        allBets[msg.sender].push(bet);\r\n        allAddresses[msg.sender] = true;\r\n        return bet;\r\n    }\r\n\r\n    // This doesn't work atm\r\n    // function removeBet(uint256 _betId) public hasOpenBets{\r\n    //     for (uint j = 0; j <= allBets[msg.sender].length; j ++) {  \r\n    //         if(_betId == allBets[msg.sender][j].betId()){\r\n    //             delete allBets[msg.sender][j];\r\n    //             if(allBets[msg.sender].length == 0){\r\n    //                 allAddresses[msg.sender] = false;\r\n    //             }\r\n    //         }\r\n    //     }\r\n    // } \r\n\r\n    function getSelfBets() public view returns (Bet[] memory){ \r\n        return allBets[msg.sender];\r\n    }\r\n\r\n    function getSelfBetsLength() public view returns (uint256){\r\n        return allBets[msg.sender].length;\r\n    }\r\n\r\n    function getHasOpenBets() public view returns(bool){\r\n        return allAddresses[msg.sender];\r\n    }\r\n\r\n    function readBets(string memory _tokenFilter, string memory _betFilter, string memory _displayNameFilter, uint256 pageNum) public view{\r\n        // TODO in some way that's not mega expensive\r\n    }\r\n\r\n    //Modifiers\r\n    modifier hasOpenBets(){\r\n        // BROKEN ?\r\n        require(allAddresses[msg.sender] == true);\r\n        _;\r\n    }\r\n\r\n}\r\n\r\nabstract contract Mortal is Bet {\r\n\r\n    function kill() public mustBeCreator { \r\n        selfdestruct(payable(msg.sender));\r\n    }\r\n}",
  "sourcePath": "C:\\Users\\Maxwell\\Documents\\DuelArena\\DuelArena\\contracts\\BetFactory.sol",
  "compiler": {
    "name": "solc",
    "version": "0.8.11+commit.d7f03943.Emscripten.clang"
  },
  "schemaVersion": "3.4.3",
  "updatedAt": "2022-01-02T22:17:18.784Z",
  "devdoc": {
    "kind": "dev",
    "methods": {},
    "version": 1
  },
  "userdoc": {
    "kind": "user",
    "methods": {},
    "version": 1
  }
}