{
  "contractName": "Bet",
  "abi": [
    {
      "inputs": [
        {
          "internalType": "address",
          "name": "_creator",
          "type": "address"
        },
        {
          "internalType": "string",
          "name": "_displayName",
          "type": "string"
        },
        {
          "internalType": "uint256",
          "name": "_wager",
          "type": "uint256"
        },
        {
          "internalType": "bool",
          "name": "_isEven",
          "type": "bool"
        },
        {
          "internalType": "string",
          "name": "_token",
          "type": "string"
        },
        {
          "internalType": "uint256",
          "name": "_betId",
          "type": "uint256"
        }
      ],
      "stateMutability": "payable",
      "type": "constructor"
    },
    {
      "anonymous": false,
      "inputs": [
        {
          "indexed": false,
          "internalType": "address",
          "name": "winner",
          "type": "address"
        },
        {
          "indexed": false,
          "internalType": "uint256",
          "name": "amount",
          "type": "uint256"
        },
        {
          "indexed": false,
          "internalType": "string",
          "name": "winnerDisplayName",
          "type": "string"
        },
        {
          "indexed": false,
          "internalType": "int256",
          "name": "txLastDigit",
          "type": "int256"
        },
        {
          "indexed": false,
          "internalType": "string",
          "name": "token",
          "type": "string"
        }
      ],
      "name": "Withdraw",
      "type": "event"
    },
    {
      "inputs": [],
      "name": "betData",
      "outputs": [
        {
          "internalType": "address payable",
          "name": "creator",
          "type": "address"
        },
        {
          "internalType": "string",
          "name": "displayName",
          "type": "string"
        },
        {
          "internalType": "uint256",
          "name": "wager",
          "type": "uint256"
        },
        {
          "internalType": "bool",
          "name": "isEven",
          "type": "bool"
        },
        {
          "internalType": "string",
          "name": "token",
          "type": "string"
        },
        {
          "internalType": "uint256",
          "name": "betId",
          "type": "uint256"
        }
      ],
      "stateMutability": "view",
      "type": "function"
    },
    {
      "inputs": [
        {
          "internalType": "string",
          "name": "matchToken",
          "type": "string"
        },
        {
          "internalType": "bool",
          "name": "matchIsEven",
          "type": "bool"
        },
        {
          "internalType": "string",
          "name": "matchDisplayName",
          "type": "string"
        }
      ],
      "name": "matchBet",
      "outputs": [],
      "stateMutability": "payable",
      "type": "function"
    },
    {
      "inputs": [
        {
          "internalType": "string",
          "name": "s1",
          "type": "string"
        },
        {
          "internalType": "string",
          "name": "s2",
          "type": "string"
        }
      ],
      "name": "compareStringsByBytes",
      "outputs": [
        {
          "internalType": "bool",
          "name": "",
          "type": "bool"
        }
      ],
      "stateMutability": "pure",
      "type": "function"
    }
  ],
  "bytecode": "0x60806040526040516200122438038062001224833981810160405281019062000029919062000461565b6040518060c001604052808773ffffffffffffffffffffffffffffffffffffffff1681526020018681526020018581526020018415158152602001838152602001828152506000808201518160000160006101000a81548173ffffffffffffffffffffffffffffffffffffffff021916908373ffffffffffffffffffffffffffffffffffffffff1602179055506020820151816001019080519060200190620000d492919062000137565b506040820151816002015560608201518160030160006101000a81548160ff02191690831515021790555060808201518160040190805190602001906200011d92919062000137565b5060a08201518160050155905050505050505050620005a0565b82805462000145906200056a565b90600052602060002090601f016020900481019282620001695760008555620001b5565b82601f106200018457805160ff1916838001178555620001b5565b82800160010185558215620001b5579182015b82811115620001b457825182559160200191906001019062000197565b5b509050620001c49190620001c8565b5090565b5b80821115620001e3576000816000905550600101620001c9565b5090565b6000604051905090565b600080fd5b600080fd5b600073ffffffffffffffffffffffffffffffffffffffff82169050919050565b60006200022882620001fb565b9050919050565b6200023a816200021b565b81146200024657600080fd5b50565b6000815190506200025a816200022f565b92915050565b600080fd5b600080fd5b6000601f19601f8301169050919050565b7f4e487b7100000000000000000000000000000000000000000000000000000000600052604160045260246000fd5b620002b5826200026a565b810181811067ffffffffffffffff82111715620002d757620002d66200027b565b5b80604052505050565b6000620002ec620001e7565b9050620002fa8282620002aa565b919050565b600067ffffffffffffffff8211156200031d576200031c6200027b565b5b62000328826200026a565b9050602081019050919050565b60005b838110156200035557808201518184015260208101905062000338565b8381111562000365576000848401525b50505050565b6000620003826200037c84620002ff565b620002e0565b905082815260208101848484011115620003a157620003a062000265565b5b620003ae84828562000335565b509392505050565b600082601f830112620003ce57620003cd62000260565b5b8151620003e08482602086016200036b565b91505092915050565b6000819050919050565b620003fe81620003e9565b81146200040a57600080fd5b50565b6000815190506200041e81620003f3565b92915050565b60008115159050919050565b6200043b8162000424565b81146200044757600080fd5b50565b6000815190506200045b8162000430565b92915050565b60008060008060008060c08789031215620004815762000480620001f1565b5b60006200049189828a0162000249565b965050602087015167ffffffffffffffff811115620004b557620004b4620001f6565b5b620004c389828a01620003b6565b9550506040620004d689828a016200040d565b9450506060620004e989828a016200044a565b935050608087015167ffffffffffffffff8111156200050d576200050c620001f6565b5b6200051b89828a01620003b6565b92505060a06200052e89828a016200040d565b9150509295509295509295565b7f4e487b7100000000000000000000000000000000000000000000000000000000600052602260045260246000fd5b600060028204905060018216806200058357607f821691505b602082108114156200059a57620005996200053b565b5b50919050565b610c7480620005b06000396000f3fe6080604052600436106100345760003560e01c806313494176146100395780637216e90414610076578063951b6c7a14610092575b600080fd5b34801561004557600080fd5b50610060600480360381019061005b9190610706565b6100c2565b60405161006d9190610799565b60405180910390f35b610090600480360381019061008b91906107e0565b61011b565b005b34801561009e57600080fd5b506100a76103e9565b6040516100b99695949392919061094d565b60405180910390f35b6000816040516020016100d591906109f8565b60405160208183030381529060405280519060200120836040516020016100fc91906109f8565b6040516020818303038152906040528051906020012014905092915050565b34833384600060020154841461013057600080fd5b6101c7836000600401805461014490610a3e565b80601f016020809104026020016040519081016040528092919081815260200182805461017090610a3e565b80156101bd5780601f10610192576101008083540402835291602001916101bd565b820191906000526020600020905b8154815290600101906020018083116101a057829003601f168201915b50505050506100c2565b6101d057600080fd5b6000800160009054906101000a900473ffffffffffffffffffffffffffffffffffffffff1673ffffffffffffffffffffffffffffffffffffffff168273ffffffffffffffffffffffffffffffffffffffff16141561022d57600080fd5b600060030160009054906101000a900460ff161515811515151461025057600080fd5b33600660006101000a81548173ffffffffffffffffffffffffffffffffffffffff021916908373ffffffffffffffffffffffffffffffffffffffff16021790555060006008905060008060030160009054906101000a900460ff166102c75760016002836102be9190610aa9565b149050806102db565b60006002836102d69190610aa9565b149050805b5060008161030b57600660009054906101000a900473ffffffffffffffffffffffffffffffffffffffff16610331565b6000800160009054906101000a900473ffffffffffffffffffffffffffffffffffffffff165b905060008261034057886103cf565b6000600101805461035090610a3e565b80601f016020809104026020016040519081016040528092919081815260200182805461037c90610a3e565b80156103c95780601f1061039e576101008083540402835291602001916103c9565b820191906000526020600020905b8154815290600101906020018083116103ac57829003601f168201915b50505050505b90506103dc828583610550565b5050505050505050505050565b60008060000160009054906101000a900473ffffffffffffffffffffffffffffffffffffffff169080600101805461042090610a3e565b80601f016020809104026020016040519081016040528092919081815260200182805461044c90610a3e565b80156104995780601f1061046e57610100808354040283529160200191610499565b820191906000526020600020905b81548152906001019060200180831161047c57829003601f168201915b5050505050908060020154908060030160009054906101000a900460ff16908060040180546104c790610a3e565b80601f01602080910402602001604051908101604052809291908181526020018280546104f390610a3e565b80156105405780601f1061051557610100808354040283529160200191610540565b820191906000526020600020905b81548152906001019060200180831161052357829003601f168201915b5050505050908060050154905086565b7fdb782e17e9da7dbff502cc30ff50eeb8bbea146e97b76e604169cc12d22a6c5f83478385600060040160405161058b959493929190610bdd565b60405180910390a18273ffffffffffffffffffffffffffffffffffffffff16ff5b6000604051905090565b600080fd5b600080fd5b600080fd5b600080fd5b6000601f19601f8301169050919050565b7f4e487b7100000000000000000000000000000000000000000000000000000000600052604160045260246000fd5b610613826105ca565b810181811067ffffffffffffffff82111715610632576106316105db565b5b80604052505050565b60006106456105ac565b9050610651828261060a565b919050565b600067ffffffffffffffff821115610671576106706105db565b5b61067a826105ca565b9050602081019050919050565b82818337600083830152505050565b60006106a96106a484610656565b61063b565b9050828152602081018484840111156106c5576106c46105c5565b5b6106d0848285610687565b509392505050565b600082601f8301126106ed576106ec6105c0565b5b81356106fd848260208601610696565b91505092915050565b6000806040838503121561071d5761071c6105b6565b5b600083013567ffffffffffffffff81111561073b5761073a6105bb565b5b610747858286016106d8565b925050602083013567ffffffffffffffff811115610768576107676105bb565b5b610774858286016106d8565b9150509250929050565b60008115159050919050565b6107938161077e565b82525050565b60006020820190506107ae600083018461078a565b92915050565b6107bd8161077e565b81146107c857600080fd5b50565b6000813590506107da816107b4565b92915050565b6000806000606084860312156107f9576107f86105b6565b5b600084013567ffffffffffffffff811115610817576108166105bb565b5b610823868287016106d8565b9350506020610834868287016107cb565b925050604084013567ffffffffffffffff811115610855576108546105bb565b5b610861868287016106d8565b9150509250925092565b600073ffffffffffffffffffffffffffffffffffffffff82169050919050565b60006108968261086b565b9050919050565b6108a68161088b565b82525050565b600081519050919050565b600082825260208201905092915050565b60005b838110156108e65780820151818401526020810190506108cb565b838111156108f5576000848401525b50505050565b6000610906826108ac565b61091081856108b7565b93506109208185602086016108c8565b610929816105ca565b840191505092915050565b6000819050919050565b61094781610934565b82525050565b600060c082019050610962600083018961089d565b818103602083015261097481886108fb565b9050610983604083018761093e565b610990606083018661078a565b81810360808301526109a281856108fb565b90506109b160a083018461093e565b979650505050505050565b600081905092915050565b60006109d2826108ac565b6109dc81856109bc565b93506109ec8185602086016108c8565b80840191505092915050565b6000610a0482846109c7565b915081905092915050565b7f4e487b7100000000000000000000000000000000000000000000000000000000600052602260045260246000fd5b60006002820490506001821680610a5657607f821691505b60208210811415610a6a57610a69610a0f565b5b50919050565b6000819050919050565b7f4e487b7100000000000000000000000000000000000000000000000000000000600052601260045260246000fd5b6000610ab482610a70565b9150610abf83610a70565b925082610acf57610ace610a7a565b5b828207905092915050565b6000819050919050565b6000610aff610afa610af58461086b565b610ada565b61086b565b9050919050565b6000610b1182610ae4565b9050919050565b6000610b2382610b06565b9050919050565b610b3381610b18565b82525050565b610b4281610a70565b82525050565b60008190508160005260206000209050919050565b60008154610b6a81610a3e565b610b7481866108b7565b94506001821660008114610b8f5760018114610ba157610bd4565b60ff1983168652602086019350610bd4565b610baa85610b48565b60005b83811015610bcc57815481890152600182019150602081019050610bad565b808801955050505b50505092915050565b600060a082019050610bf26000830188610b2a565b610bff602083018761093e565b8181036040830152610c1181866108fb565b9050610c206060830185610b39565b8181036080830152610c328184610b5d565b9050969550505050505056fea26469706673582212207a4b0913be77a5847c393e7d6e173a94b56fe5d68a47317e82e2a489857b404c64736f6c634300080c0033",
  "immutableReferences": {},
  "source": "// SPDX-License-Identifier: MIT\npragma solidity >=0.4.22 <0.9.0;\n\n// TODO don't use ETH retard gas\n// Solang Solidity Compiler allows you to deploy .sol smart contracts to Solana blockchain\n\n// TODO You're currently using a normal factory pattern. This is improved gas costs, but it still falls way short\n// You should instead be using a cloning pattern. This creates one single bet contract that has all the functions, and then\n// all additional 'clones' only require their unique properties, which would get input as variables to the OG implementation\n\ncontract Bet {\n\n    event Withdraw(address winner, uint256 amount, string winnerDisplayName, int txLastDigit, string token);\n\n    struct BetData{\n        address payable creator;\n        string displayName;\n        uint256 wager;\n        bool isEven;\n        string token;\n        uint256 betId;\n    }\n\n    BetData public betData;\n    address payable matcher;\n\n    constructor(address _creator, string memory _displayName, uint256 _wager, bool _isEven, string memory _token, uint256 _betId) payable {\n        betData = BetData(\n            payable(_creator),\n            _displayName,\n            _wager,\n            _isEven,\n            _token,\n            _betId\n        );\n    }\n\n    function withdrawToWinner(address payable winner, int txLastDigit, string memory winnerDisplayName) internal{\n        emit Withdraw(winner, address(this).balance, winnerDisplayName, txLastDigit, betData.token);\n        selfdestruct(winner);\n    }\n\n    function matchBet(string memory matchToken, bool matchIsEven, string memory matchDisplayName) \n    public payable isValidBetMatch(msg.value, matchToken, msg.sender, matchIsEven){\n        matcher = payable(msg.sender);\n        int txLastDigit = 8; // TODO get from tx and ensure its being analyzed in hex\n        bool didCreatorWin;\n        betData.isEven ?\n            didCreatorWin = txLastDigit % 2 == 0\n            :\n            didCreatorWin = txLastDigit % 2 == 1;\n        address payable winner = didCreatorWin ? betData.creator : matcher;\n        string memory winnerDisplayName = didCreatorWin ? betData.displayName : matchDisplayName;\n        withdrawToWinner(winner, txLastDigit, winnerDisplayName);\n    }\n\n    // Pure\n    function compareStringsByBytes(string memory s1, string memory s2) public pure returns(bool){\n        return keccak256(abi.encodePacked(s1)) == keccak256(abi.encodePacked(s2));\n    }\n    \n    // Modifiers\n    modifier mustBeCreator {\n        require(msg.sender == betData.creator);\n        _;\n    }\n\n    modifier isValidBetMatch(uint256 matchWager, string memory matchToken, address _matcher, bool matchIsEven) {\n        require(matchWager == betData.wager);\n        require(compareStringsByBytes(matchToken, betData.token));\n        require(_matcher != betData.creator);\n        require(!matchIsEven == betData.isEven);\n        _;\n    }\n}\n\ncontract BetFactory{\n\n    mapping(address => Bet[]) public allBets;\n    mapping(address => bool) public allAddresses;\n    uint256 public betCounter = 1;\n\n    event CreatedBet(address creator, string displayName, uint256 wager, bool isEven, string token, uint256 betId);\n\n    function createBet(uint256 _wager, bool _isEven, string memory _token, string memory _displayName) external payable returns(Bet){ \n        // msg.value\n        betCounter += 1;\n        Bet bet = new Bet(msg.sender, _displayName, _wager, _isEven, _token, betCounter);\n        emit CreatedBet(msg.sender, _displayName, _wager, _isEven, _token, betCounter);\n        allBets[msg.sender].push(bet);\n        allAddresses[msg.sender] = true;\n        return bet;\n    }\n\n    // This doesn't work atm\n    // function removeBet(uint256 _betId) public hasOpenBets{\n    //     for (uint j = 0; j <= allBets[msg.sender].length; j ++) {  \n    //         if(_betId == allBets[msg.sender][j].betId()){\n    //             delete allBets[msg.sender][j];\n    //             if(allBets[msg.sender].length == 0){\n    //                 allAddresses[msg.sender] = false;\n    //             }\n    //         }\n    //     }\n    // } \n\n    function getSelfBets() public view returns (Bet[] memory){ \n        return allBets[msg.sender];\n    }\n\n    function getSelfBetsLength() public view returns (uint256){\n        return allBets[msg.sender].length;\n    }\n\n    function getHasOpenBets() public view returns(bool){\n        return allAddresses[msg.sender];\n    }\n\n    function readBets(string memory _tokenFilter, string memory _betFilter, string memory _displayNameFilter, uint256 pageNum) public view{\n        // TODO in some way that's not mega expensive\n    }\n\n    //Modifiers\n    modifier hasOpenBets(){\n        // BROKEN ?\n        require(allAddresses[msg.sender] == true);\n        _;\n    }\n\n}\n\nabstract contract Mortal is Bet {\n\n    function kill() public mustBeCreator { \n        selfdestruct(payable(msg.sender));\n    }\n}",
  "sourcePath": "/Users/mdunkgreen/Documents/DuelArena/duel_arena/contracts/BetFactory.sol",
  "compiler": {
    "name": "solc",
    "version": "0.8.12+commit.f00d7308.Emscripten.clang"
  },
  "schemaVersion": "3.4.1",
  "updatedAt": "2022-02-26T19:01:04.685Z",
  "devdoc": {
    "kind": "dev",
    "methods": {},
    "version": 1
  },
  "userdoc": {
    "kind": "user",
    "methods": {},
    "version": 1
  }
}