{
  "contractName": "BetFactory",
  "abi": [
    {
      "anonymous": false,
      "inputs": [
        {
          "indexed": false,
          "internalType": "address",
          "name": "creator",
          "type": "address"
        },
        {
          "indexed": false,
          "internalType": "string",
          "name": "displayName",
          "type": "string"
        },
        {
          "indexed": false,
          "internalType": "uint256",
          "name": "wager",
          "type": "uint256"
        },
        {
          "indexed": false,
          "internalType": "bool",
          "name": "isEven",
          "type": "bool"
        },
        {
          "indexed": false,
          "internalType": "string",
          "name": "token",
          "type": "string"
        },
        {
          "indexed": false,
          "internalType": "uint256",
          "name": "betId",
          "type": "uint256"
        }
      ],
      "name": "CreatedBet",
      "type": "event"
    },
    {
      "inputs": [
        {
          "internalType": "address",
          "name": "",
          "type": "address"
        }
      ],
      "name": "allAddresses",
      "outputs": [
        {
          "internalType": "bool",
          "name": "",
          "type": "bool"
        }
      ],
      "stateMutability": "view",
      "type": "function",
      "constant": true
    },
    {
      "inputs": [
        {
          "internalType": "address",
          "name": "",
          "type": "address"
        },
        {
          "internalType": "uint256",
          "name": "",
          "type": "uint256"
        }
      ],
      "name": "allBets",
      "outputs": [
        {
          "internalType": "contract Bet",
          "name": "",
          "type": "address"
        }
      ],
      "stateMutability": "view",
      "type": "function",
      "constant": true
    },
    {
      "inputs": [],
      "name": "betCounter",
      "outputs": [
        {
          "internalType": "uint256",
          "name": "",
          "type": "uint256"
        }
      ],
      "stateMutability": "view",
      "type": "function",
      "constant": true
    },
    {
      "inputs": [
        {
          "internalType": "uint256",
          "name": "_wager",
          "type": "uint256"
        },
        {
          "internalType": "bool",
          "name": "_isEven",
          "type": "bool"
        },
        {
          "internalType": "string",
          "name": "_token",
          "type": "string"
        },
        {
          "internalType": "string",
          "name": "_displayName",
          "type": "string"
        }
      ],
      "name": "createBet",
      "outputs": [
        {
          "internalType": "contract Bet",
          "name": "",
          "type": "address"
        }
      ],
      "stateMutability": "payable",
      "type": "function",
      "payable": true
    },
    {
      "inputs": [],
      "name": "getSelfBets",
      "outputs": [
        {
          "internalType": "contract Bet[]",
          "name": "",
          "type": "address[]"
        }
      ],
      "stateMutability": "view",
      "type": "function",
      "constant": true
    },
    {
      "inputs": [],
      "name": "getSelfBetsLength",
      "outputs": [
        {
          "internalType": "uint256",
          "name": "",
          "type": "uint256"
        }
      ],
      "stateMutability": "view",
      "type": "function",
      "constant": true
    },
    {
      "inputs": [],
      "name": "getHasOpenBets",
      "outputs": [
        {
          "internalType": "bool",
          "name": "",
          "type": "bool"
        }
      ],
      "stateMutability": "view",
      "type": "function",
      "constant": true
    },
    {
      "inputs": [
        {
          "internalType": "string",
          "name": "_tokenFilter",
          "type": "string"
        },
        {
          "internalType": "string",
          "name": "_betFilter",
          "type": "string"
        },
        {
          "internalType": "string",
          "name": "_displayNameFilter",
          "type": "string"
        },
        {
          "internalType": "uint256",
          "name": "pageNum",
          "type": "uint256"
        }
      ],
      "name": "readBets",
      "outputs": [],
      "stateMutability": "view",
      "type": "function",
      "constant": true
    }
  ],
  "bytecode": "0x6080604052600160025534801561001557600080fd5b50611ffa806100256000396000f3fe608060405260043610620000865760003560e01c8063a416f5ab1162000055578063a416f5ab1462000151578063af5996aa1462000181578063d17f538f14620001c5578063f7f6267d14620002095762000086565b80630b5c4cfd146200008b5780631a32d16314620000bb5780636f597a2914620000eb578063940182461462000121575b600080fd5b3480156200009857600080fd5b50620000a362000237565b604051620000b291906200071f565b60405180910390f35b348015620000c857600080fd5b50620000d362000303565b604051620000e291906200075e565b60405180910390f35b6200010960048036038101906200010391906200095f565b6200034c565b60405162000118919062000a20565b60405180910390f35b3480156200012e57600080fd5b5062000139620004fa565b60405162000148919062000a4e565b60405180910390f35b3480156200015e57600080fd5b50620001696200054e565b6040516200017891906200075e565b60405180910390f35b3480156200018e57600080fd5b50620001ad6004803603810190620001a7919062000ab0565b62000554565b604051620001bc919062000a4e565b60405180910390f35b348015620001d257600080fd5b50620001f16004803603810190620001eb919062000ae2565b62000574565b60405162000200919062000a20565b60405180910390f35b3480156200021657600080fd5b506200023560048036038101906200022f919062000b29565b620005c3565b005b60606000803373ffffffffffffffffffffffffffffffffffffffff1673ffffffffffffffffffffffffffffffffffffffff168152602001908152602001600020805480602002602001604051908101604052809291908181526020018280548015620002f957602002820191906000526020600020905b8160009054906101000a900473ffffffffffffffffffffffffffffffffffffffff1673ffffffffffffffffffffffffffffffffffffffff1681526020019060010190808311620002ae575b5050505050905090565b60008060003373ffffffffffffffffffffffffffffffffffffffff1673ffffffffffffffffffffffffffffffffffffffff16815260200190815260200160002080549050905090565b600060016002600082825462000363919062000c27565b92505081905550600033838787876002546040516200038290620005c9565b620003939695949392919062000d28565b604051809103906000f080158015620003b0573d6000803e3d6000fd5b5090507f555fddc7f9580630ab31b006d56cca81395920f66ddf99561a269b6dfda4032d3384888888600254604051620003f09695949392919062000d28565b60405180910390a16000803373ffffffffffffffffffffffffffffffffffffffff1673ffffffffffffffffffffffffffffffffffffffff168152602001908152602001600020819080600181540180825580915050600190039060005260206000200160009091909190916101000a81548173ffffffffffffffffffffffffffffffffffffffff021916908373ffffffffffffffffffffffffffffffffffffffff16021790555060018060003373ffffffffffffffffffffffffffffffffffffffff1673ffffffffffffffffffffffffffffffffffffffff16815260200190815260200160002060006101000a81548160ff02191690831515021790555080915050949350505050565b6000600160003373ffffffffffffffffffffffffffffffffffffffff1673ffffffffffffffffffffffffffffffffffffffff16815260200190815260200160002060009054906101000a900460ff16905090565b60025481565b60016020528060005260406000206000915054906101000a900460ff1681565b600060205281600052604060002081815481106200059157600080fd5b906000526020600020016000915091509054906101000a900473ffffffffffffffffffffffffffffffffffffffff1681565b50505050565b6112218062000da483390190565b600081519050919050565b600082825260208201905092915050565b6000819050602082019050919050565b600073ffffffffffffffffffffffffffffffffffffffff82169050919050565b6000819050919050565b60006200064e62000648620006428462000603565b62000623565b62000603565b9050919050565b600062000662826200062d565b9050919050565b6000620006768262000655565b9050919050565b620006888162000669565b82525050565b60006200069c83836200067d565b60208301905092915050565b6000602082019050919050565b6000620006c282620005d7565b620006ce8185620005e2565b9350620006db83620005f3565b8060005b8381101562000712578151620006f688826200068e565b97506200070383620006a8565b925050600181019050620006df565b5085935050505092915050565b600060208201905081810360008301526200073b8184620006b5565b905092915050565b6000819050919050565b620007588162000743565b82525050565b60006020820190506200077560008301846200074d565b92915050565b6000604051905090565b600080fd5b600080fd5b6200079a8162000743565b8114620007a657600080fd5b50565b600081359050620007ba816200078f565b92915050565b60008115159050919050565b620007d781620007c0565b8114620007e357600080fd5b50565b600081359050620007f781620007cc565b92915050565b600080fd5b600080fd5b6000601f19601f8301169050919050565b7f4e487b7100000000000000000000000000000000000000000000000000000000600052604160045260246000fd5b620008528262000807565b810181811067ffffffffffffffff8211171562000874576200087362000818565b5b80604052505050565b6000620008896200077b565b905062000897828262000847565b919050565b600067ffffffffffffffff821115620008ba57620008b962000818565b5b620008c58262000807565b9050602081019050919050565b82818337600083830152505050565b6000620008f8620008f2846200089c565b6200087d565b90508281526020810184848401111562000917576200091662000802565b5b62000924848285620008d2565b509392505050565b600082601f830112620009445762000943620007fd565b5b813562000956848260208601620008e1565b91505092915050565b600080600080608085870312156200097c576200097b62000785565b5b60006200098c87828801620007a9565b94505060206200099f87828801620007e6565b935050604085013567ffffffffffffffff811115620009c357620009c26200078a565b5b620009d1878288016200092c565b925050606085013567ffffffffffffffff811115620009f557620009f46200078a565b5b62000a03878288016200092c565b91505092959194509250565b62000a1a8162000669565b82525050565b600060208201905062000a37600083018462000a0f565b92915050565b62000a4881620007c0565b82525050565b600060208201905062000a65600083018462000a3d565b92915050565b600062000a788262000603565b9050919050565b62000a8a8162000a6b565b811462000a9657600080fd5b50565b60008135905062000aaa8162000a7f565b92915050565b60006020828403121562000ac95762000ac862000785565b5b600062000ad98482850162000a99565b91505092915050565b6000806040838503121562000afc5762000afb62000785565b5b600062000b0c8582860162000a99565b925050602062000b1f85828601620007a9565b9150509250929050565b6000806000806080858703121562000b465762000b4562000785565b5b600085013567ffffffffffffffff81111562000b675762000b666200078a565b5b62000b75878288016200092c565b945050602085013567ffffffffffffffff81111562000b995762000b986200078a565b5b62000ba7878288016200092c565b935050604085013567ffffffffffffffff81111562000bcb5762000bca6200078a565b5b62000bd9878288016200092c565b925050606062000bec87828801620007a9565b91505092959194509250565b7f4e487b7100000000000000000000000000000000000000000000000000000000600052601160045260246000fd5b600062000c348262000743565b915062000c418362000743565b9250827fffffffffffffffffffffffffffffffffffffffffffffffffffffffffffffffff0382111562000c795762000c7862000bf8565b5b828201905092915050565b62000c8f8162000a6b565b82525050565b600081519050919050565b600082825260208201905092915050565b60005b8381101562000cd157808201518184015260208101905062000cb4565b8381111562000ce1576000848401525b50505050565b600062000cf48262000c95565b62000d00818562000ca0565b935062000d1281856020860162000cb1565b62000d1d8162000807565b840191505092915050565b600060c08201905062000d3f600083018962000c84565b818103602083015262000d53818862000ce7565b905062000d6460408301876200074d565b62000d73606083018662000a3d565b818103608083015262000d87818562000ce7565b905062000d9860a08301846200074d565b97965050505050505056fe60806040526040516200122138038062001221833981810160405281019062000029919062000461565b6040518060c001604052808773ffffffffffffffffffffffffffffffffffffffff1681526020018681526020018581526020018415158152602001838152602001828152506000808201518160000160006101000a81548173ffffffffffffffffffffffffffffffffffffffff021916908373ffffffffffffffffffffffffffffffffffffffff1602179055506020820151816001019080519060200190620000d492919062000137565b506040820151816002015560608201518160030160006101000a81548160ff02191690831515021790555060808201518160040190805190602001906200011d92919062000137565b5060a082015181600501559050505050505050506200059f565b82805462000145906200056a565b90600052602060002090601f016020900481019282620001695760008555620001b5565b82601f106200018457805160ff1916838001178555620001b5565b82800160010185558215620001b5579182015b82811115620001b457825182559160200191906001019062000197565b5b509050620001c49190620001c8565b5090565b5b80821115620001e3576000816000905550600101620001c9565b5090565b6000604051905090565b600080fd5b600080fd5b600073ffffffffffffffffffffffffffffffffffffffff82169050919050565b60006200022882620001fb565b9050919050565b6200023a816200021b565b81146200024657600080fd5b50565b6000815190506200025a816200022f565b92915050565b600080fd5b600080fd5b6000601f19601f8301169050919050565b7f4e487b7100000000000000000000000000000000000000000000000000000000600052604160045260246000fd5b620002b5826200026a565b810181811067ffffffffffffffff82111715620002d757620002d66200027b565b5b80604052505050565b6000620002ec620001e7565b9050620002fa8282620002aa565b919050565b600067ffffffffffffffff8211156200031d576200031c6200027b565b5b62000328826200026a565b9050602081019050919050565b60005b838110156200035557808201518184015260208101905062000338565b8381111562000365576000848401525b50505050565b6000620003826200037c84620002ff565b620002e0565b905082815260208101848484011115620003a157620003a062000265565b5b620003ae84828562000335565b509392505050565b600082601f830112620003ce57620003cd62000260565b5b8151620003e08482602086016200036b565b91505092915050565b6000819050919050565b620003fe81620003e9565b81146200040a57600080fd5b50565b6000815190506200041e81620003f3565b92915050565b60008115159050919050565b6200043b8162000424565b81146200044757600080fd5b50565b6000815190506200045b8162000430565b92915050565b60008060008060008060c08789031215620004815762000480620001f1565b5b60006200049189828a0162000249565b965050602087015167ffffffffffffffff811115620004b557620004b4620001f6565b5b620004c389828a01620003b6565b9550506040620004d689828a016200040d565b9450506060620004e989828a016200044a565b935050608087015167ffffffffffffffff8111156200050d576200050c620001f6565b5b6200051b89828a01620003b6565b92505060a06200052e89828a016200040d565b9150509295509295509295565b7f4e487b7100000000000000000000000000000000000000000000000000000000600052602260045260246000fd5b600060028204905060018216806200058357607f821691505b6020821081036200059957620005986200053b565b5b50919050565b610c7280620005af6000396000f3fe6080604052600436106100345760003560e01c806313494176146100395780637216e90414610076578063951b6c7a14610092575b600080fd5b34801561004557600080fd5b50610060600480360381019061005b9190610705565b6100c2565b60405161006d9190610798565b60405180910390f35b610090600480360381019061008b91906107df565b61011b565b005b34801561009e57600080fd5b506100a76103e8565b6040516100b99695949392919061094c565b60405180910390f35b6000816040516020016100d591906109f7565b60405160208183030381529060405280519060200120836040516020016100fc91906109f7565b6040516020818303038152906040528051906020012014905092915050565b34833384600060020154841461013057600080fd5b6101c7836000600401805461014490610a3d565b80601f016020809104026020016040519081016040528092919081815260200182805461017090610a3d565b80156101bd5780601f10610192576101008083540402835291602001916101bd565b820191906000526020600020905b8154815290600101906020018083116101a057829003601f168201915b50505050506100c2565b6101d057600080fd5b6000800160009054906101000a900473ffffffffffffffffffffffffffffffffffffffff1673ffffffffffffffffffffffffffffffffffffffff168273ffffffffffffffffffffffffffffffffffffffff160361022c57600080fd5b600060030160009054906101000a900460ff161515811515151461024f57600080fd5b33600660006101000a81548173ffffffffffffffffffffffffffffffffffffffff021916908373ffffffffffffffffffffffffffffffffffffffff16021790555060006008905060008060030160009054906101000a900460ff166102c65760016002836102bd9190610aa7565b149050806102da565b60006002836102d59190610aa7565b149050805b5060008161030a57600660009054906101000a900473ffffffffffffffffffffffffffffffffffffffff16610330565b6000800160009054906101000a900473ffffffffffffffffffffffffffffffffffffffff165b905060008261033f57886103ce565b6000600101805461034f90610a3d565b80601f016020809104026020016040519081016040528092919081815260200182805461037b90610a3d565b80156103c85780601f1061039d576101008083540402835291602001916103c8565b820191906000526020600020905b8154815290600101906020018083116103ab57829003601f168201915b50505050505b90506103db82858361054f565b5050505050505050505050565b60008060000160009054906101000a900473ffffffffffffffffffffffffffffffffffffffff169080600101805461041f90610a3d565b80601f016020809104026020016040519081016040528092919081815260200182805461044b90610a3d565b80156104985780601f1061046d57610100808354040283529160200191610498565b820191906000526020600020905b81548152906001019060200180831161047b57829003601f168201915b5050505050908060020154908060030160009054906101000a900460ff16908060040180546104c690610a3d565b80601f01602080910402602001604051908101604052809291908181526020018280546104f290610a3d565b801561053f5780601f106105145761010080835404028352916020019161053f565b820191906000526020600020905b81548152906001019060200180831161052257829003601f168201915b5050505050908060050154905086565b7fdb782e17e9da7dbff502cc30ff50eeb8bbea146e97b76e604169cc12d22a6c5f83478385600060040160405161058a959493929190610bdb565b60405180910390a18273ffffffffffffffffffffffffffffffffffffffff16ff5b6000604051905090565b600080fd5b600080fd5b600080fd5b600080fd5b6000601f19601f8301169050919050565b7f4e487b7100000000000000000000000000000000000000000000000000000000600052604160045260246000fd5b610612826105c9565b810181811067ffffffffffffffff82111715610631576106306105da565b5b80604052505050565b60006106446105ab565b90506106508282610609565b919050565b600067ffffffffffffffff8211156106705761066f6105da565b5b610679826105c9565b9050602081019050919050565b82818337600083830152505050565b60006106a86106a384610655565b61063a565b9050828152602081018484840111156106c4576106c36105c4565b5b6106cf848285610686565b509392505050565b600082601f8301126106ec576106eb6105bf565b5b81356106fc848260208601610695565b91505092915050565b6000806040838503121561071c5761071b6105b5565b5b600083013567ffffffffffffffff81111561073a576107396105ba565b5b610746858286016106d7565b925050602083013567ffffffffffffffff811115610767576107666105ba565b5b610773858286016106d7565b9150509250929050565b60008115159050919050565b6107928161077d565b82525050565b60006020820190506107ad6000830184610789565b92915050565b6107bc8161077d565b81146107c757600080fd5b50565b6000813590506107d9816107b3565b92915050565b6000806000606084860312156107f8576107f76105b5565b5b600084013567ffffffffffffffff811115610816576108156105ba565b5b610822868287016106d7565b9350506020610833868287016107ca565b925050604084013567ffffffffffffffff811115610854576108536105ba565b5b610860868287016106d7565b9150509250925092565b600073ffffffffffffffffffffffffffffffffffffffff82169050919050565b60006108958261086a565b9050919050565b6108a58161088a565b82525050565b600081519050919050565b600082825260208201905092915050565b60005b838110156108e55780820151818401526020810190506108ca565b838111156108f4576000848401525b50505050565b6000610905826108ab565b61090f81856108b6565b935061091f8185602086016108c7565b610928816105c9565b840191505092915050565b6000819050919050565b61094681610933565b82525050565b600060c082019050610961600083018961089c565b818103602083015261097381886108fa565b9050610982604083018761093d565b61098f6060830186610789565b81810360808301526109a181856108fa565b90506109b060a083018461093d565b979650505050505050565b600081905092915050565b60006109d1826108ab565b6109db81856109bb565b93506109eb8185602086016108c7565b80840191505092915050565b6000610a0382846109c6565b915081905092915050565b7f4e487b7100000000000000000000000000000000000000000000000000000000600052602260045260246000fd5b60006002820490506001821680610a5557607f821691505b602082108103610a6857610a67610a0e565b5b50919050565b6000819050919050565b7f4e487b7100000000000000000000000000000000000000000000000000000000600052601260045260246000fd5b6000610ab282610a6e565b9150610abd83610a6e565b925082610acd57610acc610a78565b5b828207905092915050565b6000819050919050565b6000610afd610af8610af38461086a565b610ad8565b61086a565b9050919050565b6000610b0f82610ae2565b9050919050565b6000610b2182610b04565b9050919050565b610b3181610b16565b82525050565b610b4081610a6e565b82525050565b60008190508160005260206000209050919050565b60008154610b6881610a3d565b610b7281866108b6565b94506001821660008114610b8d5760018114610b9f57610bd2565b60ff1983168652602086019350610bd2565b610ba885610b46565b60005b83811015610bca57815481890152600182019150602081019050610bab565b808801955050505b50505092915050565b600060a082019050610bf06000830188610b28565b610bfd602083018761093d565b8181036040830152610c0f81866108fa565b9050610c1e6060830185610b37565b8181036080830152610c308184610b5b565b9050969550505050505056fea2646970667358221220ab4998efa79c9fdac7e3db847c886ee76780708f79befa3e8bb7357753dd383064736f6c634300080d0033a2646970667358221220e5e9c0ae6aceaa021b5fc6e8889d0eabd9e845dadbf1acba625e56e444202e0d64736f6c634300080d0033",
  "immutableReferences": {},
  "source": "// SPDX-License-Identifier: MIT\r\npragma solidity >=0.4.22 <0.9.0;\r\n\r\n\r\ncontract Bet {\r\n\r\n    event Withdraw(address winner, uint256 amount, string winnerDisplayName, int txLastDigit, string token);\r\n\r\n    struct BetData{\r\n        address payable creator;\r\n        string displayName;\r\n        uint256 wager;\r\n        bool isEven;\r\n        string token;\r\n        uint256 betId;\r\n    }\r\n\r\n    BetData public betData;\r\n    address payable matcher;\r\n\r\n    constructor(address _creator, string memory _displayName, uint256 _wager, bool _isEven, string memory _token, uint256 _betId) payable {\r\n        betData = BetData(\r\n            payable(_creator),\r\n            _displayName,\r\n            _wager,\r\n            _isEven,\r\n            _token,\r\n            _betId\r\n        );\r\n    }\r\n\r\n    function withdrawToWinner(address payable winner, int txLastDigit, string memory winnerDisplayName) internal{\r\n        emit Withdraw(winner, address(this).balance, winnerDisplayName, txLastDigit, betData.token);\r\n        selfdestruct(winner);\r\n    }\r\n\r\n    function matchBet(string memory matchToken, bool matchIsEven, string memory matchDisplayName) \r\n    public payable isValidBetMatch(msg.value, matchToken, msg.sender, matchIsEven){\r\n        matcher = payable(msg.sender);\r\n        int txLastDigit = 8; // TODO get from tx and ensure its being analyzed in hex\r\n        bool didCreatorWin;\r\n        betData.isEven ?\r\n            didCreatorWin = txLastDigit % 2 == 0\r\n            :\r\n            didCreatorWin = txLastDigit % 2 == 1;\r\n        address payable winner = didCreatorWin ? betData.creator : matcher;\r\n        string memory winnerDisplayName = didCreatorWin ? betData.displayName : matchDisplayName;\r\n        withdrawToWinner(winner, txLastDigit, winnerDisplayName);\r\n    }\r\n\r\n    // Pure\r\n    function compareStringsByBytes(string memory s1, string memory s2) public pure returns(bool){\r\n        return keccak256(abi.encodePacked(s1)) == keccak256(abi.encodePacked(s2));\r\n    }\r\n    \r\n    // Modifiers\r\n    modifier mustBeCreator {\r\n        require(msg.sender == betData.creator);\r\n        _;\r\n    }\r\n\r\n    modifier isValidBetMatch(uint256 matchWager, string memory matchToken, address _matcher, bool matchIsEven) {\r\n        require(matchWager == betData.wager);\r\n        require(compareStringsByBytes(matchToken, betData.token));\r\n        require(_matcher != betData.creator);\r\n        require(!matchIsEven == betData.isEven);\r\n        _;\r\n    }\r\n}\r\n\r\ncontract BetFactory{\r\n\r\n    mapping(address => Bet[]) public allBets;\r\n    mapping(address => bool) public allAddresses;\r\n    uint256 public betCounter = 1;\r\n\r\n    event CreatedBet(address creator, string displayName, uint256 wager, bool isEven, string token, uint256 betId);\r\n\r\n    function createBet(uint256 _wager, bool _isEven, string memory _token, string memory _displayName) external payable returns(Bet){ \r\n        // msg.value\r\n        betCounter += 1;\r\n        Bet bet = new Bet(msg.sender, _displayName, _wager, _isEven, _token, betCounter);\r\n        emit CreatedBet(msg.sender, _displayName, _wager, _isEven, _token, betCounter);\r\n        allBets[msg.sender].push(bet);\r\n        allAddresses[msg.sender] = true;\r\n        return bet;\r\n    }\r\n\r\n    // This doesn't work atm\r\n    // function removeBet(uint256 _betId) public hasOpenBets{\r\n    //     for (uint j = 0; j <= allBets[msg.sender].length; j ++) {  \r\n    //         if(_betId == allBets[msg.sender][j].betId()){\r\n    //             delete allBets[msg.sender][j];\r\n    //             if(allBets[msg.sender].length == 0){\r\n    //                 allAddresses[msg.sender] = false;\r\n    //             }\r\n    //         }\r\n    //     }\r\n    // } \r\n\r\n    function getSelfBets() public view returns (Bet[] memory){ \r\n        return allBets[msg.sender];\r\n    }\r\n\r\n    function getSelfBetsLength() public view returns (uint256){\r\n        return allBets[msg.sender].length;\r\n    }\r\n\r\n    function getHasOpenBets() public view returns(bool){\r\n        return allAddresses[msg.sender];\r\n    }\r\n\r\n    function readBets(string memory _tokenFilter, string memory _betFilter, string memory _displayNameFilter, uint256 pageNum) public view{\r\n        // TODO in some way that's not mega expensive\r\n    }\r\n\r\n    //Modifiers\r\n    modifier hasOpenBets(){\r\n        // BROKEN ?\r\n        require(allAddresses[msg.sender] == true);\r\n        _;\r\n    }\r\n\r\n}\r\n\r\nabstract contract Mortal is Bet {\r\n\r\n    function kill() public mustBeCreator { \r\n        selfdestruct(payable(msg.sender));\r\n    }\r\n}",
  "sourcePath": "C:\\Users\\Maxwell\\Documents\\DuelArena\\DuelArena\\contracts\\BetFactory.sol",
  "compiler": {
    "name": "solc",
    "version": "0.8.13+commit.abaa5c0e.Emscripten.clang"
  },
  "schemaVersion": "3.4.3",
  "updatedAt": "2022-04-17T20:43:40.159Z",
  "networkType": "ethereum",
  "devdoc": {
    "kind": "dev",
    "methods": {},
    "version": 1
  },
  "userdoc": {
    "kind": "user",
    "methods": {},
    "version": 1
  }
}