{
  "contractName": "BetFactory",
  "abi": [
    {
      "inputs": [
        {
          "internalType": "address",
          "name": "",
          "type": "address"
        }
      ],
      "name": "allAddresses",
      "outputs": [
        {
          "internalType": "bool",
          "name": "",
          "type": "bool"
        }
      ],
      "stateMutability": "view",
      "type": "function",
      "constant": true
    },
    {
      "inputs": [
        {
          "internalType": "address",
          "name": "",
          "type": "address"
        },
        {
          "internalType": "uint256",
          "name": "",
          "type": "uint256"
        }
      ],
      "name": "allBets",
      "outputs": [
        {
          "internalType": "contract Bet",
          "name": "",
          "type": "address"
        }
      ],
      "stateMutability": "view",
      "type": "function",
      "constant": true
    },
    {
      "inputs": [],
      "name": "betCounter",
      "outputs": [
        {
          "internalType": "uint256",
          "name": "",
          "type": "uint256"
        }
      ],
      "stateMutability": "view",
      "type": "function",
      "constant": true
    },
    {
      "inputs": [
        {
          "internalType": "uint256",
          "name": "_wager",
          "type": "uint256"
        },
        {
          "internalType": "string",
          "name": "_token",
          "type": "string"
        },
        {
          "internalType": "string",
          "name": "_displayName",
          "type": "string"
        }
      ],
      "name": "createBet",
      "outputs": [],
      "stateMutability": "nonpayable",
      "type": "function"
    },
    {
      "inputs": [
        {
          "internalType": "uint256",
          "name": "_betId",
          "type": "uint256"
        }
      ],
      "name": "removeBet",
      "outputs": [],
      "stateMutability": "nonpayable",
      "type": "function"
    },
    {
      "inputs": [],
      "name": "readSelfBets",
      "outputs": [
        {
          "internalType": "contract Bet[]",
          "name": "",
          "type": "address[]"
        }
      ],
      "stateMutability": "view",
      "type": "function",
      "constant": true
    },
    {
      "inputs": [
        {
          "internalType": "string",
          "name": "_tokenFilter",
          "type": "string"
        },
        {
          "internalType": "string",
          "name": "_betFilter",
          "type": "string"
        },
        {
          "internalType": "string",
          "name": "_displayNameFilter",
          "type": "string"
        },
        {
          "internalType": "uint256",
          "name": "pageNum",
          "type": "uint256"
        }
      ],
      "name": "readBets",
      "outputs": [],
      "stateMutability": "view",
      "type": "function",
      "constant": true
    }
  ],
  "bytecode": "0x6080604052600060025534801561001557600080fd5b506113fb806100256000396000f3fe608060405234801561001057600080fd5b506004361061007d5760003560e01c8063a416f5ab1161005b578063a416f5ab146100d8578063af5996aa146100f6578063d17f538f14610126578063f7f6267d146101565761007d565b8063292e9556146100825780635c2029a91461009e5780637ac7ac73146100ba575b600080fd5b61009c60048036038101906100979190610770565b610172565b005b6100b860048036038101906100b391906107fb565b6101bf565b005b6100c261048f565b6040516100cf9190610956565b60405180910390f35b6100e0610559565b6040516100ed9190610987565b60405180910390f35b610110600480360381019061010b91906109e0565b61055f565b60405161011d9190610a28565b60405180910390f35b610140600480360381019061013b9190610a43565b61057f565b60405161014d9190610a92565b60405180910390f35b610170600480360381019061016b9190610aad565b6105cd565b005b6001600260008282546101859190610b97565b92505081905550600060405161019a906105d3565b604051809103906000f0801580156101b6573d6000803e3d6000fd5b50905050505050565b60011515600160003373ffffffffffffffffffffffffffffffffffffffff1673ffffffffffffffffffffffffffffffffffffffff16815260200190815260200160002060009054906101000a900460ff1615151461021c57600080fd5b60005b6000803373ffffffffffffffffffffffffffffffffffffffff1673ffffffffffffffffffffffffffffffffffffffff16815260200190815260200160002080549050811161048b576000803373ffffffffffffffffffffffffffffffffffffffff1673ffffffffffffffffffffffffffffffffffffffff16815260200190815260200160002081815481106102b7576102b6610bed565b5b9060005260206000200160009054906101000a900473ffffffffffffffffffffffffffffffffffffffff1673ffffffffffffffffffffffffffffffffffffffff166327bce91b6040518163ffffffff1660e01b8152600401602060405180830381865afa15801561032c573d6000803e3d6000fd5b505050506040513d601f19601f820116820180604052508101906103509190610c31565b821415610478576000803373ffffffffffffffffffffffffffffffffffffffff1673ffffffffffffffffffffffffffffffffffffffff16815260200190815260200160002081815481106103a7576103a6610bed565b5b9060005260206000200160006101000a81549073ffffffffffffffffffffffffffffffffffffffff021916905560008060003373ffffffffffffffffffffffffffffffffffffffff1673ffffffffffffffffffffffffffffffffffffffff168152602001908152602001600020805490501415610477576000600160003373ffffffffffffffffffffffffffffffffffffffff1673ffffffffffffffffffffffffffffffffffffffff16815260200190815260200160002060006101000a81548160ff0219169083151502179055505b5b808061048390610c5e565b91505061021f565b5050565b60606000803373ffffffffffffffffffffffffffffffffffffffff1673ffffffffffffffffffffffffffffffffffffffff16815260200190815260200160002080548060200260200160405190810160405280929190818152602001828054801561054f57602002820191906000526020600020905b8160009054906101000a900473ffffffffffffffffffffffffffffffffffffffff1673ffffffffffffffffffffffffffffffffffffffff1681526020019060010190808311610505575b5050505050905090565b60025481565b60016020528060005260406000206000915054906101000a900460ff1681565b6000602052816000526040600020818154811061059b57600080fd5b906000526020600020016000915091509054906101000a900473ffffffffffffffffffffffffffffffffffffffff1681565b50505050565b61071e80610ca883390190565b6000604051905090565b600080fd5b600080fd5b6000819050919050565b610607816105f4565b811461061257600080fd5b50565b600081359050610624816105fe565b92915050565b600080fd5b600080fd5b6000601f19601f8301169050919050565b7f4e487b7100000000000000000000000000000000000000000000000000000000600052604160045260246000fd5b61067d82610634565b810181811067ffffffffffffffff8211171561069c5761069b610645565b5b80604052505050565b60006106af6105e0565b90506106bb8282610674565b919050565b600067ffffffffffffffff8211156106db576106da610645565b5b6106e482610634565b9050602081019050919050565b82818337600083830152505050565b600061071361070e846106c0565b6106a5565b90508281526020810184848401111561072f5761072e61062f565b5b61073a8482856106f1565b509392505050565b600082601f8301126107575761075661062a565b5b8135610767848260208601610700565b91505092915050565b600080600060608486031215610789576107886105ea565b5b600061079786828701610615565b935050602084013567ffffffffffffffff8111156107b8576107b76105ef565b5b6107c486828701610742565b925050604084013567ffffffffffffffff8111156107e5576107e46105ef565b5b6107f186828701610742565b9150509250925092565b600060208284031215610811576108106105ea565b5b600061081f84828501610615565b91505092915050565b600081519050919050565b600082825260208201905092915050565b6000819050602082019050919050565b600073ffffffffffffffffffffffffffffffffffffffff82169050919050565b6000819050919050565b600061089961089461088f84610854565b610874565b610854565b9050919050565b60006108ab8261087e565b9050919050565b60006108bd826108a0565b9050919050565b6108cd816108b2565b82525050565b60006108df83836108c4565b60208301905092915050565b6000602082019050919050565b600061090382610828565b61090d8185610833565b935061091883610844565b8060005b8381101561094957815161093088826108d3565b975061093b836108eb565b92505060018101905061091c565b5085935050505092915050565b6000602082019050818103600083015261097081846108f8565b905092915050565b610981816105f4565b82525050565b600060208201905061099c6000830184610978565b92915050565b60006109ad82610854565b9050919050565b6109bd816109a2565b81146109c857600080fd5b50565b6000813590506109da816109b4565b92915050565b6000602082840312156109f6576109f56105ea565b5b6000610a04848285016109cb565b91505092915050565b60008115159050919050565b610a2281610a0d565b82525050565b6000602082019050610a3d6000830184610a19565b92915050565b60008060408385031215610a5a57610a596105ea565b5b6000610a68858286016109cb565b9250506020610a7985828601610615565b9150509250929050565b610a8c816108b2565b82525050565b6000602082019050610aa76000830184610a83565b92915050565b60008060008060808587031215610ac757610ac66105ea565b5b600085013567ffffffffffffffff811115610ae557610ae46105ef565b5b610af187828801610742565b945050602085013567ffffffffffffffff811115610b1257610b116105ef565b5b610b1e87828801610742565b935050604085013567ffffffffffffffff811115610b3f57610b3e6105ef565b5b610b4b87828801610742565b9250506060610b5c87828801610615565b91505092959194509250565b7f4e487b7100000000000000000000000000000000000000000000000000000000600052601160045260246000fd5b6000610ba2826105f4565b9150610bad836105f4565b9250827fffffffffffffffffffffffffffffffffffffffffffffffffffffffffffffffff03821115610be257610be1610b68565b5b828201905092915050565b7f4e487b7100000000000000000000000000000000000000000000000000000000600052603260045260246000fd5b600081519050610c2b816105fe565b92915050565b600060208284031215610c4757610c466105ea565b5b6000610c5584828501610c1c565b91505092915050565b6000610c69826105f4565b91507fffffffffffffffffffffffffffffffffffffffffffffffffffffffffffffffff821415610c9c57610c9b610b68565b5b60018201905091905056fe608060405234801561001057600080fd5b506106fe806100206000396000f3fe608060405234801561001057600080fd5b50600436106100625760003560e01c806302d05d3f1461006757806327bce91b146100855780634affb260146100a3578063667d5d22146100c1578063e9a734ff146100df578063fc0c546a1461010f575b600080fd5b61006f61012d565b60405161007c9190610313565b60405180910390f35b61008d610151565b60405161009a9190610347565b60405180910390f35b6100ab610157565b6040516100b891906103fb565b60405180910390f35b6100c96101e5565b6040516100d69190610347565b60405180910390f35b6100f960048036038101906100f49190610566565b6101eb565b60405161010691906105f9565b60405180910390f35b610117610244565b60405161012491906103fb565b60405180910390f35b60008054906101000a900473ffffffffffffffffffffffffffffffffffffffff1681565b60045481565b6001805461016490610643565b80601f016020809104026020016040519081016040528092919081815260200182805461019090610643565b80156101dd5780601f106101b2576101008083540402835291602001916101dd565b820191906000526020600020905b8154815290600101906020018083116101c057829003601f168201915b505050505081565b60025481565b6000816040516020016101fe91906106b1565b604051602081830303815290604052805190602001208360405160200161022591906106b1565b6040516020818303038152906040528051906020012014905092915050565b6003805461025190610643565b80601f016020809104026020016040519081016040528092919081815260200182805461027d90610643565b80156102ca5780601f1061029f576101008083540402835291602001916102ca565b820191906000526020600020905b8154815290600101906020018083116102ad57829003601f168201915b505050505081565b600073ffffffffffffffffffffffffffffffffffffffff82169050919050565b60006102fd826102d2565b9050919050565b61030d816102f2565b82525050565b60006020820190506103286000830184610304565b92915050565b6000819050919050565b6103418161032e565b82525050565b600060208201905061035c6000830184610338565b92915050565b600081519050919050565b600082825260208201905092915050565b60005b8381101561039c578082015181840152602081019050610381565b838111156103ab576000848401525b50505050565b6000601f19601f8301169050919050565b60006103cd82610362565b6103d7818561036d565b93506103e781856020860161037e565b6103f0816103b1565b840191505092915050565b6000602082019050818103600083015261041581846103c2565b905092915050565b6000604051905090565b600080fd5b600080fd5b600080fd5b600080fd5b7f4e487b7100000000000000000000000000000000000000000000000000000000600052604160045260246000fd5b610473826103b1565b810181811067ffffffffffffffff821117156104925761049161043b565b5b80604052505050565b60006104a561041d565b90506104b1828261046a565b919050565b600067ffffffffffffffff8211156104d1576104d061043b565b5b6104da826103b1565b9050602081019050919050565b82818337600083830152505050565b6000610509610504846104b6565b61049b565b90508281526020810184848401111561052557610524610436565b5b6105308482856104e7565b509392505050565b600082601f83011261054d5761054c610431565b5b813561055d8482602086016104f6565b91505092915050565b6000806040838503121561057d5761057c610427565b5b600083013567ffffffffffffffff81111561059b5761059a61042c565b5b6105a785828601610538565b925050602083013567ffffffffffffffff8111156105c8576105c761042c565b5b6105d485828601610538565b9150509250929050565b60008115159050919050565b6105f3816105de565b82525050565b600060208201905061060e60008301846105ea565b92915050565b7f4e487b7100000000000000000000000000000000000000000000000000000000600052602260045260246000fd5b6000600282049050600182168061065b57607f821691505b6020821081141561066f5761066e610614565b5b50919050565b600081905092915050565b600061068b82610362565b6106958185610675565b93506106a581856020860161037e565b80840191505092915050565b60006106bd8284610680565b91508190509291505056fea2646970667358221220643ca10d75d337d5ff9e4006fe8b4cc6783238d1ebc1ceee5359fed3d09b7c3a64736f6c634300080a0033a2646970667358221220ab2f15c2f441cee06cd17c78359d42f6fdb7a1d0ed6d1fdcbc66030a8878dee864736f6c634300080a0033",
  "immutableReferences": {},
  "source": "// SPDX-License-Identifier: MIT\r\npragma solidity >=0.4.22 <0.9.0;\r\n\r\nimport \"./Bet.sol\";\r\n// TODO emit events for all major changes\r\n// TODO don't use ETH. The gas fees are retarded \r\n// Solang Solidity Compiler allows you to deploy .sol smart contracts to Solana blockchain\r\n\r\ncontract BetFactory{\r\n\r\n    // TODO this gettter is requiring a uint256 to index the Bet[] and return just 1\r\n    mapping(address => Bet[]) public allBets;\r\n    mapping(address => bool) public allAddresses;\r\n    uint256 public betCounter = 0;\r\n\r\n    function createBet(uint256 _wager, string memory _token, string memory _displayName) external{\r\n        betCounter += 1;\r\n        Bet bet = new Bet();\r\n        // allBets[msg.sender].push(bet);\r\n        // allAddresses[msg.sender] = true;\r\n    }\r\n\r\n    function removeBet(uint256 _betId) public hasOpenBets{\r\n        for (uint j = 0; j <= allBets[msg.sender].length; j ++) {  \r\n            if(_betId == allBets[msg.sender][j].betId()){\r\n                delete allBets[msg.sender][j];\r\n                if(allBets[msg.sender].length == 0){\r\n                    allAddresses[msg.sender] = false;\r\n                }\r\n            }\r\n        }\r\n    } \r\n\r\n    // This is kind of working. It returns the contract addresses of the Bets with csv\r\n    function readSelfBets() public view returns (Bet[] memory){ \r\n        return allBets[msg.sender];\r\n    }\r\n\r\n    function readBets(string memory _tokenFilter, string memory _betFilter, string memory _displayNameFilter, uint256 pageNum) public view{\r\n        // TODO in some way that's not mega expensive\r\n    }\r\n\r\n    //Modifiers\r\n    modifier hasOpenBets(){\r\n        // BROKEN ?\r\n        require(allAddresses[msg.sender] == true);\r\n        _;\r\n    }\r\n\r\n}\r\n\r\nabstract contract Mortal is Bet {\r\n\r\n    function kill() public mustBeCreator { \r\n        selfdestruct(payable(msg.sender));\r\n    }\r\n}",
  "sourcePath": "C:\\Users\\Maxwell\\Documents\\DuelArena\\DuelArena\\contracts\\BetFactory.sol",
  "compiler": {
    "name": "solc",
    "version": "0.8.10+commit.fc410830.Emscripten.clang"
  },
  "schemaVersion": "3.4.3",
  "updatedAt": "2021-11-29T00:50:35.297Z",
  "networkType": "ethereum",
  "devdoc": {
    "kind": "dev",
    "methods": {},
    "version": 1
  },
  "userdoc": {
    "kind": "user",
    "methods": {},
    "version": 1
  }
}