{
  "contractName": "BetFactory",
  "abi": [
    {
      "anonymous": false,
      "inputs": [
        {
          "indexed": false,
          "internalType": "address",
          "name": "creator",
          "type": "address"
        },
        {
          "indexed": false,
          "internalType": "string",
          "name": "displayName",
          "type": "string"
        },
        {
          "indexed": false,
          "internalType": "uint256",
          "name": "wager",
          "type": "uint256"
        },
        {
          "indexed": false,
          "internalType": "bool",
          "name": "isEven",
          "type": "bool"
        },
        {
          "indexed": false,
          "internalType": "string",
          "name": "token",
          "type": "string"
        }
      ],
      "name": "CreatedBet",
      "type": "event"
    },
    {
      "inputs": [
        {
          "internalType": "address",
          "name": "",
          "type": "address"
        }
      ],
      "name": "allAddresses",
      "outputs": [
        {
          "internalType": "bool",
          "name": "",
          "type": "bool"
        }
      ],
      "stateMutability": "view",
      "type": "function",
      "constant": true
    },
    {
      "inputs": [
        {
          "internalType": "address",
          "name": "",
          "type": "address"
        },
        {
          "internalType": "uint256",
          "name": "",
          "type": "uint256"
        }
      ],
      "name": "allBets",
      "outputs": [
        {
          "internalType": "contract Bet",
          "name": "",
          "type": "address"
        }
      ],
      "stateMutability": "view",
      "type": "function",
      "constant": true
    },
    {
      "stateMutability": "payable",
      "type": "receive",
      "payable": true
    },
    {
      "inputs": [
        {
          "internalType": "uint256",
          "name": "_wager",
          "type": "uint256"
        },
        {
          "internalType": "bool",
          "name": "_isEven",
          "type": "bool"
        },
        {
          "internalType": "string",
          "name": "_token",
          "type": "string"
        },
        {
          "internalType": "string",
          "name": "_displayName",
          "type": "string"
        }
      ],
      "name": "createBet",
      "outputs": [
        {
          "internalType": "contract Bet",
          "name": "",
          "type": "address"
        }
      ],
      "stateMutability": "payable",
      "type": "function",
      "payable": true
    },
    {
      "inputs": [],
      "name": "getSelfBets",
      "outputs": [
        {
          "internalType": "contract Bet[]",
          "name": "",
          "type": "address[]"
        }
      ],
      "stateMutability": "view",
      "type": "function",
      "constant": true
    },
    {
      "inputs": [],
      "name": "getSelfBetsLength",
      "outputs": [
        {
          "internalType": "uint256",
          "name": "",
          "type": "uint256"
        }
      ],
      "stateMutability": "view",
      "type": "function",
      "constant": true
    },
    {
      "inputs": [],
      "name": "getHasOpenBets",
      "outputs": [
        {
          "internalType": "bool",
          "name": "",
          "type": "bool"
        }
      ],
      "stateMutability": "view",
      "type": "function",
      "constant": true
    },
    {
      "inputs": [
        {
          "internalType": "string",
          "name": "_tokenFilter",
          "type": "string"
        },
        {
          "internalType": "string",
          "name": "_betFilter",
          "type": "string"
        },
        {
          "internalType": "string",
          "name": "_displayNameFilter",
          "type": "string"
        },
        {
          "internalType": "uint256",
          "name": "pageNum",
          "type": "uint256"
        }
      ],
      "name": "readBets",
      "outputs": [],
      "stateMutability": "view",
      "type": "function",
      "constant": true
    },
    {
      "inputs": [
        {
          "internalType": "address",
          "name": "_betAddress",
          "type": "address"
        }
      ],
      "name": "deleteBet",
      "outputs": [],
      "stateMutability": "nonpayable",
      "type": "function"
    }
  ],
  "bytecode": "0x608060405234801561001057600080fd5b506125e9806100206000396000f3fe6080604052600436106200008b5760003560e01c806399177357116200005557806399177357146200015e578063af5996aa146200018c578063d17f538f14620001d0578063f7f6267d14620002145762000093565b80630b5c4cfd14620000985780631a32d16314620000c85780636f597a2914620000f857806394018246146200012e5762000093565b366200009357005b600080fd5b348015620000a557600080fd5b50620000b062000242565b604051620000bf919062000cb9565b60405180910390f35b348015620000d557600080fd5b50620000e06200030e565b604051620000ef919062000cf8565b60405180910390f35b62000116600480360381019062000110919062000ef9565b62000357565b60405162000125919062000fba565b60405180910390f35b3480156200013b57600080fd5b506200014662000528565b60405162000155919062000fe8565b60405180910390f35b3480156200016b57600080fd5b506200018a60048036038101906200018491906200104a565b6200057c565b005b3480156200019957600080fd5b50620001b86004803603810190620001b291906200104a565b62000aac565b604051620001c7919062000fe8565b60405180910390f35b348015620001dd57600080fd5b50620001fc6004803603810190620001f691906200107c565b62000acc565b6040516200020b919062000fba565b60405180910390f35b3480156200022157600080fd5b506200024060048036038101906200023a9190620010c3565b62000b1b565b005b60606000803373ffffffffffffffffffffffffffffffffffffffff1673ffffffffffffffffffffffffffffffffffffffff1681526020019081526020016000208054806020026020016040519081016040528092919081815260200182805480156200030457602002820191906000526020600020905b8160009054906101000a900473ffffffffffffffffffffffffffffffffffffffff1673ffffffffffffffffffffffffffffffffffffffff1681526020019060010190808311620002b9575b5050505050905090565b60008060003373ffffffffffffffffffffffffffffffffffffffff1673ffffffffffffffffffffffffffffffffffffffff16815260200190815260200160002080549050905090565b60008034116200039e576040517f08c379a00000000000000000000000000000000000000000000000000000000081526004016200039590620011f3565b60405180910390fd5b6000853384888888604051620003b49062000b21565b620003c4959493929190620012a8565b6040518091039082f0905080158015620003e2573d6000803e3d6000fd5b5090507f4cb428e0b799ffce7064b20d11851c73ed5b7471371fadc5f6bb91e0c0b2507833848888886040516200041e959493929190620012a8565b60405180910390a16000803373ffffffffffffffffffffffffffffffffffffffff1673ffffffffffffffffffffffffffffffffffffffff168152602001908152602001600020819080600181540180825580915050600190039060005260206000200160009091909190916101000a81548173ffffffffffffffffffffffffffffffffffffffff021916908373ffffffffffffffffffffffffffffffffffffffff16021790555060018060003373ffffffffffffffffffffffffffffffffffffffff1673ffffffffffffffffffffffffffffffffffffffff16815260200190815260200160002060006101000a81548160ff02191690831515021790555080915050949350505050565b6000600160003373ffffffffffffffffffffffffffffffffffffffff1673ffffffffffffffffffffffffffffffffffffffff16815260200190815260200160002060009054906101000a900460ff16905090565b600160003373ffffffffffffffffffffffffffffffffffffffff1673ffffffffffffffffffffffffffffffffffffffff16815260200190815260200160002060009054906101000a900460ff166200060b576040517f08c379a0000000000000000000000000000000000000000000000000000000008152600401620006029062001363565b60405180910390fd5b60008060003373ffffffffffffffffffffffffffffffffffffffff1673ffffffffffffffffffffffffffffffffffffffff168152602001908152602001600020805480602002602001604051908101604052809291908181526020018280548015620006cd57602002820191906000526020600020905b8160009054906101000a900473ffffffffffffffffffffffffffffffffffffffff1673ffffffffffffffffffffffffffffffffffffffff168152602001906001019080831162000682575b5050505050905060005b815181101562000aa7576000828281518110620006f957620006f862001385565b5b602002602001015190508373ffffffffffffffffffffffffffffffffffffffff168173ffffffffffffffffffffffffffffffffffffffff160362000a90578073ffffffffffffffffffffffffffffffffffffffff1663cbf0b0c0336040518263ffffffff1660e01b8152600401620007729190620013b4565b600060405180830381600087803b1580156200078d57600080fd5b505af1158015620007a2573d6000803e3d6000fd5b5050505060016000803373ffffffffffffffffffffffffffffffffffffffff1673ffffffffffffffffffffffffffffffffffffffff16815260200190815260200160002080549050036200089a576000803373ffffffffffffffffffffffffffffffffffffffff1673ffffffffffffffffffffffffffffffffffffffff16815260200190815260200160002060006200083c919062000b2f565b6000600160003373ffffffffffffffffffffffffffffffffffffffff1673ffffffffffffffffffffffffffffffffffffffff16815260200190815260200160002060006101000a81548160ff02191690831515021790555062000a89565b6000803373ffffffffffffffffffffffffffffffffffffffff1673ffffffffffffffffffffffffffffffffffffffff16815260200190815260200160002060016000803373ffffffffffffffffffffffffffffffffffffffff1673ffffffffffffffffffffffffffffffffffffffff1681526020019081526020016000208054905062000928919062001400565b815481106200093c576200093b62001385565b5b9060005260206000200160009054906101000a900473ffffffffffffffffffffffffffffffffffffffff166000803373ffffffffffffffffffffffffffffffffffffffff1673ffffffffffffffffffffffffffffffffffffffff1681526020019081526020016000208381548110620009ba57620009b962001385565b5b9060005260206000200160006101000a81548173ffffffffffffffffffffffffffffffffffffffff021916908373ffffffffffffffffffffffffffffffffffffffff1602179055506000803373ffffffffffffffffffffffffffffffffffffffff1673ffffffffffffffffffffffffffffffffffffffff16815260200190815260200160002080548062000a535762000a526200143b565b5b6001900381819060005260206000200160006101000a81549073ffffffffffffffffffffffffffffffffffffffff021916905590555b5062000aa7565b50808062000a9e906200146a565b915050620006d7565b505050565b60016020528060005260406000206000915054906101000a900460ff1681565b6000602052816000526040600020818154811062000ae957600080fd5b906000526020600020016000915091509054906101000a900473ffffffffffffffffffffffffffffffffffffffff1681565b50505050565b6110fc80620014b883390190565b508054600082559060005260206000209081019062000b4f919062000b52565b50565b5b8082111562000b6d57600081600090555060010162000b53565b5090565b600081519050919050565b600082825260208201905092915050565b6000819050602082019050919050565b600073ffffffffffffffffffffffffffffffffffffffff82169050919050565b6000819050919050565b600062000be862000be262000bdc8462000b9d565b62000bbd565b62000b9d565b9050919050565b600062000bfc8262000bc7565b9050919050565b600062000c108262000bef565b9050919050565b62000c228162000c03565b82525050565b600062000c36838362000c17565b60208301905092915050565b6000602082019050919050565b600062000c5c8262000b71565b62000c68818562000b7c565b935062000c758362000b8d565b8060005b8381101562000cac57815162000c90888262000c28565b975062000c9d8362000c42565b92505060018101905062000c79565b5085935050505092915050565b6000602082019050818103600083015262000cd5818462000c4f565b905092915050565b6000819050919050565b62000cf28162000cdd565b82525050565b600060208201905062000d0f600083018462000ce7565b92915050565b6000604051905090565b600080fd5b600080fd5b62000d348162000cdd565b811462000d4057600080fd5b50565b60008135905062000d548162000d29565b92915050565b60008115159050919050565b62000d718162000d5a565b811462000d7d57600080fd5b50565b60008135905062000d918162000d66565b92915050565b600080fd5b600080fd5b6000601f19601f8301169050919050565b7f4e487b7100000000000000000000000000000000000000000000000000000000600052604160045260246000fd5b62000dec8262000da1565b810181811067ffffffffffffffff8211171562000e0e5762000e0d62000db2565b5b80604052505050565b600062000e2362000d15565b905062000e31828262000de1565b919050565b600067ffffffffffffffff82111562000e545762000e5362000db2565b5b62000e5f8262000da1565b9050602081019050919050565b82818337600083830152505050565b600062000e9262000e8c8462000e36565b62000e17565b90508281526020810184848401111562000eb15762000eb062000d9c565b5b62000ebe84828562000e6c565b509392505050565b600082601f83011262000ede5762000edd62000d97565b5b813562000ef084826020860162000e7b565b91505092915050565b6000806000806080858703121562000f165762000f1562000d1f565b5b600062000f268782880162000d43565b945050602062000f398782880162000d80565b935050604085013567ffffffffffffffff81111562000f5d5762000f5c62000d24565b5b62000f6b8782880162000ec6565b925050606085013567ffffffffffffffff81111562000f8f5762000f8e62000d24565b5b62000f9d8782880162000ec6565b91505092959194509250565b62000fb48162000c03565b82525050565b600060208201905062000fd1600083018462000fa9565b92915050565b62000fe28162000d5a565b82525050565b600060208201905062000fff600083018462000fd7565b92915050565b6000620010128262000b9d565b9050919050565b620010248162001005565b81146200103057600080fd5b50565b600081359050620010448162001019565b92915050565b60006020828403121562001063576200106262000d1f565b5b6000620010738482850162001033565b91505092915050565b6000806040838503121562001096576200109562000d1f565b5b6000620010a68582860162001033565b9250506020620010b98582860162000d43565b9150509250929050565b60008060008060808587031215620010e057620010df62000d1f565b5b600085013567ffffffffffffffff81111562001101576200110062000d24565b5b6200110f8782880162000ec6565b945050602085013567ffffffffffffffff81111562001133576200113262000d24565b5b620011418782880162000ec6565b935050604085013567ffffffffffffffff81111562001165576200116462000d24565b5b620011738782880162000ec6565b9250506060620011868782880162000d43565b91505092959194509250565b600082825260208201905092915050565b7f5a65726f20657468657220686173206265656e2073656e740000000000000000600082015250565b6000620011db60188362001192565b9150620011e882620011a3565b602082019050919050565b600060208201905081810360008301526200120e81620011cc565b9050919050565b620012208162001005565b82525050565b600081519050919050565b60005b838110156200125157808201518184015260208101905062001234565b8381111562001261576000848401525b50505050565b6000620012748262001226565b62001280818562001192565b93506200129281856020860162001231565b6200129d8162000da1565b840191505092915050565b600060a082019050620012bf600083018862001215565b8181036020830152620012d3818762001267565b9050620012e4604083018662000ce7565b620012f3606083018562000fd7565b818103608083015262001307818462001267565b90509695505050505050565b7f4e6f74206d61746368696e6720666f7220736f6d6520726561736f6e00000000600082015250565b60006200134b601c8362001192565b9150620013588262001313565b602082019050919050565b600060208201905081810360008301526200137e816200133c565b9050919050565b7f4e487b7100000000000000000000000000000000000000000000000000000000600052603260045260246000fd5b6000602082019050620013cb600083018462001215565b92915050565b7f4e487b7100000000000000000000000000000000000000000000000000000000600052601160045260246000fd5b60006200140d8262000cdd565b91506200141a8362000cdd565b92508282101562001430576200142f620013d1565b5b828203905092915050565b7f4e487b7100000000000000000000000000000000000000000000000000000000600052603160045260246000fd5b6000620014778262000cdd565b91507fffffffffffffffffffffffffffffffffffffffffffffffffffffffffffffffff8203620014ac57620014ab620013d1565b5b60018201905091905056fe6080604052604051620010fc380380620010fc833981810160405281019062000029919062000450565b6040518060a001604052808673ffffffffffffffffffffffffffffffffffffffff1681526020018581526020018481526020018315158152602001828152506000808201518160000160006101000a81548173ffffffffffffffffffffffffffffffffffffffff021916908373ffffffffffffffffffffffffffffffffffffffff1602179055506020820151816001019080519060200190620000ce92919062000126565b506040820151816002015560608201518160030160006101000a81548160ff02191690831515021790555060808201518160040190805190602001906200011792919062000126565b5090505050505050506200057a565b828054620001349062000545565b90600052602060002090601f016020900481019282620001585760008555620001a4565b82601f106200017357805160ff1916838001178555620001a4565b82800160010185558215620001a4579182015b82811115620001a357825182559160200191906001019062000186565b5b509050620001b39190620001b7565b5090565b5b80821115620001d2576000816000905550600101620001b8565b5090565b6000604051905090565b600080fd5b600080fd5b600073ffffffffffffffffffffffffffffffffffffffff82169050919050565b60006200021782620001ea565b9050919050565b62000229816200020a565b81146200023557600080fd5b50565b60008151905062000249816200021e565b92915050565b600080fd5b600080fd5b6000601f19601f8301169050919050565b7f4e487b7100000000000000000000000000000000000000000000000000000000600052604160045260246000fd5b620002a48262000259565b810181811067ffffffffffffffff82111715620002c657620002c56200026a565b5b80604052505050565b6000620002db620001d6565b9050620002e9828262000299565b919050565b600067ffffffffffffffff8211156200030c576200030b6200026a565b5b620003178262000259565b9050602081019050919050565b60005b838110156200034457808201518184015260208101905062000327565b8381111562000354576000848401525b50505050565b6000620003716200036b84620002ee565b620002cf565b90508281526020810184848401111562000390576200038f62000254565b5b6200039d84828562000324565b509392505050565b600082601f830112620003bd57620003bc6200024f565b5b8151620003cf8482602086016200035a565b91505092915050565b6000819050919050565b620003ed81620003d8565b8114620003f957600080fd5b50565b6000815190506200040d81620003e2565b92915050565b60008115159050919050565b6200042a8162000413565b81146200043657600080fd5b50565b6000815190506200044a816200041f565b92915050565b600080600080600060a086880312156200046f576200046e620001e0565b5b60006200047f8882890162000238565b955050602086015167ffffffffffffffff811115620004a357620004a2620001e5565b5b620004b188828901620003a5565b9450506040620004c488828901620003fc565b9350506060620004d78882890162000439565b925050608086015167ffffffffffffffff811115620004fb57620004fa620001e5565b5b6200050988828901620003a5565b9150509295509295909350565b7f4e487b7100000000000000000000000000000000000000000000000000000000600052602260045260246000fd5b600060028204905060018216806200055e57607f821691505b60208210810362000574576200057362000516565b5b50919050565b610b72806200058a6000396000f3fe60806040526004361061004a5760003560e01c8063134941761461004f578063900551a81461008c578063951b6c7a146100b7578063cbf0b0c0146100e6578063ef03047c1461010f575b600080fd5b34801561005b57600080fd5b50610076600480360381019061007191906106b2565b61012b565b6040516100839190610745565b60405180910390f35b34801561009857600080fd5b506100a1610184565b6040516100ae9190610779565b60405180910390f35b3480156100c357600080fd5b506100cc61018c565b6040516100dd95949392919061085d565b60405180910390f35b3480156100f257600080fd5b5061010d600480360381019061010891906108fc565b6102ed565b005b61012960048036038101906101249190610955565b6103db565b005b60008160405160200161013e91906109ed565b604051602081830303815290604052805190602001208360405160200161016591906109ed565b6040516020818303038152906040528051906020012014905092915050565b600047905090565b60008060000160009054906101000a900473ffffffffffffffffffffffffffffffffffffffff16908060010180546101c390610a33565b80601f01602080910402602001604051908101604052809291908181526020018280546101ef90610a33565b801561023c5780601f106102115761010080835404028352916020019161023c565b820191906000526020600020905b81548152906001019060200180831161021f57829003601f168201915b5050505050908060020154908060030160009054906101000a900460ff169080600401805461026a90610a33565b80601f016020809104026020016040519081016040528092919081815260200182805461029690610a33565b80156102e35780601f106102b8576101008083540402835291602001916102e3565b820191906000526020600020905b8154815290600101906020018083116102c657829003601f168201915b5050505050905085565b6000800160009054906101000a900473ffffffffffffffffffffffffffffffffffffffff1673ffffffffffffffffffffffffffffffffffffffff168173ffffffffffffffffffffffffffffffffffffffff161461037f576040517f08c379a000000000000000000000000000000000000000000000000000000000815260040161037690610ab0565b60405180910390fd5b600047116103c2576040517f08c379a00000000000000000000000000000000000000000000000000000000081526004016103b990610b1c565b60405180910390fd5b8073ffffffffffffffffffffffffffffffffffffffff16ff5b3482338360006002015484146103f057600080fd5b610487836000600401805461040490610a33565b80601f016020809104026020016040519081016040528092919081815260200182805461043090610a33565b801561047d5780601f106104525761010080835404028352916020019161047d565b820191906000526020600020905b81548152906001019060200180831161046057829003601f168201915b505050505061012b565b61049057600080fd5b6000800160009054906101000a900473ffffffffffffffffffffffffffffffffffffffff1673ffffffffffffffffffffffffffffffffffffffff168273ffffffffffffffffffffffffffffffffffffffff16036104ec57600080fd5b600060030160009054906101000a900460ff161515811515151461050f57600080fd5b33600560006101000a81548173ffffffffffffffffffffffffffffffffffffffff021916908373ffffffffffffffffffffffffffffffffffffffff160217905550505050505050565b6000604051905090565b600080fd5b600080fd5b600080fd5b600080fd5b6000601f19601f8301169050919050565b7f4e487b7100000000000000000000000000000000000000000000000000000000600052604160045260246000fd5b6105bf82610576565b810181811067ffffffffffffffff821117156105de576105dd610587565b5b80604052505050565b60006105f1610558565b90506105fd82826105b6565b919050565b600067ffffffffffffffff82111561061d5761061c610587565b5b61062682610576565b9050602081019050919050565b82818337600083830152505050565b600061065561065084610602565b6105e7565b90508281526020810184848401111561067157610670610571565b5b61067c848285610633565b509392505050565b600082601f8301126106995761069861056c565b5b81356106a9848260208601610642565b91505092915050565b600080604083850312156106c9576106c8610562565b5b600083013567ffffffffffffffff8111156106e7576106e6610567565b5b6106f385828601610684565b925050602083013567ffffffffffffffff81111561071457610713610567565b5b61072085828601610684565b9150509250929050565b60008115159050919050565b61073f8161072a565b82525050565b600060208201905061075a6000830184610736565b92915050565b6000819050919050565b61077381610760565b82525050565b600060208201905061078e600083018461076a565b92915050565b600073ffffffffffffffffffffffffffffffffffffffff82169050919050565b60006107bf82610794565b9050919050565b6107cf816107b4565b82525050565b600081519050919050565b600082825260208201905092915050565b60005b8381101561080f5780820151818401526020810190506107f4565b8381111561081e576000848401525b50505050565b600061082f826107d5565b61083981856107e0565b93506108498185602086016107f1565b61085281610576565b840191505092915050565b600060a08201905061087260008301886107c6565b81810360208301526108848187610824565b9050610893604083018661076a565b6108a06060830185610736565b81810360808301526108b28184610824565b90509695505050505050565b60006108c982610794565b9050919050565b6108d9816108be565b81146108e457600080fd5b50565b6000813590506108f6816108d0565b92915050565b60006020828403121561091257610911610562565b5b6000610920848285016108e7565b91505092915050565b6109328161072a565b811461093d57600080fd5b50565b60008135905061094f81610929565b92915050565b6000806040838503121561096c5761096b610562565b5b600083013567ffffffffffffffff81111561098a57610989610567565b5b61099685828601610684565b92505060206109a785828601610940565b9150509250929050565b600081905092915050565b60006109c7826107d5565b6109d181856109b1565b93506109e18185602086016107f1565b80840191505092915050565b60006109f982846109bc565b915081905092915050565b7f4e487b7100000000000000000000000000000000000000000000000000000000600052602260045260246000fd5b60006002820490506001821680610a4b57607f821691505b602082108103610a5e57610a5d610a04565b5b50919050565b7f546865736520646f6e2774206d61746368000000000000000000000000000000600082015250565b6000610a9a6011836107e0565b9150610aa582610a64565b602082019050919050565b60006020820190508181036000830152610ac981610a8d565b9050919050565b7f436f6e74726163742062616c616e6365206973207a65726f0000000000000000600082015250565b6000610b066018836107e0565b9150610b1182610ad0565b602082019050919050565b60006020820190508181036000830152610b3581610af9565b905091905056fea26469706673582212209d90abb2c52d72acd0f47117080775e73554dd3f7e387fedb14621110cc207d264736f6c634300080d0033a2646970667358221220aa9ac274342e3cb518c344ee980015ca3353147fbdb8340544f0f322e8d7c5f364736f6c634300080d0033",
  "immutableReferences": {},
  "source": "// SPDX-License-Identifier: MIT\r\npragma solidity >=0.4.22 <0.9.0;\r\n\r\n\r\ncontract Bet {\r\n\r\n    event Withdraw(address winner, uint256 amount, string winnerDisplayName, int txLastDigit, string token);\r\n\r\n    struct BetData{\r\n        address payable creator;\r\n        string displayName;\r\n        uint256 wager;\r\n        bool isEven;\r\n        string token;\r\n    }\r\n\r\n    BetData public betData;\r\n    address payable matcher;\r\n\r\n    constructor(address _creator, string memory _displayName, uint256 _wager, bool _isEven, string memory _token) payable {\r\n        betData = BetData(\r\n            payable(_creator),\r\n            _displayName,\r\n            _wager,\r\n            _isEven,\r\n            _token\r\n        );\r\n    }\r\n\r\n    function withdrawToWinner(address payable winner, int txLastDigit, string memory winnerDisplayName) internal{\r\n        emit Withdraw(winner, address(this).balance, winnerDisplayName, txLastDigit, betData.token);\r\n        selfdestruct(winner);\r\n    }\r\n\r\n    function matchBet(string memory matchToken, bool matchIsEven) \r\n    public payable isValidBetMatch(msg.value, matchToken, msg.sender, matchIsEven){\r\n        matcher = payable(msg.sender);\r\n        // TODO CHAINLINK RNG\r\n        // address payable winner = didCreatorWin ? betData.creator : matcher;\r\n        // string memory winnerDisplayName = didCreatorWin ? betData.displayName : matchDisplayName;\r\n        // withdrawToWinner(winner, txLastDigit, winnerDisplayName);\r\n    }\r\n\r\n    // Pure\r\n    function compareStringsByBytes(string memory s1, string memory s2) public pure returns(bool){\r\n        return keccak256(abi.encodePacked(s1)) == keccak256(abi.encodePacked(s2));\r\n    }\r\n\r\n    //View\r\n    function returnBalance() public view returns(uint){\r\n        return address(this).balance;\r\n    }\r\n    \r\n    // Modifiers\r\n    modifier mustBeCreator {\r\n        require(msg.sender == betData.creator);\r\n        _;\r\n    }\r\n\r\n    modifier isValidBetMatch(uint256 matchWager, string memory matchToken, address _matcher, bool matchIsEven) {\r\n        require(matchWager == betData.wager);\r\n        require(compareStringsByBytes(matchToken, betData.token));\r\n        require(_matcher != betData.creator);\r\n        require(!matchIsEven == betData.isEven);\r\n        _;\r\n    }\r\n\r\n    // Selfdestruct\r\n    function kill(address _address) external{\r\n        require(_address == address(betData.creator), \"These don't match\");\r\n        require(address(this).balance > 0, \"Contract balance is zero\");\r\n        selfdestruct(payable(_address));\r\n    }\r\n}\r\n\r\ncontract BetFactory{\r\n\r\n    mapping(address => Bet[]) public allBets;\r\n    mapping(address => bool) public allAddresses; // TODO Is this necessary? Could check length of array in allBets no?\r\n\r\n    event CreatedBet(address creator, string displayName, uint256 wager, bool isEven, string token);\r\n\r\n    receive() external payable{} // Allows contract to receive ether from anywhere\r\n\r\n    function createBet(uint256 _wager, bool _isEven, string memory _token, string memory _displayName) external payable returns(Bet){ \r\n        require(msg.value > 0, \"Zero ether has been sent\");\r\n        Bet bet = new Bet{value: _wager}(msg.sender, _displayName, _wager, _isEven, _token);\r\n        emit CreatedBet(msg.sender, _displayName, _wager, _isEven, _token);\r\n        allBets[msg.sender].push(bet);\r\n        allAddresses[msg.sender] = true;\r\n        return bet;\r\n    }\r\n\r\n    // Note this only returns the bet contract addresses. More needs to be done with web3 and ABI data to get the actual contract object\r\n    function getSelfBets() public view returns (Bet[] memory){ \r\n        return allBets[msg.sender];\r\n    }\r\n\r\n    function getSelfBetsLength() public view returns (uint256){\r\n        return allBets[msg.sender].length;\r\n    }\r\n\r\n    function getHasOpenBets() public view returns(bool){\r\n        return allAddresses[msg.sender];\r\n    }\r\n\r\n    function readBets(string memory _tokenFilter, string memory _betFilter, string memory _displayNameFilter, uint256 pageNum) public view{\r\n        // TODO in some way that's not mega expensive\r\n    }\r\n\r\n    function deleteBet(address _betAddress) public hasSelfBets(){\r\n        Bet[] memory bets = allBets[msg.sender];\r\n        for(uint j = 0; j < bets.length; j++){ // TODO theres certainly a more efficient way to do this. Look for something like find() in javascript\r\n            Bet bet = bets[j];\r\n            if(address(bet) == _betAddress){\r\n                bet.kill(msg.sender);\r\n                if(allBets[msg.sender].length == 1){\r\n                    delete allBets[msg.sender];\r\n                    allAddresses[msg.sender] = false;\r\n                } else {\r\n                    allBets[msg.sender][j] = allBets[msg.sender][allBets[msg.sender].length - 1];\r\n                    allBets[msg.sender].pop();\r\n                }\r\n                break;\r\n            }\r\n        }\r\n    }\r\n\r\n    //Modifiers\r\n    modifier hasSelfBets(){\r\n        require(allAddresses[msg.sender], \"Not matching for some reason\");\r\n        _;\r\n    }\r\n}\r\n\r\n// abstract contract Mortal is Bet {\r\n\r\n//     function kill() public mustBeCreator { \r\n//         selfdestruct(payable(msg.sender));\r\n//     }\r\n// }",
  "sourcePath": "C:\\Users\\Maxwell\\Documents\\DuelArena\\DuelArena\\contracts\\BetFactory.sol",
  "compiler": {
    "name": "solc",
    "version": "0.8.13+commit.abaa5c0e.Emscripten.clang"
  },
  "schemaVersion": "3.4.3",
  "updatedAt": "2022-04-27T00:59:13.330Z",
  "networkType": "ethereum",
  "devdoc": {
    "kind": "dev",
    "methods": {},
    "version": 1
  },
  "userdoc": {
    "kind": "user",
    "methods": {},
    "version": 1
  }
}