{
  "contractName": "BetFactory",
  "abi": [
    {
      "anonymous": false,
      "inputs": [
        {
          "indexed": false,
          "internalType": "address",
          "name": "creator",
          "type": "address"
        },
        {
          "indexed": false,
          "internalType": "string",
          "name": "displayName",
          "type": "string"
        },
        {
          "indexed": false,
          "internalType": "uint256",
          "name": "wager",
          "type": "uint256"
        },
        {
          "indexed": false,
          "internalType": "bool",
          "name": "isEven",
          "type": "bool"
        },
        {
          "indexed": false,
          "internalType": "string",
          "name": "token",
          "type": "string"
        },
        {
          "indexed": false,
          "internalType": "uint256",
          "name": "betId",
          "type": "uint256"
        }
      ],
      "name": "CreatedBet",
      "type": "event"
    },
    {
      "inputs": [
        {
          "internalType": "address",
          "name": "",
          "type": "address"
        }
      ],
      "name": "allAddresses",
      "outputs": [
        {
          "internalType": "bool",
          "name": "",
          "type": "bool"
        }
      ],
      "stateMutability": "view",
      "type": "function",
      "constant": true
    },
    {
      "inputs": [
        {
          "internalType": "address",
          "name": "",
          "type": "address"
        },
        {
          "internalType": "uint256",
          "name": "",
          "type": "uint256"
        }
      ],
      "name": "allBets",
      "outputs": [
        {
          "internalType": "contract Bet",
          "name": "",
          "type": "address"
        }
      ],
      "stateMutability": "view",
      "type": "function",
      "constant": true
    },
    {
      "inputs": [],
      "name": "betCounter",
      "outputs": [
        {
          "internalType": "uint256",
          "name": "",
          "type": "uint256"
        }
      ],
      "stateMutability": "view",
      "type": "function",
      "constant": true
    },
    {
      "inputs": [
        {
          "internalType": "uint256",
          "name": "_wager",
          "type": "uint256"
        },
        {
          "internalType": "bool",
          "name": "_isEven",
          "type": "bool"
        },
        {
          "internalType": "string",
          "name": "_token",
          "type": "string"
        },
        {
          "internalType": "string",
          "name": "_displayName",
          "type": "string"
        }
      ],
      "name": "createBet",
      "outputs": [
        {
          "internalType": "contract Bet",
          "name": "",
          "type": "address"
        }
      ],
      "stateMutability": "nonpayable",
      "type": "function"
    },
    {
      "inputs": [
        {
          "internalType": "uint256",
          "name": "_betId",
          "type": "uint256"
        }
      ],
      "name": "removeBet",
      "outputs": [],
      "stateMutability": "nonpayable",
      "type": "function"
    },
    {
      "inputs": [],
      "name": "getSelfBets",
      "outputs": [
        {
          "internalType": "contract Bet[]",
          "name": "",
          "type": "address[]"
        }
      ],
      "stateMutability": "view",
      "type": "function",
      "constant": true
    },
    {
      "inputs": [],
      "name": "getSelfBetsLength",
      "outputs": [
        {
          "internalType": "uint256",
          "name": "",
          "type": "uint256"
        }
      ],
      "stateMutability": "view",
      "type": "function",
      "constant": true
    },
    {
      "inputs": [],
      "name": "getHasOpenBets",
      "outputs": [
        {
          "internalType": "bool",
          "name": "",
          "type": "bool"
        }
      ],
      "stateMutability": "view",
      "type": "function",
      "constant": true
    },
    {
      "inputs": [
        {
          "internalType": "string",
          "name": "_tokenFilter",
          "type": "string"
        },
        {
          "internalType": "string",
          "name": "_betFilter",
          "type": "string"
        },
        {
          "internalType": "string",
          "name": "_displayNameFilter",
          "type": "string"
        },
        {
          "internalType": "uint256",
          "name": "pageNum",
          "type": "uint256"
        }
      ],
      "name": "readBets",
      "outputs": [],
      "stateMutability": "view",
      "type": "function",
      "constant": true
    }
  ],
  "bytecode": "0x6080604052600160025534801561001557600080fd5b50611e29806100256000396000f3fe60806040523480156200001157600080fd5b5060043610620000a05760003560e01c806394018246116200006f57806394018246146200013f578063a416f5ab1462000161578063af5996aa1462000183578063d17f538f14620001b9578063f7f6267d14620001ef57620000a0565b80630b5c4cfd14620000a55780631a32d16314620000c75780635c2029a914620000e95780636f597a291462000109575b600080fd5b620000af6200020f565b604051620000be9190620009d7565b60405180910390f35b620000d1620002db565b604051620000e0919062000a16565b60405180910390f35b62000107600480360381019062000101919062000a78565b62000324565b005b62000127600480360381019062000121919062000c49565b62000604565b60405162000136919062000d0a565b60405180910390f35b62000149620007b2565b60405162000158919062000d38565b60405180910390f35b6200016b62000806565b6040516200017a919062000a16565b60405180910390f35b620001a160048036038101906200019b919062000d9a565b6200080c565b604051620001b0919062000d38565b60405180910390f35b620001d76004803603810190620001d1919062000dcc565b6200082c565b604051620001e6919062000d0a565b60405180910390f35b6200020d600480360381019062000207919062000e13565b6200087b565b005b60606000803373ffffffffffffffffffffffffffffffffffffffff1673ffffffffffffffffffffffffffffffffffffffff168152602001908152602001600020805480602002602001604051908101604052809291908181526020018280548015620002d157602002820191906000526020600020905b8160009054906101000a900473ffffffffffffffffffffffffffffffffffffffff1673ffffffffffffffffffffffffffffffffffffffff168152602001906001019080831162000286575b5050505050905090565b60008060003373ffffffffffffffffffffffffffffffffffffffff1673ffffffffffffffffffffffffffffffffffffffff16815260200190815260200160002080549050905090565b60011515600160003373ffffffffffffffffffffffffffffffffffffffff1673ffffffffffffffffffffffffffffffffffffffff16815260200190815260200160002060009054906101000a900460ff161515146200038257600080fd5b60005b6000803373ffffffffffffffffffffffffffffffffffffffff1673ffffffffffffffffffffffffffffffffffffffff16815260200190815260200160002080549050811162000600576000803373ffffffffffffffffffffffffffffffffffffffff1673ffffffffffffffffffffffffffffffffffffffff168152602001908152602001600020818154811062000421576200042062000ee2565b5b9060005260206000200160009054906101000a900473ffffffffffffffffffffffffffffffffffffffff1673ffffffffffffffffffffffffffffffffffffffff166327bce91b6040518163ffffffff1660e01b8152600401602060405180830381865afa15801562000497573d6000803e3d6000fd5b505050506040513d601f19601f82011682018060405250810190620004bd919062000f28565b821415620005ea576000803373ffffffffffffffffffffffffffffffffffffffff1673ffffffffffffffffffffffffffffffffffffffff168152602001908152602001600020818154811062000518576200051762000ee2565b5b9060005260206000200160006101000a81549073ffffffffffffffffffffffffffffffffffffffff021916905560008060003373ffffffffffffffffffffffffffffffffffffffff1673ffffffffffffffffffffffffffffffffffffffff168152602001908152602001600020805490501415620005e9576000600160003373ffffffffffffffffffffffffffffffffffffffff1673ffffffffffffffffffffffffffffffffffffffff16815260200190815260200160002060006101000a81548160ff0219169083151502179055505b5b8080620005f79062000f89565b91505062000385565b5050565b60006001600260008282546200061b919062000fd7565b92505081905550600033838787876002546040516200063a9062000881565b6200064b96959493929190620010d8565b604051809103906000f08015801562000668573d6000803e3d6000fd5b5090507f555fddc7f9580630ab31b006d56cca81395920f66ddf99561a269b6dfda4032d3384888888600254604051620006a896959493929190620010d8565b60405180910390a16000803373ffffffffffffffffffffffffffffffffffffffff1673ffffffffffffffffffffffffffffffffffffffff168152602001908152602001600020819080600181540180825580915050600190039060005260206000200160009091909190916101000a81548173ffffffffffffffffffffffffffffffffffffffff021916908373ffffffffffffffffffffffffffffffffffffffff16021790555060018060003373ffffffffffffffffffffffffffffffffffffffff1673ffffffffffffffffffffffffffffffffffffffff16815260200190815260200160002060006101000a81548160ff02191690831515021790555080915050949350505050565b6000600160003373ffffffffffffffffffffffffffffffffffffffff1673ffffffffffffffffffffffffffffffffffffffff16815260200190815260200160002060009054906101000a900460ff16905090565b60025481565b60016020528060005260406000206000915054906101000a900460ff1681565b600060205281600052604060002081815481106200084957600080fd5b906000526020600020016000915091509054906101000a900473ffffffffffffffffffffffffffffffffffffffff1681565b50505050565b610ca0806200115483390190565b600081519050919050565b600082825260208201905092915050565b6000819050602082019050919050565b600073ffffffffffffffffffffffffffffffffffffffff82169050919050565b6000819050919050565b60006200090662000900620008fa84620008bb565b620008db565b620008bb565b9050919050565b60006200091a82620008e5565b9050919050565b60006200092e826200090d565b9050919050565b620009408162000921565b82525050565b600062000954838362000935565b60208301905092915050565b6000602082019050919050565b60006200097a826200088f565b6200098681856200089a565b93506200099383620008ab565b8060005b83811015620009ca578151620009ae888262000946565b9750620009bb8362000960565b92505060018101905062000997565b5085935050505092915050565b60006020820190508181036000830152620009f381846200096d565b905092915050565b6000819050919050565b62000a1081620009fb565b82525050565b600060208201905062000a2d600083018462000a05565b92915050565b6000604051905090565b600080fd5b600080fd5b62000a5281620009fb565b811462000a5e57600080fd5b50565b60008135905062000a728162000a47565b92915050565b60006020828403121562000a915762000a9062000a3d565b5b600062000aa18482850162000a61565b91505092915050565b60008115159050919050565b62000ac18162000aaa565b811462000acd57600080fd5b50565b60008135905062000ae18162000ab6565b92915050565b600080fd5b600080fd5b6000601f19601f8301169050919050565b7f4e487b7100000000000000000000000000000000000000000000000000000000600052604160045260246000fd5b62000b3c8262000af1565b810181811067ffffffffffffffff8211171562000b5e5762000b5d62000b02565b5b80604052505050565b600062000b7362000a33565b905062000b81828262000b31565b919050565b600067ffffffffffffffff82111562000ba45762000ba362000b02565b5b62000baf8262000af1565b9050602081019050919050565b82818337600083830152505050565b600062000be262000bdc8462000b86565b62000b67565b90508281526020810184848401111562000c015762000c0062000aec565b5b62000c0e84828562000bbc565b509392505050565b600082601f83011262000c2e5762000c2d62000ae7565b5b813562000c4084826020860162000bcb565b91505092915050565b6000806000806080858703121562000c665762000c6562000a3d565b5b600062000c768782880162000a61565b945050602062000c898782880162000ad0565b935050604085013567ffffffffffffffff81111562000cad5762000cac62000a42565b5b62000cbb8782880162000c16565b925050606085013567ffffffffffffffff81111562000cdf5762000cde62000a42565b5b62000ced8782880162000c16565b91505092959194509250565b62000d048162000921565b82525050565b600060208201905062000d21600083018462000cf9565b92915050565b62000d328162000aaa565b82525050565b600060208201905062000d4f600083018462000d27565b92915050565b600062000d6282620008bb565b9050919050565b62000d748162000d55565b811462000d8057600080fd5b50565b60008135905062000d948162000d69565b92915050565b60006020828403121562000db35762000db262000a3d565b5b600062000dc38482850162000d83565b91505092915050565b6000806040838503121562000de65762000de562000a3d565b5b600062000df68582860162000d83565b925050602062000e098582860162000a61565b9150509250929050565b6000806000806080858703121562000e305762000e2f62000a3d565b5b600085013567ffffffffffffffff81111562000e515762000e5062000a42565b5b62000e5f8782880162000c16565b945050602085013567ffffffffffffffff81111562000e835762000e8262000a42565b5b62000e918782880162000c16565b935050604085013567ffffffffffffffff81111562000eb55762000eb462000a42565b5b62000ec38782880162000c16565b925050606062000ed68782880162000a61565b91505092959194509250565b7f4e487b7100000000000000000000000000000000000000000000000000000000600052603260045260246000fd5b60008151905062000f228162000a47565b92915050565b60006020828403121562000f415762000f4062000a3d565b5b600062000f518482850162000f11565b91505092915050565b7f4e487b7100000000000000000000000000000000000000000000000000000000600052601160045260246000fd5b600062000f9682620009fb565b91507fffffffffffffffffffffffffffffffffffffffffffffffffffffffffffffffff82141562000fcc5762000fcb62000f5a565b5b600182019050919050565b600062000fe482620009fb565b915062000ff183620009fb565b9250827fffffffffffffffffffffffffffffffffffffffffffffffffffffffffffffffff0382111562001029576200102862000f5a565b5b828201905092915050565b6200103f8162000d55565b82525050565b600081519050919050565b600082825260208201905092915050565b60005b838110156200108157808201518184015260208101905062001064565b8381111562001091576000848401525b50505050565b6000620010a48262001045565b620010b0818562001050565b9350620010c281856020860162001061565b620010cd8162000af1565b840191505092915050565b600060c082019050620010ef600083018962001034565b818103602083015262001103818862001097565b905062001114604083018762000a05565b62001123606083018662000d27565b818103608083015262001137818562001097565b90506200114860a083018462000a05565b97965050505050505056fe60806040523480156200001157600080fd5b5060405162000ca038038062000ca0833981810160405281019062000037919062000407565b856000806101000a81548173ffffffffffffffffffffffffffffffffffffffff021916908373ffffffffffffffffffffffffffffffffffffffff16021790555084600190805190602001906200008f929190620000dd565b508360028190555082600360006101000a81548160ff0219169083151502179055508160049080519060200190620000c9929190620000dd565b508060058190555050505050505062000546565b828054620000eb9062000510565b90600052602060002090601f0160209004810192826200010f57600085556200015b565b82601f106200012a57805160ff19168380011785556200015b565b828001600101855582156200015b579182015b828111156200015a5782518255916020019190600101906200013d565b5b5090506200016a91906200016e565b5090565b5b80821115620001895760008160009055506001016200016f565b5090565b6000604051905090565b600080fd5b600080fd5b600073ffffffffffffffffffffffffffffffffffffffff82169050919050565b6000620001ce82620001a1565b9050919050565b620001e081620001c1565b8114620001ec57600080fd5b50565b6000815190506200020081620001d5565b92915050565b600080fd5b600080fd5b6000601f19601f8301169050919050565b7f4e487b7100000000000000000000000000000000000000000000000000000000600052604160045260246000fd5b6200025b8262000210565b810181811067ffffffffffffffff821117156200027d576200027c62000221565b5b80604052505050565b6000620002926200018d565b9050620002a0828262000250565b919050565b600067ffffffffffffffff821115620002c357620002c262000221565b5b620002ce8262000210565b9050602081019050919050565b60005b83811015620002fb578082015181840152602081019050620002de565b838111156200030b576000848401525b50505050565b6000620003286200032284620002a5565b62000286565b9050828152602081018484840111156200034757620003466200020b565b5b62000354848285620002db565b509392505050565b600082601f83011262000374576200037362000206565b5b81516200038684826020860162000311565b91505092915050565b6000819050919050565b620003a4816200038f565b8114620003b057600080fd5b50565b600081519050620003c48162000399565b92915050565b60008115159050919050565b620003e181620003ca565b8114620003ed57600080fd5b50565b6000815190506200040181620003d6565b92915050565b60008060008060008060c0878903121562000427576200042662000197565b5b60006200043789828a01620001ef565b965050602087015167ffffffffffffffff8111156200045b576200045a6200019c565b5b6200046989828a016200035c565b95505060406200047c89828a01620003b3565b94505060606200048f89828a01620003f0565b935050608087015167ffffffffffffffff811115620004b357620004b26200019c565b5b620004c189828a016200035c565b92505060a0620004d489828a01620003b3565b9150509295509295509295565b7f4e487b7100000000000000000000000000000000000000000000000000000000600052602260045260246000fd5b600060028204905060018216806200052957607f821691505b6020821081141562000540576200053f620004e1565b5b50919050565b61074a80620005566000396000f3fe608060405234801561001057600080fd5b506004361061007d5760003560e01c80634affb2601161005b5780634affb260146100dc578063667d5d22146100fa578063e9a734ff14610118578063fc0c546a146101485761007d565b806302d05d3f1461008257806327bce91b146100a057806336b166ba146100be575b600080fd5b61008a610166565b604051610097919061035f565b60405180910390f35b6100a861018a565b6040516100b59190610393565b60405180910390f35b6100c6610190565b6040516100d391906103c9565b60405180910390f35b6100e46101a3565b6040516100f1919061047d565b60405180910390f35b610102610231565b60405161010f9190610393565b60405180910390f35b610132600480360381019061012d91906105e8565b610237565b60405161013f91906103c9565b60405180910390f35b610150610290565b60405161015d919061047d565b60405180910390f35b60008054906101000a900473ffffffffffffffffffffffffffffffffffffffff1681565b60055481565b600360009054906101000a900460ff1681565b600180546101b09061068f565b80601f01602080910402602001604051908101604052809291908181526020018280546101dc9061068f565b80156102295780601f106101fe57610100808354040283529160200191610229565b820191906000526020600020905b81548152906001019060200180831161020c57829003601f168201915b505050505081565b60025481565b60008160405160200161024a91906106fd565b604051602081830303815290604052805190602001208360405160200161027191906106fd565b6040516020818303038152906040528051906020012014905092915050565b6004805461029d9061068f565b80601f01602080910402602001604051908101604052809291908181526020018280546102c99061068f565b80156103165780601f106102eb57610100808354040283529160200191610316565b820191906000526020600020905b8154815290600101906020018083116102f957829003601f168201915b505050505081565b600073ffffffffffffffffffffffffffffffffffffffff82169050919050565b60006103498261031e565b9050919050565b6103598161033e565b82525050565b60006020820190506103746000830184610350565b92915050565b6000819050919050565b61038d8161037a565b82525050565b60006020820190506103a86000830184610384565b92915050565b60008115159050919050565b6103c3816103ae565b82525050565b60006020820190506103de60008301846103ba565b92915050565b600081519050919050565b600082825260208201905092915050565b60005b8381101561041e578082015181840152602081019050610403565b8381111561042d576000848401525b50505050565b6000601f19601f8301169050919050565b600061044f826103e4565b61045981856103ef565b9350610469818560208601610400565b61047281610433565b840191505092915050565b600060208201905081810360008301526104978184610444565b905092915050565b6000604051905090565b600080fd5b600080fd5b600080fd5b600080fd5b7f4e487b7100000000000000000000000000000000000000000000000000000000600052604160045260246000fd5b6104f582610433565b810181811067ffffffffffffffff82111715610514576105136104bd565b5b80604052505050565b600061052761049f565b905061053382826104ec565b919050565b600067ffffffffffffffff821115610553576105526104bd565b5b61055c82610433565b9050602081019050919050565b82818337600083830152505050565b600061058b61058684610538565b61051d565b9050828152602081018484840111156105a7576105a66104b8565b5b6105b2848285610569565b509392505050565b600082601f8301126105cf576105ce6104b3565b5b81356105df848260208601610578565b91505092915050565b600080604083850312156105ff576105fe6104a9565b5b600083013567ffffffffffffffff81111561061d5761061c6104ae565b5b610629858286016105ba565b925050602083013567ffffffffffffffff81111561064a576106496104ae565b5b610656858286016105ba565b9150509250929050565b7f4e487b7100000000000000000000000000000000000000000000000000000000600052602260045260246000fd5b600060028204905060018216806106a757607f821691505b602082108114156106bb576106ba610660565b5b50919050565b600081905092915050565b60006106d7826103e4565b6106e181856106c1565b93506106f1818560208601610400565b80840191505092915050565b600061070982846106cc565b91508190509291505056fea264697066735822122027cc457637fc60990f2e02270f5b64f6927521a0c2c2118449f4191e6ad0b1c264736f6c634300080b0033a264697066735822122093de0cfda38434ea05423de1b7d72beccee41e3ff21449c6b413f78cc3f096fc64736f6c634300080b0033",
  "immutableReferences": {},
  "source": "// SPDX-License-Identifier: MIT\r\npragma solidity >=0.4.22 <0.9.0;\r\n\r\n// TODO don't use ETH retard gas\r\n// Solang Solidity Compiler allows you to deploy .sol smart contracts to Solana blockchain\r\n\r\n// TODO You're currently using a normal factory pattern. This is improved gas costs, but it still falls way short\r\n// You should instead be using a cloning pattern. This creates one single bet contract that has all the functions, and then\r\n// all additional 'clones' only require their unique properties, which would get input as variables to the OG implementation\r\n\r\ncontract Bet {\r\n\r\n    address public creator;\r\n    string public displayName;\r\n    uint256 public wager;\r\n    bool public isEven;\r\n    string public token;\r\n    uint256 public betId;\r\n\r\n\r\n    constructor(address _creator, string memory _displayName, uint256 _wager, bool _isEven, string memory _token, uint256 _betId) {\r\n        creator = _creator;\r\n        displayName = _displayName;\r\n        wager = _wager;\r\n        isEven = _isEven;\r\n        token = _token;\r\n        betId = _betId;\r\n    }\r\n\r\n    // function getAllProperties() public view returns(Bet memory){\r\n        \r\n    // }\r\n\r\n    // Pure\r\n    function compareStringsbyBytes(string memory s1, string memory s2) public pure returns(bool){\r\n        return keccak256(abi.encodePacked(s1)) == keccak256(abi.encodePacked(s2));\r\n    }\r\n    \r\n    // Modifiers\r\n    modifier mustBeCreator {\r\n        require(msg.sender == creator);\r\n        _;\r\n    }\r\n\r\n    modifier mustMatchBet(Bet incMatchBet) {\r\n        require(incMatchBet.wager() == wager);\r\n        require(compareStringsbyBytes(incMatchBet.token(), token));\r\n        _;\r\n    }\r\n}\r\n\r\ncontract BetFactory{\r\n\r\n    mapping(address => Bet[]) public allBets;\r\n    mapping(address => bool) public allAddresses;\r\n    uint256 public betCounter = 1;\r\n\r\n    event CreatedBet(address creator, string displayName, uint256 wager, bool isEven, string token, uint256 betId);\r\n\r\n    function createBet(uint256 _wager, bool _isEven, string memory _token, string memory _displayName) external returns(Bet){ \r\n        betCounter += 1;\r\n        Bet bet = new Bet(msg.sender, _displayName, _wager, _isEven, _token, betCounter);\r\n        emit CreatedBet(msg.sender, _displayName, _wager, _isEven, _token, betCounter);\r\n        allBets[msg.sender].push(bet);\r\n        allAddresses[msg.sender] = true;\r\n        return bet;\r\n    }\r\n\r\n    // This doesn't work atm\r\n    function removeBet(uint256 _betId) public hasOpenBets{\r\n        for (uint j = 0; j <= allBets[msg.sender].length; j ++) {  \r\n            if(_betId == allBets[msg.sender][j].betId()){\r\n                delete allBets[msg.sender][j];\r\n                if(allBets[msg.sender].length == 0){\r\n                    allAddresses[msg.sender] = false;\r\n                }\r\n            }\r\n        }\r\n    } \r\n\r\n    function getSelfBets() public view returns (Bet[] memory){ \r\n        return allBets[msg.sender];\r\n    }\r\n\r\n    function getSelfBetsLength() public view returns (uint256){\r\n        return allBets[msg.sender].length;\r\n    }\r\n\r\n    function getHasOpenBets() public view returns(bool){\r\n        return allAddresses[msg.sender];\r\n    }\r\n\r\n    function readBets(string memory _tokenFilter, string memory _betFilter, string memory _displayNameFilter, uint256 pageNum) public view{\r\n        // TODO in some way that's not mega expensive\r\n    }\r\n\r\n    //Modifiers\r\n    modifier hasOpenBets(){\r\n        // BROKEN ?\r\n        require(allAddresses[msg.sender] == true);\r\n        _;\r\n    }\r\n\r\n}\r\n\r\nabstract contract Mortal is Bet {\r\n\r\n    function kill() public mustBeCreator { \r\n        selfdestruct(payable(msg.sender));\r\n    }\r\n}",
  "sourcePath": "C:\\Users\\Maxwell\\Documents\\DuelArena\\DuelArena\\contracts\\BetFactory.sol",
  "compiler": {
    "name": "solc",
    "version": "0.8.11+commit.d7f03943.Emscripten.clang"
  },
  "schemaVersion": "3.4.3",
  "updatedAt": "2022-01-02T19:39:44.625Z",
  "networkType": "ethereum",
  "devdoc": {
    "kind": "dev",
    "methods": {},
    "version": 1
  },
  "userdoc": {
    "kind": "user",
    "methods": {},
    "version": 1
  }
}