{
  "contractName": "BetFactory",
  "abi": [
    {
      "anonymous": false,
      "inputs": [
        {
          "indexed": false,
          "internalType": "address",
          "name": "creator",
          "type": "address"
        },
        {
          "indexed": false,
          "internalType": "string",
          "name": "displayName",
          "type": "string"
        },
        {
          "indexed": false,
          "internalType": "uint256",
          "name": "wager",
          "type": "uint256"
        },
        {
          "indexed": false,
          "internalType": "string",
          "name": "token",
          "type": "string"
        },
        {
          "indexed": false,
          "internalType": "uint256",
          "name": "betId",
          "type": "uint256"
        }
      ],
      "name": "CreatedBet",
      "type": "event"
    },
    {
      "inputs": [
        {
          "internalType": "address",
          "name": "",
          "type": "address"
        }
      ],
      "name": "allAddresses",
      "outputs": [
        {
          "internalType": "bool",
          "name": "",
          "type": "bool"
        }
      ],
      "stateMutability": "view",
      "type": "function",
      "constant": true
    },
    {
      "inputs": [
        {
          "internalType": "address",
          "name": "",
          "type": "address"
        },
        {
          "internalType": "uint256",
          "name": "",
          "type": "uint256"
        }
      ],
      "name": "allBets",
      "outputs": [
        {
          "internalType": "contract Bet",
          "name": "",
          "type": "address"
        }
      ],
      "stateMutability": "view",
      "type": "function",
      "constant": true
    },
    {
      "inputs": [],
      "name": "betCounter",
      "outputs": [
        {
          "internalType": "uint256",
          "name": "",
          "type": "uint256"
        }
      ],
      "stateMutability": "view",
      "type": "function",
      "constant": true
    },
    {
      "inputs": [
        {
          "internalType": "uint256",
          "name": "_wager",
          "type": "uint256"
        },
        {
          "internalType": "string",
          "name": "_token",
          "type": "string"
        },
        {
          "internalType": "string",
          "name": "_displayName",
          "type": "string"
        }
      ],
      "name": "createBet",
      "outputs": [
        {
          "internalType": "contract Bet",
          "name": "",
          "type": "address"
        }
      ],
      "stateMutability": "nonpayable",
      "type": "function"
    },
    {
      "inputs": [
        {
          "internalType": "uint256",
          "name": "_betId",
          "type": "uint256"
        }
      ],
      "name": "removeBet",
      "outputs": [],
      "stateMutability": "nonpayable",
      "type": "function"
    },
    {
      "inputs": [],
      "name": "getSelfBets",
      "outputs": [
        {
          "internalType": "contract Bet[]",
          "name": "",
          "type": "address[]"
        }
      ],
      "stateMutability": "view",
      "type": "function",
      "constant": true
    },
    {
      "inputs": [],
      "name": "getSelfBetsLength",
      "outputs": [
        {
          "internalType": "uint256",
          "name": "",
          "type": "uint256"
        }
      ],
      "stateMutability": "view",
      "type": "function",
      "constant": true
    },
    {
      "inputs": [],
      "name": "getHasOpenBets",
      "outputs": [
        {
          "internalType": "bool",
          "name": "",
          "type": "bool"
        }
      ],
      "stateMutability": "view",
      "type": "function",
      "constant": true
    },
    {
      "inputs": [
        {
          "internalType": "string",
          "name": "_tokenFilter",
          "type": "string"
        },
        {
          "internalType": "string",
          "name": "_betFilter",
          "type": "string"
        },
        {
          "internalType": "string",
          "name": "_displayNameFilter",
          "type": "string"
        },
        {
          "internalType": "uint256",
          "name": "pageNum",
          "type": "uint256"
        }
      ],
      "name": "readBets",
      "outputs": [],
      "stateMutability": "view",
      "type": "function",
      "constant": true
    }
  ],
  "bytecode": "0x6080604052600160025534801561001557600080fd5b50611fb0806100256000396000f3fe60806040523480156200001157600080fd5b5060043610620000a05760003560e01c806394018246116200006f57806394018246146200013f578063a416f5ab1462000161578063af5996aa1462000183578063d17f538f14620001b9578063f7f6267d14620001ef57620000a0565b80630b5c4cfd14620000a55780631a32d16314620000c7578063292e955614620000e95780635c2029a9146200011f575b600080fd5b620000af6200020f565b604051620000be919062000b9e565b60405180910390f35b620000d1620002db565b604051620000e0919062000bdd565b60405180910390f35b62000107600480360381019062000101919062000da1565b62000324565b60405162000116919062000e4c565b60405180910390f35b6200013d600480360381019062000137919062000e69565b62000699565b005b6200014962000979565b60405162000158919062000eb8565b60405180910390f35b6200016b620009cd565b6040516200017a919062000bdd565b60405180910390f35b620001a160048036038101906200019b919062000f1a565b620009d3565b604051620001b0919062000eb8565b60405180910390f35b620001d76004803603810190620001d1919062000f4c565b620009f3565b604051620001e6919062000e4c565b60405180910390f35b6200020d600480360381019062000207919062000f93565b62000a42565b005b60606000803373ffffffffffffffffffffffffffffffffffffffff1673ffffffffffffffffffffffffffffffffffffffff168152602001908152602001600020805480602002602001604051908101604052809291908181526020018280548015620002d157602002820191906000526020600020905b8160009054906101000a900473ffffffffffffffffffffffffffffffffffffffff1673ffffffffffffffffffffffffffffffffffffffff168152602001906001019080831162000286575b5050505050905090565b60008060003373ffffffffffffffffffffffffffffffffffffffff1673ffffffffffffffffffffffffffffffffffffffff16815260200190815260200160002080549050905090565b60006001600260008282546200033b919062001091565b92505081905550600033838686600254604051620003599062000a48565b6200036995949392919062001192565b604051809103906000f08015801562000386573d6000803e3d6000fd5b5090507f34693a2c76fc48bbe330442aafbfbb13b232c26264f017d722511ab4126f9070338273ffffffffffffffffffffffffffffffffffffffff16634affb2606040518163ffffffff1660e01b8152600401600060405180830381865afa158015620003f7573d6000803e3d6000fd5b505050506040513d6000823e3d601f19601f820116820180604052508101906200042291906200127b565b8373ffffffffffffffffffffffffffffffffffffffff1663667d5d226040518163ffffffff1660e01b8152600401602060405180830381865afa1580156200046e573d6000803e3d6000fd5b505050506040513d601f19601f82011682018060405250810190620004949190620012e3565b8473ffffffffffffffffffffffffffffffffffffffff1663fc0c546a6040518163ffffffff1660e01b8152600401600060405180830381865afa158015620004e0573d6000803e3d6000fd5b505050506040513d6000823e3d601f19601f820116820180604052508101906200050b91906200127b565b8573ffffffffffffffffffffffffffffffffffffffff166327bce91b6040518163ffffffff1660e01b8152600401602060405180830381865afa15801562000557573d6000803e3d6000fd5b505050506040513d601f19601f820116820180604052508101906200057d9190620012e3565b6040516200059095949392919062001192565b60405180910390a16000803373ffffffffffffffffffffffffffffffffffffffff1673ffffffffffffffffffffffffffffffffffffffff168152602001908152602001600020819080600181540180825580915050600190039060005260206000200160009091909190916101000a81548173ffffffffffffffffffffffffffffffffffffffff021916908373ffffffffffffffffffffffffffffffffffffffff16021790555060018060003373ffffffffffffffffffffffffffffffffffffffff1673ffffffffffffffffffffffffffffffffffffffff16815260200190815260200160002060006101000a81548160ff021916908315150217905550809150509392505050565b60011515600160003373ffffffffffffffffffffffffffffffffffffffff1673ffffffffffffffffffffffffffffffffffffffff16815260200190815260200160002060009054906101000a900460ff16151514620006f757600080fd5b60005b6000803373ffffffffffffffffffffffffffffffffffffffff1673ffffffffffffffffffffffffffffffffffffffff16815260200190815260200160002080549050811162000975576000803373ffffffffffffffffffffffffffffffffffffffff1673ffffffffffffffffffffffffffffffffffffffff168152602001908152602001600020818154811062000796576200079562001315565b5b9060005260206000200160009054906101000a900473ffffffffffffffffffffffffffffffffffffffff1673ffffffffffffffffffffffffffffffffffffffff166327bce91b6040518163ffffffff1660e01b8152600401602060405180830381865afa1580156200080c573d6000803e3d6000fd5b505050506040513d601f19601f82011682018060405250810190620008329190620012e3565b8214156200095f576000803373ffffffffffffffffffffffffffffffffffffffff1673ffffffffffffffffffffffffffffffffffffffff16815260200190815260200160002081815481106200088d576200088c62001315565b5b9060005260206000200160006101000a81549073ffffffffffffffffffffffffffffffffffffffff021916905560008060003373ffffffffffffffffffffffffffffffffffffffff1673ffffffffffffffffffffffffffffffffffffffff1681526020019081526020016000208054905014156200095e576000600160003373ffffffffffffffffffffffffffffffffffffffff1673ffffffffffffffffffffffffffffffffffffffff16815260200190815260200160002060006101000a81548160ff0219169083151502179055505b5b80806200096c9062001344565b915050620006fa565b5050565b6000600160003373ffffffffffffffffffffffffffffffffffffffff1673ffffffffffffffffffffffffffffffffffffffff16815260200190815260200160002060009054906101000a900460ff16905090565b60025481565b60016020528060005260406000206000915054906101000a900460ff1681565b6000602052816000526040600020818154811062000a1057600080fd5b906000526020600020016000915091509054906101000a900473ffffffffffffffffffffffffffffffffffffffff1681565b50505050565b610be8806200139383390190565b600081519050919050565b600082825260208201905092915050565b6000819050602082019050919050565b600073ffffffffffffffffffffffffffffffffffffffff82169050919050565b6000819050919050565b600062000acd62000ac762000ac18462000a82565b62000aa2565b62000a82565b9050919050565b600062000ae18262000aac565b9050919050565b600062000af58262000ad4565b9050919050565b62000b078162000ae8565b82525050565b600062000b1b838362000afc565b60208301905092915050565b6000602082019050919050565b600062000b418262000a56565b62000b4d818562000a61565b935062000b5a8362000a72565b8060005b8381101562000b9157815162000b75888262000b0d565b975062000b828362000b27565b92505060018101905062000b5e565b5085935050505092915050565b6000602082019050818103600083015262000bba818462000b34565b905092915050565b6000819050919050565b62000bd78162000bc2565b82525050565b600060208201905062000bf4600083018462000bcc565b92915050565b6000604051905090565b600080fd5b600080fd5b62000c198162000bc2565b811462000c2557600080fd5b50565b60008135905062000c398162000c0e565b92915050565b600080fd5b600080fd5b6000601f19601f8301169050919050565b7f4e487b7100000000000000000000000000000000000000000000000000000000600052604160045260246000fd5b62000c948262000c49565b810181811067ffffffffffffffff8211171562000cb65762000cb562000c5a565b5b80604052505050565b600062000ccb62000bfa565b905062000cd9828262000c89565b919050565b600067ffffffffffffffff82111562000cfc5762000cfb62000c5a565b5b62000d078262000c49565b9050602081019050919050565b82818337600083830152505050565b600062000d3a62000d348462000cde565b62000cbf565b90508281526020810184848401111562000d595762000d5862000c44565b5b62000d6684828562000d14565b509392505050565b600082601f83011262000d865762000d8562000c3f565b5b813562000d9884826020860162000d23565b91505092915050565b60008060006060848603121562000dbd5762000dbc62000c04565b5b600062000dcd8682870162000c28565b935050602084013567ffffffffffffffff81111562000df15762000df062000c09565b5b62000dff8682870162000d6e565b925050604084013567ffffffffffffffff81111562000e235762000e2262000c09565b5b62000e318682870162000d6e565b9150509250925092565b62000e468162000ae8565b82525050565b600060208201905062000e63600083018462000e3b565b92915050565b60006020828403121562000e825762000e8162000c04565b5b600062000e928482850162000c28565b91505092915050565b60008115159050919050565b62000eb28162000e9b565b82525050565b600060208201905062000ecf600083018462000ea7565b92915050565b600062000ee28262000a82565b9050919050565b62000ef48162000ed5565b811462000f0057600080fd5b50565b60008135905062000f148162000ee9565b92915050565b60006020828403121562000f335762000f3262000c04565b5b600062000f438482850162000f03565b91505092915050565b6000806040838503121562000f665762000f6562000c04565b5b600062000f768582860162000f03565b925050602062000f898582860162000c28565b9150509250929050565b6000806000806080858703121562000fb05762000faf62000c04565b5b600085013567ffffffffffffffff81111562000fd15762000fd062000c09565b5b62000fdf8782880162000d6e565b945050602085013567ffffffffffffffff81111562001003576200100262000c09565b5b620010118782880162000d6e565b935050604085013567ffffffffffffffff81111562001035576200103462000c09565b5b620010438782880162000d6e565b9250506060620010568782880162000c28565b91505092959194509250565b7f4e487b7100000000000000000000000000000000000000000000000000000000600052601160045260246000fd5b60006200109e8262000bc2565b9150620010ab8362000bc2565b9250827fffffffffffffffffffffffffffffffffffffffffffffffffffffffffffffffff03821115620010e357620010e262001062565b5b828201905092915050565b620010f98162000ed5565b82525050565b600081519050919050565b600082825260208201905092915050565b60005b838110156200113b5780820151818401526020810190506200111e565b838111156200114b576000848401525b50505050565b60006200115e82620010ff565b6200116a81856200110a565b93506200117c8185602086016200111b565b620011878162000c49565b840191505092915050565b600060a082019050620011a96000830188620010ee565b8181036020830152620011bd818762001151565b9050620011ce604083018662000bcc565b8181036060830152620011e2818562001151565b9050620011f3608083018462000bcc565b9695505050505050565b6000620012146200120e8462000cde565b62000cbf565b90508281526020810184848401111562001233576200123262000c44565b5b620012408482856200111b565b509392505050565b600082601f83011262001260576200125f62000c3f565b5b815162001272848260208601620011fd565b91505092915050565b60006020828403121562001294576200129362000c04565b5b600082015167ffffffffffffffff811115620012b557620012b462000c09565b5b620012c38482850162001248565b91505092915050565b600081519050620012dd8162000c0e565b92915050565b600060208284031215620012fc57620012fb62000c04565b5b60006200130c84828501620012cc565b91505092915050565b7f4e487b7100000000000000000000000000000000000000000000000000000000600052603260045260246000fd5b6000620013518262000bc2565b91507fffffffffffffffffffffffffffffffffffffffffffffffffffffffffffffffff82141562001387576200138662001062565b5b60018201905091905056fe60806040523480156200001157600080fd5b5060405162000be838038062000be88339818101604052810190620000379190620003af565b846000806101000a81548173ffffffffffffffffffffffffffffffffffffffff021916908373ffffffffffffffffffffffffffffffffffffffff16021790555083600190805190602001906200008f929190620000c2565b50826002819055508160039080519060200190620000af929190620000c2565b50806004819055505050505050620004da565b828054620000d090620004a4565b90600052602060002090601f016020900481019282620000f4576000855562000140565b82601f106200010f57805160ff191683800117855562000140565b8280016001018555821562000140579182015b828111156200013f57825182559160200191906001019062000122565b5b5090506200014f919062000153565b5090565b5b808211156200016e57600081600090555060010162000154565b5090565b6000604051905090565b600080fd5b600080fd5b600073ffffffffffffffffffffffffffffffffffffffff82169050919050565b6000620001b38262000186565b9050919050565b620001c581620001a6565b8114620001d157600080fd5b50565b600081519050620001e581620001ba565b92915050565b600080fd5b600080fd5b6000601f19601f8301169050919050565b7f4e487b7100000000000000000000000000000000000000000000000000000000600052604160045260246000fd5b6200024082620001f5565b810181811067ffffffffffffffff8211171562000262576200026162000206565b5b80604052505050565b60006200027762000172565b905062000285828262000235565b919050565b600067ffffffffffffffff821115620002a857620002a762000206565b5b620002b382620001f5565b9050602081019050919050565b60005b83811015620002e0578082015181840152602081019050620002c3565b83811115620002f0576000848401525b50505050565b60006200030d62000307846200028a565b6200026b565b9050828152602081018484840111156200032c576200032b620001f0565b5b62000339848285620002c0565b509392505050565b600082601f830112620003595762000358620001eb565b5b81516200036b848260208601620002f6565b91505092915050565b6000819050919050565b620003898162000374565b81146200039557600080fd5b50565b600081519050620003a9816200037e565b92915050565b600080600080600060a08688031215620003ce57620003cd6200017c565b5b6000620003de88828901620001d4565b955050602086015167ffffffffffffffff81111562000402576200040162000181565b5b620004108882890162000341565b9450506040620004238882890162000398565b935050606086015167ffffffffffffffff81111562000447576200044662000181565b5b620004558882890162000341565b9250506080620004688882890162000398565b9150509295509295909350565b7f4e487b7100000000000000000000000000000000000000000000000000000000600052602260045260246000fd5b60006002820490506001821680620004bd57607f821691505b60208210811415620004d457620004d362000475565b5b50919050565b6106fe80620004ea6000396000f3fe608060405234801561001057600080fd5b50600436106100625760003560e01c806302d05d3f1461006757806327bce91b146100855780634affb260146100a3578063667d5d22146100c1578063e9a734ff146100df578063fc0c546a1461010f575b600080fd5b61006f61012d565b60405161007c9190610313565b60405180910390f35b61008d610151565b60405161009a9190610347565b60405180910390f35b6100ab610157565b6040516100b891906103fb565b60405180910390f35b6100c96101e5565b6040516100d69190610347565b60405180910390f35b6100f960048036038101906100f49190610566565b6101eb565b60405161010691906105f9565b60405180910390f35b610117610244565b60405161012491906103fb565b60405180910390f35b60008054906101000a900473ffffffffffffffffffffffffffffffffffffffff1681565b60045481565b6001805461016490610643565b80601f016020809104026020016040519081016040528092919081815260200182805461019090610643565b80156101dd5780601f106101b2576101008083540402835291602001916101dd565b820191906000526020600020905b8154815290600101906020018083116101c057829003601f168201915b505050505081565b60025481565b6000816040516020016101fe91906106b1565b604051602081830303815290604052805190602001208360405160200161022591906106b1565b6040516020818303038152906040528051906020012014905092915050565b6003805461025190610643565b80601f016020809104026020016040519081016040528092919081815260200182805461027d90610643565b80156102ca5780601f1061029f576101008083540402835291602001916102ca565b820191906000526020600020905b8154815290600101906020018083116102ad57829003601f168201915b505050505081565b600073ffffffffffffffffffffffffffffffffffffffff82169050919050565b60006102fd826102d2565b9050919050565b61030d816102f2565b82525050565b60006020820190506103286000830184610304565b92915050565b6000819050919050565b6103418161032e565b82525050565b600060208201905061035c6000830184610338565b92915050565b600081519050919050565b600082825260208201905092915050565b60005b8381101561039c578082015181840152602081019050610381565b838111156103ab576000848401525b50505050565b6000601f19601f8301169050919050565b60006103cd82610362565b6103d7818561036d565b93506103e781856020860161037e565b6103f0816103b1565b840191505092915050565b6000602082019050818103600083015261041581846103c2565b905092915050565b6000604051905090565b600080fd5b600080fd5b600080fd5b600080fd5b7f4e487b7100000000000000000000000000000000000000000000000000000000600052604160045260246000fd5b610473826103b1565b810181811067ffffffffffffffff821117156104925761049161043b565b5b80604052505050565b60006104a561041d565b90506104b1828261046a565b919050565b600067ffffffffffffffff8211156104d1576104d061043b565b5b6104da826103b1565b9050602081019050919050565b82818337600083830152505050565b6000610509610504846104b6565b61049b565b90508281526020810184848401111561052557610524610436565b5b6105308482856104e7565b509392505050565b600082601f83011261054d5761054c610431565b5b813561055d8482602086016104f6565b91505092915050565b6000806040838503121561057d5761057c610427565b5b600083013567ffffffffffffffff81111561059b5761059a61042c565b5b6105a785828601610538565b925050602083013567ffffffffffffffff8111156105c8576105c761042c565b5b6105d485828601610538565b9150509250929050565b60008115159050919050565b6105f3816105de565b82525050565b600060208201905061060e60008301846105ea565b92915050565b7f4e487b7100000000000000000000000000000000000000000000000000000000600052602260045260246000fd5b6000600282049050600182168061065b57607f821691505b6020821081141561066f5761066e610614565b5b50919050565b600081905092915050565b600061068b82610362565b6106958185610675565b93506106a581856020860161037e565b80840191505092915050565b60006106bd8284610680565b91508190509291505056fea2646970667358221220661957c480d9bcfaa341bef36589b02b18721c70f172c22673ef1220f9b63c3264736f6c634300080b0033a2646970667358221220340c92b6fcb236c6ca7db248704d80055b12b5c5f4df98d83abbb3cdb56ba15a64736f6c634300080b0033",
  "immutableReferences": {},
  "source": "// SPDX-License-Identifier: MIT\r\npragma solidity >=0.4.22 <0.9.0;\r\n\r\n// TODO don't use ETH retard gas\r\n// Solang Solidity Compiler allows you to deploy .sol smart contracts to Solana blockchain\r\n\r\ncontract Bet {\r\n\r\n    address public creator;\r\n    string public displayName;\r\n    uint256 public wager;\r\n    string public token;\r\n    uint256 public betId;\r\n\r\n    constructor(address _creator, string memory _displayName, uint256 _wager, string memory _token, uint256 _betId) {\r\n        creator = _creator;\r\n        displayName = _displayName;\r\n        wager = _wager;\r\n        token = _token;\r\n        betId = _betId;\r\n    }\r\n\r\n    // Pure\r\n    function compareStringsbyBytes(string memory s1, string memory s2) public pure returns(bool){\r\n        return keccak256(abi.encodePacked(s1)) == keccak256(abi.encodePacked(s2));\r\n    }\r\n    \r\n    // Modifiers\r\n    modifier mustBeCreator {\r\n        require(msg.sender == creator);\r\n        _;\r\n    }\r\n\r\n    modifier mustMatchBet(Bet incMatchBet) {\r\n        require(incMatchBet.wager() == wager);\r\n        require(compareStringsbyBytes(incMatchBet.token(), token));\r\n        _;\r\n    }\r\n}\r\n\r\ncontract BetFactory{\r\n\r\n    mapping(address => Bet[]) public allBets;\r\n    mapping(address => bool) public allAddresses;\r\n    uint256 public betCounter = 1;\r\n\r\n    event CreatedBet(address creator, string displayName, uint256 wager, string token, uint256 betId);\r\n\r\n    function createBet(uint256 _wager, string memory _token, string memory _displayName) external returns(Bet){\r\n        betCounter += 1;\r\n        Bet bet = new Bet(msg.sender, _displayName, _wager, _token, betCounter);\r\n        emit CreatedBet(msg.sender, bet.displayName(), bet.wager(), bet.token(), bet.betId());\r\n        allBets[msg.sender].push(bet);\r\n        allAddresses[msg.sender] = true;\r\n        return bet;\r\n    }\r\n\r\n    // This doesn't work atm\r\n    function removeBet(uint256 _betId) public hasOpenBets{\r\n        for (uint j = 0; j <= allBets[msg.sender].length; j ++) {  \r\n            if(_betId == allBets[msg.sender][j].betId()){\r\n                delete allBets[msg.sender][j];\r\n                if(allBets[msg.sender].length == 0){\r\n                    allAddresses[msg.sender] = false;\r\n                }\r\n            }\r\n        }\r\n    } \r\n\r\n    function getSelfBets() public view returns (Bet[] memory){ \r\n        return allBets[msg.sender];\r\n    }\r\n\r\n    function getSelfBetsLength() public view returns (uint256){\r\n        return allBets[msg.sender].length;\r\n    }\r\n\r\n    function getHasOpenBets() public view returns(bool){\r\n        return allAddresses[msg.sender];\r\n    }\r\n\r\n    function readBets(string memory _tokenFilter, string memory _betFilter, string memory _displayNameFilter, uint256 pageNum) public view{\r\n        // TODO in some way that's not mega expensive\r\n    }\r\n\r\n    //Modifiers\r\n    modifier hasOpenBets(){\r\n        // BROKEN ?\r\n        require(allAddresses[msg.sender] == true);\r\n        _;\r\n    }\r\n\r\n}\r\n\r\nabstract contract Mortal is Bet {\r\n\r\n    function kill() public mustBeCreator { \r\n        selfdestruct(payable(msg.sender));\r\n    }\r\n}",
  "sourcePath": "C:\\Users\\Maxwell\\Documents\\DuelArena\\DuelArena\\contracts\\BetFactory.sol",
  "compiler": {
    "name": "solc",
    "version": "0.8.11+commit.d7f03943.Emscripten.clang"
  },
  "schemaVersion": "3.4.3",
  "updatedAt": "2021-12-29T23:13:26.842Z",
  "networkType": "ethereum",
  "devdoc": {
    "kind": "dev",
    "methods": {},
    "version": 1
  },
  "userdoc": {
    "kind": "user",
    "methods": {},
    "version": 1
  }
}