{
  "contractName": "BetFactory",
  "abi": [
    {
      "anonymous": false,
      "inputs": [
        {
          "indexed": false,
          "internalType": "address",
          "name": "creator",
          "type": "address"
        },
        {
          "indexed": false,
          "internalType": "string",
          "name": "displayName",
          "type": "string"
        },
        {
          "indexed": false,
          "internalType": "uint256",
          "name": "wager",
          "type": "uint256"
        },
        {
          "indexed": false,
          "internalType": "bool",
          "name": "isEven",
          "type": "bool"
        },
        {
          "indexed": false,
          "internalType": "string",
          "name": "token",
          "type": "string"
        }
      ],
      "name": "CreatedBet",
      "type": "event"
    },
    {
      "inputs": [
        {
          "internalType": "uint256",
          "name": "",
          "type": "uint256"
        }
      ],
      "name": "allBets",
      "outputs": [
        {
          "internalType": "contract Bet",
          "name": "",
          "type": "address"
        }
      ],
      "stateMutability": "view",
      "type": "function",
      "constant": true
    },
    {
      "inputs": [
        {
          "internalType": "string",
          "name": "",
          "type": "string"
        },
        {
          "internalType": "uint256",
          "name": "",
          "type": "uint256"
        }
      ],
      "name": "betsByDisplayName",
      "outputs": [
        {
          "internalType": "contract Bet",
          "name": "",
          "type": "address"
        }
      ],
      "stateMutability": "view",
      "type": "function",
      "constant": true
    },
    {
      "inputs": [
        {
          "internalType": "string",
          "name": "",
          "type": "string"
        },
        {
          "internalType": "uint256",
          "name": "",
          "type": "uint256"
        }
      ],
      "name": "betsByToken",
      "outputs": [
        {
          "internalType": "contract Bet",
          "name": "",
          "type": "address"
        }
      ],
      "stateMutability": "view",
      "type": "function",
      "constant": true
    },
    {
      "inputs": [
        {
          "internalType": "address",
          "name": "",
          "type": "address"
        },
        {
          "internalType": "uint256",
          "name": "",
          "type": "uint256"
        }
      ],
      "name": "betsByWallet",
      "outputs": [
        {
          "internalType": "contract Bet",
          "name": "",
          "type": "address"
        }
      ],
      "stateMutability": "view",
      "type": "function",
      "constant": true
    },
    {
      "stateMutability": "payable",
      "type": "receive",
      "payable": true
    },
    {
      "inputs": [
        {
          "internalType": "uint256",
          "name": "_wager",
          "type": "uint256"
        },
        {
          "internalType": "bool",
          "name": "_isEven",
          "type": "bool"
        },
        {
          "internalType": "string",
          "name": "_token",
          "type": "string"
        },
        {
          "internalType": "string",
          "name": "_displayName",
          "type": "string"
        }
      ],
      "name": "createBet",
      "outputs": [
        {
          "internalType": "contract Bet",
          "name": "",
          "type": "address"
        }
      ],
      "stateMutability": "payable",
      "type": "function",
      "payable": true
    },
    {
      "inputs": [
        {
          "internalType": "uint256",
          "name": "_pageNum",
          "type": "uint256"
        },
        {
          "internalType": "int8",
          "name": "_filter",
          "type": "int8"
        },
        {
          "internalType": "string",
          "name": "_input",
          "type": "string"
        }
      ],
      "name": "get25Bets",
      "outputs": [
        {
          "internalType": "contract Bet[]",
          "name": "",
          "type": "address[]"
        }
      ],
      "stateMutability": "view",
      "type": "function",
      "constant": true
    },
    {
      "inputs": [
        {
          "internalType": "address",
          "name": "_betAddress",
          "type": "address"
        }
      ],
      "name": "deleteBet",
      "outputs": [],
      "stateMutability": "nonpayable",
      "type": "function"
    }
  ],
  "bytecode": "0x608060405234801561001057600080fd5b5061338c806100206000396000f3fe6080604052600436106200007f5760003560e01c806399177357116200005557806399177357146200014a578063cf4d72151462000178578063e0ced0e114620001bc578063fcf5462914620002005762000087565b80630ba7c963146200008c5780635418f1ea14620000d05780636f597a2914620001145762000087565b366200008757005b600080fd5b3480156200009957600080fd5b50620000b86004803603810190620000b2919062001202565b62000244565b604051620000c79190620012f3565b60405180910390f35b348015620000dd57600080fd5b50620000fc6004803603810190620000f69190620013b7565b620002a9565b6040516200010b919062001505565b60405180910390f35b6200013260048036038101906200012c919062001566565b6200053f565b604051620001419190620012f3565b60405180910390f35b3480156200015757600080fd5b5062000176600480360381019062000170919062001663565b6200082d565b005b3480156200018557600080fd5b50620001a460048036038101906200019e919062001695565b62000d73565b604051620001b39190620012f3565b60405180910390f35b348015620001c957600080fd5b50620001e86004803603810190620001e29190620016dc565b62000dc2565b604051620001f79190620012f3565b60405180910390f35b3480156200020d57600080fd5b506200022c600480360381019062000226919062001202565b62000e02565b6040516200023b9190620012f3565b60405180910390f35b60038280516020810182018051848252602083016020850120818352809550505050505081815481106200027757600080fd5b906000526020600020016000915091509054906101000a900473ffffffffffffffffffffffffffffffffffffffff1681565b60606000808560000b14620003675760018560000b14620003215760028560000b14620002f85760038484604051620002e492919062001742565b90815260200160405180910390206200031b565b600284846040516200030c92919062001742565b90815260200160405180910390205b62000361565b600160003373ffffffffffffffffffffffffffffffffffffffff1673ffffffffffffffffffffffffffffffffffffffff1681526020019081526020016000205b6200036a565b60005b805480602002602001604051908101604052809291908181526020018280548015620003ec57602002820191906000526020600020905b8160009054906101000a900473ffffffffffffffffffffffffffffffffffffffff1673ffffffffffffffffffffffffffffffffffffffff1681526020019060010190808311620003a1575b505050505090506000601980886200040591906200178c565b620004119190620017ed565b8251116200042f576019825162000429919062001879565b62000432565b60195b905060008167ffffffffffffffff81111562000453576200045262001080565b5b604051908082528060200260200182016040528015620004825781602001602082028036833780820191505090505b50905060005b828110156200053057838160198b620004a291906200178c565b620004ae9190620017ed565b81518110620004c257620004c1620018b1565b5b6020026020010151828281518110620004e057620004df620018b1565b5b602002602001019073ffffffffffffffffffffffffffffffffffffffff16908173ffffffffffffffffffffffffffffffffffffffff168152505080806200052790620018e0565b91505062000488565b50809350505050949350505050565b600080341162000586576040517f08c379a00000000000000000000000000000000000000000000000000000000081526004016200057d906200198e565b60405180910390fd5b6000873385858b8b8b8b6040516200059e9062001001565b620005b0979695949392919062001a16565b6040518091039082f0905080158015620005ce573d6000803e3d6000fd5b5090507f4cb428e0b799ffce7064b20d11851c73ed5b7471371fadc5f6bb91e0c0b250783385858b8b8b8b6040516200060e979695949392919062001a16565b60405180910390a1600160003373ffffffffffffffffffffffffffffffffffffffff1673ffffffffffffffffffffffffffffffffffffffff168152602001908152602001600020819080600181540180825580915050600190039060005260206000200160009091909190916101000a81548173ffffffffffffffffffffffffffffffffffffffff021916908373ffffffffffffffffffffffffffffffffffffffff16021790555060028686604051620006ca92919062001742565b9081526020016040518091039020819080600181540180825580915050600190039060005260206000200160009091909190916101000a81548173ffffffffffffffffffffffffffffffffffffffff021916908373ffffffffffffffffffffffffffffffffffffffff160217905550600384846040516200074d92919062001742565b9081526020016040518091039020819080600181540180825580915050600190039060005260206000200160009091909190916101000a81548173ffffffffffffffffffffffffffffffffffffffff021916908373ffffffffffffffffffffffffffffffffffffffff1602179055506000819080600181540180825580915050600190039060005260206000200160009091909190916101000a81548173ffffffffffffffffffffffffffffffffffffffff021916908373ffffffffffffffffffffffffffffffffffffffff160217905550809150509695505050505050565b6000600160003373ffffffffffffffffffffffffffffffffffffffff1673ffffffffffffffffffffffffffffffffffffffff168152602001908152602001600020805480602002602001604051908101604052809291908181526020018280548015620008f057602002820191906000526020600020905b8160009054906101000a900473ffffffffffffffffffffffffffffffffffffffff1673ffffffffffffffffffffffffffffffffffffffff1681526020019060010190808311620008a5575b5050505050905060005b815181101562000d6e578273ffffffffffffffffffffffffffffffffffffffff16828281518110620009315762000930620018b1565b5b602002602001015173ffffffffffffffffffffffffffffffffffffffff160362000d585760008282815181106200096d576200096c620018b1565b5b6020026020010151905060008173ffffffffffffffffffffffffffffffffffffffff1663edfa7eb06040518163ffffffff1660e01b8152600401600060405180830381865afa158015620009c5573d6000803e3d6000fd5b505050506040513d6000823e3d601f19601f82011682018060405250810190620009f0919062001c8f565b60800151905060008273ffffffffffffffffffffffffffffffffffffffff1663edfa7eb06040518163ffffffff1660e01b8152600401600060405180830381865afa15801562000a44573d6000803e3d6000fd5b505050506040513d6000823e3d601f19601f8201168201806040525081019062000a6f919062001c8f565b60200151905060016000805490500362000a985760008062000a9291906200100f565b62000aa6565b62000aa560008462000e67565b5b60018060003373ffffffffffffffffffffffffffffffffffffffff1673ffffffffffffffffffffffffffffffffffffffff168152602001908152602001600020805490500362000b4357600160003373ffffffffffffffffffffffffffffffffffffffff1673ffffffffffffffffffffffffffffffffffffffff168152602001908152602001600020600062000b3d91906200100f565b62000b8e565b62000b8d600160003373ffffffffffffffffffffffffffffffffffffffff1673ffffffffffffffffffffffffffffffffffffffff1681526020019081526020016000208462000e67565b5b600160028360405162000ba2919062001d22565b9081526020016040518091039020805490500362000bee5760028260405162000bcc919062001d22565b9081526020016040518091039020600062000be891906200100f565b62000c37565b62000c3660028360405162000c04919062001d22565b908152602001604051809103902086868151811062000c285762000c27620018b1565b5b602002602001015162000e67565b5b600160038260405162000c4b919062001d22565b9081526020016040518091039020805490500362000c975760038160405162000c75919062001d22565b9081526020016040518091039020600062000c9191906200100f565b62000ce0565b62000cdf60038260405162000cad919062001d22565b908152602001604051809103902086868151811062000cd15762000cd0620018b1565b5b602002602001015162000e67565b5b8273ffffffffffffffffffffffffffffffffffffffff1663cbf0b0c0336040518263ffffffff1660e01b815260040162000d1b919062001d3b565b600060405180830381600087803b15801562000d3657600080fd5b505af115801562000d4b573d6000803e3d6000fd5b5050505050505062000d6e565b808062000d6590620018e0565b915050620008fa565b505050565b6001602052816000526040600020818154811062000d9057600080fd5b906000526020600020016000915091509054906101000a900473ffffffffffffffffffffffffffffffffffffffff1681565b6000818154811062000dd357600080fd5b906000526020600020016000915054906101000a900473ffffffffffffffffffffffffffffffffffffffff1681565b600282805160208101820180518482526020830160208501208183528095505050505050818154811062000e3557600080fd5b906000526020600020016000915091509054906101000a900473ffffffffffffffffffffffffffffffffffffffff1681565b60005b828054905081101562000ffc5782818154811062000e8d5762000e8c620018b1565b5b9060005260206000200160009054906101000a900473ffffffffffffffffffffffffffffffffffffffff1673ffffffffffffffffffffffffffffffffffffffff168273ffffffffffffffffffffffffffffffffffffffff160362000fe657826001848054905062000eff919062001d58565b8154811062000f135762000f12620018b1565b5b9060005260206000200160009054906101000a900473ffffffffffffffffffffffffffffffffffffffff1683828154811062000f545762000f53620018b1565b5b9060005260206000200160006101000a81548173ffffffffffffffffffffffffffffffffffffffff021916908373ffffffffffffffffffffffffffffffffffffffff1602179055508280548062000fb05762000faf62001d93565b5b6001900381819060005260206000200160006101000a81549073ffffffffffffffffffffffffffffffffffffffff021916905590555b808062000ff390620018e0565b91505062000e6a565b505050565b6115948062001dc383390190565b50805460008255906000526020600020908101906200102f919062001032565b50565b5b808211156200104d57600081600090555060010162001033565b5090565b6000604051905090565b600080fd5b600080fd5b600080fd5b600080fd5b6000601f19601f8301169050919050565b7f4e487b7100000000000000000000000000000000000000000000000000000000600052604160045260246000fd5b620010ba826200106f565b810181811067ffffffffffffffff82111715620010dc57620010db62001080565b5b80604052505050565b6000620010f162001051565b9050620010ff8282620010af565b919050565b600067ffffffffffffffff82111562001122576200112162001080565b5b6200112d826200106f565b9050602081019050919050565b82818337600083830152505050565b6000620011606200115a8462001104565b620010e5565b9050828152602081018484840111156200117f576200117e6200106a565b5b6200118c8482856200113a565b509392505050565b600082601f830112620011ac57620011ab62001065565b5b8135620011be84826020860162001149565b91505092915050565b6000819050919050565b620011dc81620011c7565b8114620011e857600080fd5b50565b600081359050620011fc81620011d1565b92915050565b600080604083850312156200121c576200121b6200105b565b5b600083013567ffffffffffffffff8111156200123d576200123c62001060565b5b6200124b8582860162001194565b92505060206200125e85828601620011eb565b9150509250929050565b600073ffffffffffffffffffffffffffffffffffffffff82169050919050565b6000819050919050565b6000620012b3620012ad620012a78462001268565b62001288565b62001268565b9050919050565b6000620012c78262001292565b9050919050565b6000620012db82620012ba565b9050919050565b620012ed81620012ce565b82525050565b60006020820190506200130a6000830184620012e2565b92915050565b60008160000b9050919050565b620013288162001310565b81146200133457600080fd5b50565b60008135905062001348816200131d565b92915050565b600080fd5b600080fd5b60008083601f84011262001371576200137062001065565b5b8235905067ffffffffffffffff8111156200139157620013906200134e565b5b602083019150836001820283011115620013b057620013af62001353565b5b9250929050565b60008060008060608587031215620013d457620013d36200105b565b5b6000620013e487828801620011eb565b9450506020620013f78782880162001337565b935050604085013567ffffffffffffffff8111156200141b576200141a62001060565b5b620014298782880162001358565b925092505092959194509250565b600081519050919050565b600082825260208201905092915050565b6000819050602082019050919050565b6200146e81620012ce565b82525050565b600062001482838362001463565b60208301905092915050565b6000602082019050919050565b6000620014a88262001437565b620014b4818562001442565b9350620014c18362001453565b8060005b83811015620014f8578151620014dc888262001474565b9750620014e9836200148e565b925050600181019050620014c5565b5085935050505092915050565b600060208201905081810360008301526200152181846200149b565b905092915050565b60008115159050919050565b620015408162001529565b81146200154c57600080fd5b50565b600081359050620015608162001535565b92915050565b600080600080600080608087890312156200158657620015856200105b565b5b60006200159689828a01620011eb565b9650506020620015a989828a016200154f565b955050604087013567ffffffffffffffff811115620015cd57620015cc62001060565b5b620015db89828a0162001358565b9450945050606087013567ffffffffffffffff81111562001601576200160062001060565b5b6200160f89828a0162001358565b92509250509295509295509295565b60006200162b8262001268565b9050919050565b6200163d816200161e565b81146200164957600080fd5b50565b6000813590506200165d8162001632565b92915050565b6000602082840312156200167c576200167b6200105b565b5b60006200168c848285016200164c565b91505092915050565b60008060408385031215620016af57620016ae6200105b565b5b6000620016bf858286016200164c565b9250506020620016d285828601620011eb565b9150509250929050565b600060208284031215620016f557620016f46200105b565b5b60006200170584828501620011eb565b91505092915050565b600081905092915050565b60006200172783856200170e565b9350620017368385846200113a565b82840190509392505050565b60006200175182848662001719565b91508190509392505050565b7f4e487b7100000000000000000000000000000000000000000000000000000000600052601160045260246000fd5b60006200179982620011c7565b9150620017a683620011c7565b9250817fffffffffffffffffffffffffffffffffffffffffffffffffffffffffffffffff0483118215151615620017e257620017e16200175d565b5b828202905092915050565b6000620017fa82620011c7565b91506200180783620011c7565b9250827fffffffffffffffffffffffffffffffffffffffffffffffffffffffffffffffff038211156200183f576200183e6200175d565b5b828201905092915050565b7f4e487b7100000000000000000000000000000000000000000000000000000000600052601260045260246000fd5b60006200188682620011c7565b91506200189383620011c7565b925082620018a657620018a56200184a565b5b828206905092915050565b7f4e487b7100000000000000000000000000000000000000000000000000000000600052603260045260246000fd5b6000620018ed82620011c7565b91507fffffffffffffffffffffffffffffffffffffffffffffffffffffffffffffffff82036200192257620019216200175d565b5b600182019050919050565b600082825260208201905092915050565b7f5a65726f20657468657220686173206265656e2073656e740000000000000000600082015250565b6000620019766018836200192d565b915062001983826200193e565b602082019050919050565b60006020820190508181036000830152620019a98162001967565b9050919050565b620019bb816200161e565b82525050565b6000620019cf83856200192d565b9350620019de8385846200113a565b620019e9836200106f565b840190509392505050565b620019ff81620011c7565b82525050565b62001a108162001529565b82525050565b600060a08201905062001a2d600083018a620019b0565b818103602083015262001a4281888a620019c1565b905062001a536040830187620019f4565b62001a62606083018662001a05565b818103608083015262001a77818486620019c1565b905098975050505050505050565b600080fd5b600080fd5b600062001a9c8262001268565b9050919050565b62001aae8162001a8f565b811462001aba57600080fd5b50565b60008151905062001ace8162001aa3565b92915050565b60005b8381101562001af457808201518184015260208101905062001ad7565b8381111562001b04576000848401525b50505050565b600062001b2162001b1b8462001104565b620010e5565b90508281526020810184848401111562001b405762001b3f6200106a565b5b62001b4d84828562001ad4565b509392505050565b600082601f83011262001b6d5762001b6c62001065565b5b815162001b7f84826020860162001b0a565b91505092915050565b60008151905062001b9981620011d1565b92915050565b60008151905062001bb08162001535565b92915050565b600060a0828403121562001bcf5762001bce62001a85565b5b62001bdb60a0620010e5565b9050600062001bed8482850162001abd565b600083015250602082015167ffffffffffffffff81111562001c145762001c1362001a8a565b5b62001c228482850162001b55565b602083015250604062001c388482850162001b88565b604083015250606062001c4e8482850162001b9f565b606083015250608082015167ffffffffffffffff81111562001c755762001c7462001a8a565b5b62001c838482850162001b55565b60808301525092915050565b60006020828403121562001ca85762001ca76200105b565b5b600082015167ffffffffffffffff81111562001cc95762001cc862001060565b5b62001cd78482850162001bb6565b91505092915050565b600081519050919050565b600062001cf88262001ce0565b62001d0481856200170e565b935062001d1681856020860162001ad4565b80840191505092915050565b600062001d30828462001ceb565b915081905092915050565b600060208201905062001d526000830184620019b0565b92915050565b600062001d6582620011c7565b915062001d7283620011c7565b92508282101562001d885762001d876200175d565b5b828203905092915050565b7f4e487b7100000000000000000000000000000000000000000000000000000000600052603160045260246000fdfe60806040526040516200159438038062001594833981810160405281019062000029919062000450565b6040518060a001604052808673ffffffffffffffffffffffffffffffffffffffff1681526020018581526020018481526020018315158152602001828152506000808201518160000160006101000a81548173ffffffffffffffffffffffffffffffffffffffff021916908373ffffffffffffffffffffffffffffffffffffffff1602179055506020820151816001019080519060200190620000ce92919062000126565b506040820151816002015560608201518160030160006101000a81548160ff02191690831515021790555060808201518160040190805190602001906200011792919062000126565b5090505050505050506200057a565b828054620001349062000545565b90600052602060002090601f016020900481019282620001585760008555620001a4565b82601f106200017357805160ff1916838001178555620001a4565b82800160010185558215620001a4579182015b82811115620001a357825182559160200191906001019062000186565b5b509050620001b39190620001b7565b5090565b5b80821115620001d2576000816000905550600101620001b8565b5090565b6000604051905090565b600080fd5b600080fd5b600073ffffffffffffffffffffffffffffffffffffffff82169050919050565b60006200021782620001ea565b9050919050565b62000229816200020a565b81146200023557600080fd5b50565b60008151905062000249816200021e565b92915050565b600080fd5b600080fd5b6000601f19601f8301169050919050565b7f4e487b7100000000000000000000000000000000000000000000000000000000600052604160045260246000fd5b620002a48262000259565b810181811067ffffffffffffffff82111715620002c657620002c56200026a565b5b80604052505050565b6000620002db620001d6565b9050620002e9828262000299565b919050565b600067ffffffffffffffff8211156200030c576200030b6200026a565b5b620003178262000259565b9050602081019050919050565b60005b838110156200034457808201518184015260208101905062000327565b8381111562000354576000848401525b50505050565b6000620003716200036b84620002ee565b620002cf565b90508281526020810184848401111562000390576200038f62000254565b5b6200039d84828562000324565b509392505050565b600082601f830112620003bd57620003bc6200024f565b5b8151620003cf8482602086016200035a565b91505092915050565b6000819050919050565b620003ed81620003d8565b8114620003f957600080fd5b50565b6000815190506200040d81620003e2565b92915050565b60008115159050919050565b6200042a8162000413565b81146200043657600080fd5b50565b6000815190506200044a816200041f565b92915050565b600080600080600060a086880312156200046f576200046e620001e0565b5b60006200047f8882890162000238565b955050602086015167ffffffffffffffff811115620004a357620004a2620001e5565b5b620004b188828901620003a5565b9450506040620004c488828901620003fc565b9350506060620004d78882890162000439565b925050608086015167ffffffffffffffff811115620004fb57620004fa620001e5565b5b6200050988828901620003a5565b9150509295509295909350565b7f4e487b7100000000000000000000000000000000000000000000000000000000600052602260045260246000fd5b600060028204905060018216806200055e57607f821691505b60208210810362000574576200057362000516565b5b50919050565b61100a806200058a6000396000f3fe60806040526004361061003f5760003560e01c8063951b6c7a14610044578063cbf0b0c014610073578063edfa7eb01461009c578063ef03047c146100c7575b600080fd5b34801561005057600080fd5b506100596100e3565b60405161006a9594939291906108e6565b60405180910390f35b34801561007f57600080fd5b5061009a60048036038101906100959190610999565b610244565b005b3480156100a857600080fd5b506100b1610332565b6040516100be9190610aba565b60405180910390f35b6100e160048036038101906100dc9190610c3d565b6104eb565b005b60008060000160009054906101000a900473ffffffffffffffffffffffffffffffffffffffff169080600101805461011a90610cc8565b80601f016020809104026020016040519081016040528092919081815260200182805461014690610cc8565b80156101935780601f1061016857610100808354040283529160200191610193565b820191906000526020600020905b81548152906001019060200180831161017657829003601f168201915b5050505050908060020154908060030160009054906101000a900460ff16908060040180546101c190610cc8565b80601f01602080910402602001604051908101604052809291908181526020018280546101ed90610cc8565b801561023a5780601f1061020f5761010080835404028352916020019161023a565b820191906000526020600020905b81548152906001019060200180831161021d57829003601f168201915b5050505050905085565b6000800160009054906101000a900473ffffffffffffffffffffffffffffffffffffffff1673ffffffffffffffffffffffffffffffffffffffff168173ffffffffffffffffffffffffffffffffffffffff16146102d6576040517f08c379a00000000000000000000000000000000000000000000000000000000081526004016102cd90610d45565b60405180910390fd5b60004711610319576040517f08c379a000000000000000000000000000000000000000000000000000000000815260040161031090610db1565b60405180910390fd5b8073ffffffffffffffffffffffffffffffffffffffff16ff5b61033a610791565b60006040518060a00160405290816000820160009054906101000a900473ffffffffffffffffffffffffffffffffffffffff1673ffffffffffffffffffffffffffffffffffffffff1673ffffffffffffffffffffffffffffffffffffffff1681526020016001820180546103ad90610cc8565b80601f01602080910402602001604051908101604052809291908181526020018280546103d990610cc8565b80156104265780601f106103fb57610100808354040283529160200191610426565b820191906000526020600020905b81548152906001019060200180831161040957829003601f168201915b50505050508152602001600282015481526020016003820160009054906101000a900460ff1615151515815260200160048201805461046490610cc8565b80601f016020809104026020016040519081016040528092919081815260200182805461049090610cc8565b80156104dd5780601f106104b2576101008083540402835291602001916104dd565b820191906000526020600020905b8154815290600101906020018083116104c057829003601f168201915b505050505081525050905090565b6000600201543414610532576040517f08c379a000000000000000000000000000000000000000000000000000000000815260040161052990610e1d565b60405180910390fd5b6105c9826000600401805461054690610cc8565b80601f016020809104026020016040519081016040528092919081815260200182805461057290610cc8565b80156105bf5780601f10610594576101008083540402835291602001916105bf565b820191906000526020600020905b8154815290600101906020018083116105a257829003601f168201915b5050505050610738565b610608576040517f08c379a00000000000000000000000000000000000000000000000000000000081526004016105ff90610e89565b60405180910390fd5b6000800160009054906101000a900473ffffffffffffffffffffffffffffffffffffffff1673ffffffffffffffffffffffffffffffffffffffff163373ffffffffffffffffffffffffffffffffffffffff160361069a576040517f08c379a000000000000000000000000000000000000000000000000000000000815260040161069190610ef5565b60405180910390fd5b600060030160009054906101000a900460ff16151581151515146106f3576040517f08c379a00000000000000000000000000000000000000000000000000000000081526004016106ea90610f61565b60405180910390fd5b33600560006101000a81548173ffffffffffffffffffffffffffffffffffffffff021916908373ffffffffffffffffffffffffffffffffffffffff1602179055505050565b60008160405160200161074b9190610fbd565b60405160208183030381529060405280519060200120836040516020016107729190610fbd565b6040516020818303038152906040528051906020012014905092915050565b6040518060a00160405280600073ffffffffffffffffffffffffffffffffffffffff1681526020016060815260200160008152602001600015158152602001606081525090565b600073ffffffffffffffffffffffffffffffffffffffff82169050919050565b6000610803826107d8565b9050919050565b610813816107f8565b82525050565b600081519050919050565b600082825260208201905092915050565b60005b83811015610853578082015181840152602081019050610838565b83811115610862576000848401525b50505050565b6000601f19601f8301169050919050565b600061088482610819565b61088e8185610824565b935061089e818560208601610835565b6108a781610868565b840191505092915050565b6000819050919050565b6108c5816108b2565b82525050565b60008115159050919050565b6108e0816108cb565b82525050565b600060a0820190506108fb600083018861080a565b818103602083015261090d8187610879565b905061091c60408301866108bc565b61092960608301856108d7565b818103608083015261093b8184610879565b90509695505050505050565b6000604051905090565b600080fd5b600080fd5b6000610966826107d8565b9050919050565b6109768161095b565b811461098157600080fd5b50565b6000813590506109938161096d565b92915050565b6000602082840312156109af576109ae610951565b5b60006109bd84828501610984565b91505092915050565b6109cf816107f8565b82525050565b600082825260208201905092915050565b60006109f182610819565b6109fb81856109d5565b9350610a0b818560208601610835565b610a1481610868565b840191505092915050565b610a28816108b2565b82525050565b610a37816108cb565b82525050565b600060a083016000830151610a5560008601826109c6565b5060208301518482036020860152610a6d82826109e6565b9150506040830151610a826040860182610a1f565b506060830151610a956060860182610a2e565b5060808301518482036080860152610aad82826109e6565b9150508091505092915050565b60006020820190508181036000830152610ad48184610a3d565b905092915050565b600080fd5b600080fd5b7f4e487b7100000000000000000000000000000000000000000000000000000000600052604160045260246000fd5b610b1e82610868565b810181811067ffffffffffffffff82111715610b3d57610b3c610ae6565b5b80604052505050565b6000610b50610947565b9050610b5c8282610b15565b919050565b600067ffffffffffffffff821115610b7c57610b7b610ae6565b5b610b8582610868565b9050602081019050919050565b82818337600083830152505050565b6000610bb4610baf84610b61565b610b46565b905082815260208101848484011115610bd057610bcf610ae1565b5b610bdb848285610b92565b509392505050565b600082601f830112610bf857610bf7610adc565b5b8135610c08848260208601610ba1565b91505092915050565b610c1a816108cb565b8114610c2557600080fd5b50565b600081359050610c3781610c11565b92915050565b60008060408385031215610c5457610c53610951565b5b600083013567ffffffffffffffff811115610c7257610c71610956565b5b610c7e85828601610be3565b9250506020610c8f85828601610c28565b9150509250929050565b7f4e487b7100000000000000000000000000000000000000000000000000000000600052602260045260246000fd5b60006002820490506001821680610ce057607f821691505b602082108103610cf357610cf2610c99565b5b50919050565b7f43616c6c6572206973206e6f74206f776e657200000000000000000000000000600082015250565b6000610d2f601383610824565b9150610d3a82610cf9565b602082019050919050565b60006020820190508181036000830152610d5e81610d22565b9050919050565b7f436f6e74726163742062616c616e6365206973207a65726f0000000000000000600082015250565b6000610d9b601883610824565b9150610da682610d65565b602082019050919050565b60006020820190508181036000830152610dca81610d8e565b9050919050565b7f576167657220646f65736e2774206d6174636800000000000000000000000000600082015250565b6000610e07601383610824565b9150610e1282610dd1565b602082019050919050565b60006020820190508181036000830152610e3681610dfa565b9050919050565b7f546f6b656e20646f65736e2774206d6174636800000000000000000000000000600082015250565b6000610e73601383610824565b9150610e7e82610e3d565b602082019050919050565b60006020820190508181036000830152610ea281610e66565b9050919050565b7f43726561746f7220616e64206d61746368657220617265207468652073616d65600082015250565b6000610edf602083610824565b9150610eea82610ea9565b602082019050919050565b60006020820190508181036000830152610f0e81610ed2565b9050919050565b7f426f7468206265742073616d6520626574000000000000000000000000000000600082015250565b6000610f4b601183610824565b9150610f5682610f15565b602082019050919050565b60006020820190508181036000830152610f7a81610f3e565b9050919050565b600081905092915050565b6000610f9782610819565b610fa18185610f81565b9350610fb1818560208601610835565b80840191505092915050565b6000610fc98284610f8c565b91508190509291505056fea26469706673582212207d82f8dc0ccfaaf9ccf04141b6dfb454251e13deca5e0a103ff2f35ea102d70464736f6c634300080d0033a26469706673582212207d682e108f6354431066d39848a7cfa1a948561c609eea9d817e1103b55d8a3764736f6c634300080d0033",
  "immutableReferences": {},
  "source": "// SPDX-License-Identifier: MIT\r\npragma solidity ^0.8.13;\r\n\r\n\r\ncontract Bet {\r\n\r\n    event Withdraw(address winner, uint256 amount, string winnerDisplayName, int txLastDigit, string token);\r\n\r\n    struct BetData{\r\n        address payable creator;\r\n        string displayName;\r\n        uint256 wager;\r\n        bool isEven;\r\n        string token;\r\n    }\r\n\r\n    BetData public betData;\r\n    address payable matcher;\r\n\r\n    constructor(address _creator, string memory _displayName, uint256 _wager, bool _isEven, string memory _token) payable {\r\n        betData = BetData(\r\n            payable(_creator),\r\n            _displayName,\r\n            _wager,\r\n            _isEven,\r\n            _token\r\n        );\r\n    }\r\n\r\n    function withdrawToWinner(address payable winner, int txLastDigit, string calldata winnerDisplayName) internal{\r\n        emit Withdraw(winner, address(this).balance, winnerDisplayName, txLastDigit, betData.token);\r\n        selfdestruct(winner);\r\n    }\r\n\r\n    // TODO this makes more sense in the BetFactoy. Lowers contract creation costs as well as aids in removing the bet from all arrays once finished\r\n    function matchBet(string memory _matchToken, bool _matchIsEven) public payable{\r\n        require(msg.value == betData.wager, \"Wager doesn't match\");\r\n        require(compareStringsByBytes(_matchToken, betData.token), \"Token doesn't match\");\r\n        require(msg.sender != betData.creator, \"Creator and matcher are the same\");\r\n        require(!_matchIsEven == betData.isEven, \"Both bet same bet\");\r\n        matcher = payable(msg.sender);\r\n        // TODO CHAINLINK RNG\r\n        // address payable winner = didCreatorWin ? betData.creator : matcher;\r\n        // string memory winnerDisplayName = didCreatorWin ? betData.displayName : matchDisplayName;\r\n        // withdrawToWinner(winner, txLastDigit, winnerDisplayName);\r\n    }\r\n\r\n    // Pure\r\n    function compareStringsByBytes(string memory s1, string memory s2) internal pure returns(bool){ \r\n        return keccak256(abi.encodePacked(s1)) == keccak256(abi.encodePacked(s2));\r\n    }\r\n\r\n    // View\r\n    function getBetData() public view returns(BetData memory){\r\n        return betData;\r\n    }\r\n    \r\n    // Selfdestruct\r\n    function kill(address _address) external{\r\n        require(_address == address(betData.creator), \"Caller is not owner\");\r\n        require(address(this).balance > 0, \"Contract balance is zero\");\r\n        selfdestruct(payable(_address));\r\n    }\r\n}\r\n\r\ncontract BetFactory{\r\n\r\n    // TODO look into Swarm for distributed data storage. The setup below clearly won't scale. Get this project working first. \r\n    // State this intention in the first line of the README\r\n\r\n    Bet[] public allBets;\r\n    mapping(address => Bet[]) public betsByWallet;\r\n    mapping(string => Bet[]) public betsByToken; \r\n    mapping(string => Bet[]) public betsByDisplayName;\r\n\r\n    event CreatedBet(address creator, string displayName, uint256 wager, bool isEven, string token);\r\n\r\n    receive() external payable{} // Allows contract to receive ether from anywhere\r\n\r\n    function createBet(uint256 _wager, bool _isEven, string calldata _token, string calldata _displayName) external payable returns(Bet){ \r\n        require(msg.value > 0, \"Zero ether has been sent\");\r\n        Bet bet = new Bet{value: _wager}(msg.sender, _displayName, _wager, _isEven, _token);\r\n        emit CreatedBet(msg.sender, _displayName, _wager, _isEven, _token);\r\n        betsByWallet[msg.sender].push(bet);\r\n        betsByToken[_token].push(bet);\r\n        betsByDisplayName[_displayName].push(bet);\r\n        allBets.push(bet);\r\n        return bet;\r\n    }\r\n\r\n    // Note these only returns the bet contract addresses. More needs to be done with web3 and ABI data to get the actual contract object\r\n    function get25Bets(uint256 _pageNum, int8 _filter, string calldata _input) public view returns (Bet[] memory) {\r\n        Bet[] memory arr = _filter == 0 ?\r\n            allBets : _filter == 1 ?\r\n                betsByWallet[msg.sender] : _filter == 2 ?\r\n                    betsByToken[_input] \r\n                    :\r\n                    betsByDisplayName[_input];\r\n        uint256 length = arr.length > _pageNum * 25 + 25 ? 25 : arr.length % 25; \r\n        Bet[] memory buildingArr = new Bet[](length);\r\n        for(uint256 j = 0; j < length; j++){\r\n            buildingArr[j] = arr[(_pageNum * 25) + j];\r\n        }\r\n        return buildingArr;\r\n    }\r\n\r\n    function deleteFromArray(Bet[] storage arr, Bet bet) internal {\r\n        for(uint i = 0; i < arr.length; i++){ \r\n            if(address(bet) == address(arr[i])){\r\n                arr[i] = arr[arr.length - 1];\r\n                arr.pop();\r\n            }\r\n        }\r\n    }\r\n\r\n    function deleteBet(address _betAddress) public {\r\n        Bet[] memory bets = betsByWallet[msg.sender];\r\n        for(uint j = 0; j < bets.length; j++){ \r\n            if(address(bets[j]) == _betAddress){\r\n                Bet bet = bets[j];\r\n                string memory token = bet.getBetData().token;\r\n                string memory displayName = bet.getBetData().displayName;\r\n                if(allBets.length == 1){\r\n                    delete allBets;\r\n                } else {\r\n                    deleteFromArray(allBets, bet);\r\n                }\r\n                if(betsByWallet[msg.sender].length == 1){\r\n                    delete betsByWallet[msg.sender];\r\n                } else {\r\n                    deleteFromArray(betsByWallet[msg.sender], bet);\r\n                }\r\n                if(betsByToken[token].length == 1){\r\n                    delete betsByToken[token];\r\n                } else {\r\n                    deleteFromArray(betsByToken[token], bets[j]);\r\n                }\r\n                if(betsByDisplayName[displayName].length == 1){\r\n                    delete betsByDisplayName[displayName];\r\n                } else {\r\n                    deleteFromArray(betsByDisplayName[displayName], bets[j]);\r\n                }\r\n                bet.kill(msg.sender);\r\n                break;\r\n            }\r\n        }\r\n    }\r\n}",
  "sourcePath": "C:\\Users\\Maxwell\\Documents\\DuelArena\\DuelArena\\contracts\\BetFactory.sol",
  "compiler": {
    "name": "solc",
    "version": "0.8.13+commit.abaa5c0e.Emscripten.clang"
  },
  "schemaVersion": "3.4.3",
  "updatedAt": "2022-04-28T22:37:54.738Z",
  "networkType": "ethereum",
  "devdoc": {
    "kind": "dev",
    "methods": {},
    "version": 1
  },
  "userdoc": {
    "kind": "user",
    "methods": {},
    "version": 1
  }
}